{
	"common/contracts/finance/PaymentSplitter.sol": {
		"PaymentSplitter": {
			"abi": [
				{
					"inputs": [
						{
							"internalType": "address[]",
							"name": "payees",
							"type": "address[]"
						},
						{
							"internalType": "uint256[]",
							"name": "shares_",
							"type": "uint256[]"
						}
					],
					"stateMutability": "payable",
					"type": "constructor"
				},
				{
					"anonymous": false,
					"inputs": [
						{
							"indexed": true,
							"internalType": "contract IERC20",
							"name": "token",
							"type": "address"
						},
						{
							"indexed": false,
							"internalType": "address",
							"name": "to",
							"type": "address"
						},
						{
							"indexed": false,
							"internalType": "uint256",
							"name": "amount",
							"type": "uint256"
						}
					],
					"name": "ERC20PaymentReleased",
					"type": "event"
				},
				{
					"anonymous": false,
					"inputs": [
						{
							"indexed": false,
							"internalType": "address",
							"name": "account",
							"type": "address"
						},
						{
							"indexed": false,
							"internalType": "uint256",
							"name": "shares",
							"type": "uint256"
						}
					],
					"name": "PayeeAdded",
					"type": "event"
				},
				{
					"anonymous": false,
					"inputs": [
						{
							"indexed": false,
							"internalType": "address",
							"name": "from",
							"type": "address"
						},
						{
							"indexed": false,
							"internalType": "uint256",
							"name": "amount",
							"type": "uint256"
						}
					],
					"name": "PaymentReceived",
					"type": "event"
				},
				{
					"anonymous": false,
					"inputs": [
						{
							"indexed": false,
							"internalType": "address",
							"name": "to",
							"type": "address"
						},
						{
							"indexed": false,
							"internalType": "uint256",
							"name": "amount",
							"type": "uint256"
						}
					],
					"name": "PaymentReleased",
					"type": "event"
				},
				{
					"inputs": [
						{
							"internalType": "uint256",
							"name": "index",
							"type": "uint256"
						}
					],
					"name": "payee",
					"outputs": [
						{
							"internalType": "address",
							"name": "",
							"type": "address"
						}
					],
					"stateMutability": "view",
					"type": "function"
				},
				{
					"inputs": [
						{
							"internalType": "address",
							"name": "account",
							"type": "address"
						}
					],
					"name": "releasable",
					"outputs": [
						{
							"internalType": "uint256",
							"name": "",
							"type": "uint256"
						}
					],
					"stateMutability": "view",
					"type": "function"
				},
				{
					"inputs": [
						{
							"internalType": "contract IERC20",
							"name": "token",
							"type": "address"
						},
						{
							"internalType": "address",
							"name": "account",
							"type": "address"
						}
					],
					"name": "releasable",
					"outputs": [
						{
							"internalType": "uint256",
							"name": "",
							"type": "uint256"
						}
					],
					"stateMutability": "view",
					"type": "function"
				},
				{
					"inputs": [
						{
							"internalType": "address payable",
							"name": "account",
							"type": "address"
						}
					],
					"name": "release",
					"outputs": [],
					"stateMutability": "nonpayable",
					"type": "function"
				},
				{
					"inputs": [
						{
							"internalType": "contract IERC20",
							"name": "token",
							"type": "address"
						},
						{
							"internalType": "address",
							"name": "account",
							"type": "address"
						}
					],
					"name": "release",
					"outputs": [],
					"stateMutability": "nonpayable",
					"type": "function"
				},
				{
					"inputs": [
						{
							"internalType": "contract IERC20",
							"name": "token",
							"type": "address"
						},
						{
							"internalType": "address",
							"name": "account",
							"type": "address"
						}
					],
					"name": "released",
					"outputs": [
						{
							"internalType": "uint256",
							"name": "",
							"type": "uint256"
						}
					],
					"stateMutability": "view",
					"type": "function"
				},
				{
					"inputs": [
						{
							"internalType": "address",
							"name": "account",
							"type": "address"
						}
					],
					"name": "released",
					"outputs": [
						{
							"internalType": "uint256",
							"name": "",
							"type": "uint256"
						}
					],
					"stateMutability": "view",
					"type": "function"
				},
				{
					"inputs": [
						{
							"internalType": "address",
							"name": "account",
							"type": "address"
						}
					],
					"name": "shares",
					"outputs": [
						{
							"internalType": "uint256",
							"name": "",
							"type": "uint256"
						}
					],
					"stateMutability": "view",
					"type": "function"
				},
				{
					"inputs": [
						{
							"internalType": "contract IERC20",
							"name": "token",
							"type": "address"
						}
					],
					"name": "totalReleased",
					"outputs": [
						{
							"internalType": "uint256",
							"name": "",
							"type": "uint256"
						}
					],
					"stateMutability": "view",
					"type": "function"
				},
				{
					"inputs": [],
					"name": "totalReleased",
					"outputs": [
						{
							"internalType": "uint256",
							"name": "",
							"type": "uint256"
						}
					],
					"stateMutability": "view",
					"type": "function"
				},
				{
					"inputs": [],
					"name": "totalShares",
					"outputs": [
						{
							"internalType": "uint256",
							"name": "",
							"type": "uint256"
						}
					],
					"stateMutability": "view",
					"type": "function"
				},
				{
					"stateMutability": "payable",
					"type": "receive"
				}
			],
			"devdoc": {
				"details": "This contract allows to split Ether payments among a group of accounts. The sender does not need to be aware that the Ether will be split in this way, since it is handled transparently by the contract. The split can be in equal parts or in any other arbitrary proportion. The way this is specified is by assigning each account to a number of shares. Of all the Ether that this contract receives, each account will then be able to claim an amount proportional to the percentage of total shares they were assigned. The distribution of shares is set at the time of contract deployment and can't be updated thereafter. `PaymentSplitter` follows a _pull payment_ model. This means that payments are not automatically forwarded to the accounts but kept in this contract, and the actual transfer is triggered as a separate step by calling the {release} function. NOTE: This contract assumes that ERC20 tokens will behave similarly to native tokens (Ether). Rebasing tokens, and tokens that apply fees during transfers, are likely to not be supported as expected. If in doubt, we encourage you to run tests before sending real value to this contract.",
				"kind": "dev",
				"methods": {
					"constructor": {
						"details": "Creates an instance of `PaymentSplitter` where each account in `payees` is assigned the number of shares at the matching position in the `shares` array. All addresses in `payees` must be non-zero. Both arrays must have the same non-zero length, and there must be no duplicates in `payees`."
					},
					"payee(uint256)": {
						"details": "Getter for the address of the payee number `index`."
					},
					"releasable(address)": {
						"details": "Getter for the amount of payee's releasable Ether."
					},
					"releasable(address,address)": {
						"details": "Getter for the amount of payee's releasable `token` tokens. `token` should be the address of an IERC20 contract."
					},
					"release(address)": {
						"details": "Triggers a transfer to `account` of the amount of Ether they are owed, according to their percentage of the total shares and their previous withdrawals."
					},
					"release(address,address)": {
						"details": "Triggers a transfer to `account` of the amount of `token` tokens they are owed, according to their percentage of the total shares and their previous withdrawals. `token` must be the address of an IERC20 contract."
					},
					"released(address)": {
						"details": "Getter for the amount of Ether already released to a payee."
					},
					"released(address,address)": {
						"details": "Getter for the amount of `token` tokens already released to a payee. `token` should be the address of an IERC20 contract."
					},
					"shares(address)": {
						"details": "Getter for the amount of shares held by an account."
					},
					"totalReleased()": {
						"details": "Getter for the total amount of Ether already released."
					},
					"totalReleased(address)": {
						"details": "Getter for the total amount of `token` already released. `token` should be the address of an IERC20 contract."
					},
					"totalShares()": {
						"details": "Getter for the total shares held by payees."
					}
				},
				"title": "PaymentSplitter",
				"version": 1
			},
			"evm": {
				"assembly": "    /* \"common/contracts/finance/PaymentSplitter.sol\":1471:8571  contract PaymentSplitter is Context {... */\n  mstore(0x40, 0x80)\n    /* \"common/contracts/finance/PaymentSplitter.sol\":2448:2807  constructor(address[] memory payees, uint256[] memory shares_) payable {... */\n  mload(0x40)\n  sub(codesize, bytecodeSize)\n  dup1\n  bytecodeSize\n  dup4\n  codecopy\n  dup2\n  dup2\n  add\n  0x40\n  mstore\n  dup2\n  add\n  swap1\n  tag_1\n  swap2\n  swap1\n  tag_2\n  jump\t// in\ntag_1:\n    /* \"common/contracts/finance/PaymentSplitter.sol\":2554:2561  shares_ */\n  dup1\n    /* \"common/contracts/finance/PaymentSplitter.sol\":2554:2568  shares_.length */\n  mload\n    /* \"common/contracts/finance/PaymentSplitter.sol\":2537:2543  payees */\n  dup3\n    /* \"common/contracts/finance/PaymentSplitter.sol\":2537:2550  payees.length */\n  mload\n    /* \"common/contracts/finance/PaymentSplitter.sol\":2537:2568  payees.length == shares_.length */\n  eq\n    /* \"common/contracts/finance/PaymentSplitter.sol\":2529:2623  require(payees.length == shares_.length, \"PaymentSplitter: payees and shares length mismatch\") */\n  tag_5\n  jumpi\n  mload(0x40)\n  0x08c379a000000000000000000000000000000000000000000000000000000000\n  dup2\n  mstore\n  0x04\n  add\n  tag_6\n  swap1\n  tag_7\n  jump\t// in\ntag_6:\n  mload(0x40)\n  dup1\n  swap2\n  sub\n  swap1\n  revert\ntag_5:\n    /* \"common/contracts/finance/PaymentSplitter.sol\":2657:2658  0 */\n  0x00\n    /* \"common/contracts/finance/PaymentSplitter.sol\":2641:2647  payees */\n  dup3\n    /* \"common/contracts/finance/PaymentSplitter.sol\":2641:2654  payees.length */\n  mload\n    /* \"common/contracts/finance/PaymentSplitter.sol\":2641:2658  payees.length > 0 */\n  gt\n    /* \"common/contracts/finance/PaymentSplitter.sol\":2633:2689  require(payees.length > 0, \"PaymentSplitter: no payees\") */\n  tag_8\n  jumpi\n  mload(0x40)\n  0x08c379a000000000000000000000000000000000000000000000000000000000\n  dup2\n  mstore\n  0x04\n  add\n  tag_9\n  swap1\n  tag_10\n  jump\t// in\ntag_9:\n  mload(0x40)\n  dup1\n  swap2\n  sub\n  swap1\n  revert\ntag_8:\n    /* \"common/contracts/finance/PaymentSplitter.sol\":2705:2714  uint256 i */\n  0x00\n    /* \"common/contracts/finance/PaymentSplitter.sol\":2700:2801  for (uint256 i = 0; i < payees.length; i++) {... */\ntag_11:\n    /* \"common/contracts/finance/PaymentSplitter.sol\":2724:2730  payees */\n  dup3\n    /* \"common/contracts/finance/PaymentSplitter.sol\":2724:2737  payees.length */\n  mload\n    /* \"common/contracts/finance/PaymentSplitter.sol\":2720:2721  i */\n  dup2\n    /* \"common/contracts/finance/PaymentSplitter.sol\":2720:2737  i < payees.length */\n  lt\n    /* \"common/contracts/finance/PaymentSplitter.sol\":2700:2801  for (uint256 i = 0; i < payees.length; i++) {... */\n  iszero\n  tag_12\n  jumpi\n    /* \"common/contracts/finance/PaymentSplitter.sol\":2758:2790  _addPayee(payees[i], shares_[i]) */\n  tag_14\n    /* \"common/contracts/finance/PaymentSplitter.sol\":2768:2774  payees */\n  dup4\n    /* \"common/contracts/finance/PaymentSplitter.sol\":2775:2776  i */\n  dup3\n    /* \"common/contracts/finance/PaymentSplitter.sol\":2768:2777  payees[i] */\n  dup2\n  mload\n  dup2\n  lt\n  tag_15\n  jumpi\n  tag_16\n  tag_17\n  jump\t// in\ntag_16:\ntag_15:\n  0x20\n  mul\n  0x20\n  add\n  add\n  mload\n    /* \"common/contracts/finance/PaymentSplitter.sol\":2779:2786  shares_ */\n  dup4\n    /* \"common/contracts/finance/PaymentSplitter.sol\":2787:2788  i */\n  dup4\n    /* \"common/contracts/finance/PaymentSplitter.sol\":2779:2789  shares_[i] */\n  dup2\n  mload\n  dup2\n  lt\n  tag_18\n  jumpi\n  tag_19\n  tag_17\n  jump\t// in\ntag_19:\ntag_18:\n  0x20\n  mul\n  0x20\n  add\n  add\n  mload\n    /* \"common/contracts/finance/PaymentSplitter.sol\":2758:2767  _addPayee */\n  shl(0x20, tag_20)\n    /* \"common/contracts/finance/PaymentSplitter.sol\":2758:2790  _addPayee(payees[i], shares_[i]) */\n  0x20\n  shr\n  jump\t// in\ntag_14:\n    /* \"common/contracts/finance/PaymentSplitter.sol\":2739:2742  i++ */\n  dup1\n  dup1\n  tag_21\n  swap1\n  tag_22\n  jump\t// in\ntag_21:\n  swap2\n  pop\n  pop\n    /* \"common/contracts/finance/PaymentSplitter.sol\":2700:2801  for (uint256 i = 0; i < payees.length; i++) {... */\n  jump(tag_11)\ntag_12:\n  pop\n    /* \"common/contracts/finance/PaymentSplitter.sol\":2448:2807  constructor(address[] memory payees, uint256[] memory shares_) payable {... */\n  pop\n  pop\n    /* \"common/contracts/finance/PaymentSplitter.sol\":1471:8571  contract PaymentSplitter is Context {... */\n  jump(tag_23)\n    /* \"common/contracts/finance/PaymentSplitter.sol\":8105:8569  function _addPayee(address account, uint256 shares_) private {... */\ntag_20:\n    /* \"common/contracts/finance/PaymentSplitter.sol\":8203:8204  0 */\n  0x00\n    /* \"common/contracts/finance/PaymentSplitter.sol\":8184:8205  account != address(0) */\n  0xffffffffffffffffffffffffffffffffffffffff\n  and\n    /* \"common/contracts/finance/PaymentSplitter.sol\":8184:8191  account */\n  dup3\n    /* \"common/contracts/finance/PaymentSplitter.sol\":8184:8205  account != address(0) */\n  0xffffffffffffffffffffffffffffffffffffffff\n  and\n  eq\n  iszero\n    /* \"common/contracts/finance/PaymentSplitter.sol\":8176:8254  require(account != address(0), \"PaymentSplitter: account is the zero address\") */\n  tag_25\n  jumpi\n  mload(0x40)\n  0x08c379a000000000000000000000000000000000000000000000000000000000\n  dup2\n  mstore\n  0x04\n  add\n  tag_26\n  swap1\n  tag_27\n  jump\t// in\ntag_26:\n  mload(0x40)\n  dup1\n  swap2\n  sub\n  swap1\n  revert\ntag_25:\n    /* \"common/contracts/finance/PaymentSplitter.sol\":8282:8283  0 */\n  0x00\n    /* \"common/contracts/finance/PaymentSplitter.sol\":8272:8279  shares_ */\n  dup2\n    /* \"common/contracts/finance/PaymentSplitter.sol\":8272:8283  shares_ > 0 */\n  gt\n    /* \"common/contracts/finance/PaymentSplitter.sol\":8264:8317  require(shares_ > 0, \"PaymentSplitter: shares are 0\") */\n  tag_28\n  jumpi\n  mload(0x40)\n  0x08c379a000000000000000000000000000000000000000000000000000000000\n  dup2\n  mstore\n  0x04\n  add\n  tag_29\n  swap1\n  tag_30\n  jump\t// in\ntag_29:\n  mload(0x40)\n  dup1\n  swap2\n  sub\n  swap1\n  revert\ntag_28:\n    /* \"common/contracts/finance/PaymentSplitter.sol\":8355:8356  0 */\n  0x00\n    /* \"common/contracts/finance/PaymentSplitter.sol\":8335:8342  _shares */\n  0x02\n    /* \"common/contracts/finance/PaymentSplitter.sol\":8335:8351  _shares[account] */\n  0x00\n    /* \"common/contracts/finance/PaymentSplitter.sol\":8343:8350  account */\n  dup5\n    /* \"common/contracts/finance/PaymentSplitter.sol\":8335:8351  _shares[account] */\n  0xffffffffffffffffffffffffffffffffffffffff\n  and\n  0xffffffffffffffffffffffffffffffffffffffff\n  and\n  dup2\n  mstore\n  0x20\n  add\n  swap1\n  dup2\n  mstore\n  0x20\n  add\n  0x00\n  keccak256\n  sload\n    /* \"common/contracts/finance/PaymentSplitter.sol\":8335:8356  _shares[account] == 0 */\n  eq\n    /* \"common/contracts/finance/PaymentSplitter.sol\":8327:8404  require(_shares[account] == 0, \"PaymentSplitter: account already has shares\") */\n  tag_31\n  jumpi\n  mload(0x40)\n  0x08c379a000000000000000000000000000000000000000000000000000000000\n  dup2\n  mstore\n  0x04\n  add\n  tag_32\n  swap1\n  tag_33\n  jump\t// in\ntag_32:\n  mload(0x40)\n  dup1\n  swap2\n  sub\n  swap1\n  revert\ntag_31:\n    /* \"common/contracts/finance/PaymentSplitter.sol\":8415:8422  _payees */\n  0x04\n    /* \"common/contracts/finance/PaymentSplitter.sol\":8428:8435  account */\n  dup3\n    /* \"common/contracts/finance/PaymentSplitter.sol\":8415:8436  _payees.push(account) */\n  swap1\n  dup1\n  0x01\n  dup2\n  sload\n  add\n  dup1\n  dup3\n  sstore\n  dup1\n  swap2\n  pop\n  pop\n  0x01\n  swap1\n  sub\n  swap1\n  0x00\n  mstore\n  keccak256(0x00, 0x20)\n  add\n  0x00\n  swap1\n  swap2\n  swap1\n  swap2\n  swap1\n  swap2\n  0x0100\n  exp\n  dup2\n  sload\n  dup2\n  0xffffffffffffffffffffffffffffffffffffffff\n  mul\n  not\n  and\n  swap1\n  dup4\n  0xffffffffffffffffffffffffffffffffffffffff\n  and\n  mul\n  or\n  swap1\n  sstore\n  pop\n    /* \"common/contracts/finance/PaymentSplitter.sol\":8465:8472  shares_ */\n  dup1\n    /* \"common/contracts/finance/PaymentSplitter.sol\":8446:8453  _shares */\n  0x02\n    /* \"common/contracts/finance/PaymentSplitter.sol\":8446:8462  _shares[account] */\n  0x00\n    /* \"common/contracts/finance/PaymentSplitter.sol\":8454:8461  account */\n  dup5\n    /* \"common/contracts/finance/PaymentSplitter.sol\":8446:8462  _shares[account] */\n  0xffffffffffffffffffffffffffffffffffffffff\n  and\n  0xffffffffffffffffffffffffffffffffffffffff\n  and\n  dup2\n  mstore\n  0x20\n  add\n  swap1\n  dup2\n  mstore\n  0x20\n  add\n  0x00\n  keccak256\n    /* \"common/contracts/finance/PaymentSplitter.sol\":8446:8472  _shares[account] = shares_ */\n  dup2\n  swap1\n  sstore\n  pop\n    /* \"common/contracts/finance/PaymentSplitter.sol\":8512:8519  shares_ */\n  dup1\n    /* \"common/contracts/finance/PaymentSplitter.sol\":8497:8509  _totalShares */\n  sload(0x00)\n    /* \"common/contracts/finance/PaymentSplitter.sol\":8497:8519  _totalShares + shares_ */\n  tag_35\n  swap2\n  swap1\n  tag_36\n  jump\t// in\ntag_35:\n    /* \"common/contracts/finance/PaymentSplitter.sol\":8482:8494  _totalShares */\n  0x00\n    /* \"common/contracts/finance/PaymentSplitter.sol\":8482:8519  _totalShares = _totalShares + shares_ */\n  dup2\n  swap1\n  sstore\n  pop\n    /* \"common/contracts/finance/PaymentSplitter.sol\":8534:8562  PayeeAdded(account, shares_) */\n  0x40c340f65e17194d14ddddb073d3c9f888e3cb52b5aae0c6c7706b4fbc905fac\n    /* \"common/contracts/finance/PaymentSplitter.sol\":8545:8552  account */\n  dup3\n    /* \"common/contracts/finance/PaymentSplitter.sol\":8554:8561  shares_ */\n  dup3\n    /* \"common/contracts/finance/PaymentSplitter.sol\":8534:8562  PayeeAdded(account, shares_) */\n  mload(0x40)\n  tag_37\n  swap3\n  swap2\n  swap1\n  tag_38\n  jump\t// in\ntag_37:\n  mload(0x40)\n  dup1\n  swap2\n  sub\n  swap1\n  log1\n    /* \"common/contracts/finance/PaymentSplitter.sol\":8105:8569  function _addPayee(address account, uint256 shares_) private {... */\n  pop\n  pop\n  jump\t// out\n    /* \"#utility.yul\":24:768   */\ntag_40:\n    /* \"#utility.yul\":131:136   */\n  0x00\n    /* \"#utility.yul\":156:237   */\n  tag_42\n    /* \"#utility.yul\":172:236   */\n  tag_43\n    /* \"#utility.yul\":229:235   */\n  dup5\n    /* \"#utility.yul\":172:236   */\n  tag_44\n  jump\t// in\ntag_43:\n    /* \"#utility.yul\":156:237   */\n  tag_45\n  jump\t// in\ntag_42:\n    /* \"#utility.yul\":147:237   */\n  swap1\n  pop\n    /* \"#utility.yul\":257:262   */\n  dup1\n    /* \"#utility.yul\":286:292   */\n  dup4\n    /* \"#utility.yul\":279:284   */\n  dup3\n    /* \"#utility.yul\":272:293   */\n  mstore\n    /* \"#utility.yul\":320:324   */\n  0x20\n    /* \"#utility.yul\":313:318   */\n  dup3\n    /* \"#utility.yul\":309:325   */\n  add\n    /* \"#utility.yul\":302:325   */\n  swap1\n  pop\n    /* \"#utility.yul\":346:352   */\n  dup3\n    /* \"#utility.yul\":396:399   */\n  dup6\n    /* \"#utility.yul\":388:392   */\n  0x20\n    /* \"#utility.yul\":380:386   */\n  dup7\n    /* \"#utility.yul\":376:393   */\n  mul\n    /* \"#utility.yul\":371:374   */\n  dup3\n    /* \"#utility.yul\":367:394   */\n  add\n    /* \"#utility.yul\":364:400   */\n  gt\n    /* \"#utility.yul\":361:504   */\n  iszero\n  tag_46\n  jumpi\n    /* \"#utility.yul\":415:494   */\n  tag_47\n  tag_48\n  jump\t// in\ntag_47:\n    /* \"#utility.yul\":361:504   */\ntag_46:\n    /* \"#utility.yul\":528:529   */\n  0x00\n    /* \"#utility.yul\":513:762   */\ntag_49:\n    /* \"#utility.yul\":538:544   */\n  dup6\n    /* \"#utility.yul\":535:536   */\n  dup2\n    /* \"#utility.yul\":532:545   */\n  lt\n    /* \"#utility.yul\":513:762   */\n  iszero\n  tag_51\n  jumpi\n    /* \"#utility.yul\":606:609   */\n  dup2\n    /* \"#utility.yul\":635:683   */\n  tag_52\n    /* \"#utility.yul\":679:682   */\n  dup9\n    /* \"#utility.yul\":667:677   */\n  dup3\n    /* \"#utility.yul\":635:683   */\n  tag_53\n  jump\t// in\ntag_52:\n    /* \"#utility.yul\":630:633   */\n  dup5\n    /* \"#utility.yul\":623:684   */\n  mstore\n    /* \"#utility.yul\":713:717   */\n  0x20\n    /* \"#utility.yul\":708:711   */\n  dup5\n    /* \"#utility.yul\":704:718   */\n  add\n    /* \"#utility.yul\":697:718   */\n  swap4\n  pop\n    /* \"#utility.yul\":747:751   */\n  0x20\n    /* \"#utility.yul\":742:745   */\n  dup4\n    /* \"#utility.yul\":738:752   */\n  add\n    /* \"#utility.yul\":731:752   */\n  swap3\n  pop\n    /* \"#utility.yul\":573:762   */\n  pop\n    /* \"#utility.yul\":560:561   */\n  0x01\n    /* \"#utility.yul\":557:558   */\n  dup2\n    /* \"#utility.yul\":553:562   */\n  add\n    /* \"#utility.yul\":548:562   */\n  swap1\n  pop\n    /* \"#utility.yul\":513:762   */\n  jump(tag_49)\ntag_51:\n    /* \"#utility.yul\":517:531   */\n  pop\n    /* \"#utility.yul\":137:768   */\n  pop\n  pop\n    /* \"#utility.yul\":24:768   */\n  swap4\n  swap3\n  pop\n  pop\n  pop\n  jump\t// out\n    /* \"#utility.yul\":791:1535   */\ntag_54:\n    /* \"#utility.yul\":898:903   */\n  0x00\n    /* \"#utility.yul\":923:1004   */\n  tag_56\n    /* \"#utility.yul\":939:1003   */\n  tag_57\n    /* \"#utility.yul\":996:1002   */\n  dup5\n    /* \"#utility.yul\":939:1003   */\n  tag_58\n  jump\t// in\ntag_57:\n    /* \"#utility.yul\":923:1004   */\n  tag_45\n  jump\t// in\ntag_56:\n    /* \"#utility.yul\":914:1004   */\n  swap1\n  pop\n    /* \"#utility.yul\":1024:1029   */\n  dup1\n    /* \"#utility.yul\":1053:1059   */\n  dup4\n    /* \"#utility.yul\":1046:1051   */\n  dup3\n    /* \"#utility.yul\":1039:1060   */\n  mstore\n    /* \"#utility.yul\":1087:1091   */\n  0x20\n    /* \"#utility.yul\":1080:1085   */\n  dup3\n    /* \"#utility.yul\":1076:1092   */\n  add\n    /* \"#utility.yul\":1069:1092   */\n  swap1\n  pop\n    /* \"#utility.yul\":1113:1119   */\n  dup3\n    /* \"#utility.yul\":1163:1166   */\n  dup6\n    /* \"#utility.yul\":1155:1159   */\n  0x20\n    /* \"#utility.yul\":1147:1153   */\n  dup7\n    /* \"#utility.yul\":1143:1160   */\n  mul\n    /* \"#utility.yul\":1138:1141   */\n  dup3\n    /* \"#utility.yul\":1134:1161   */\n  add\n    /* \"#utility.yul\":1131:1167   */\n  gt\n    /* \"#utility.yul\":1128:1271   */\n  iszero\n  tag_59\n  jumpi\n    /* \"#utility.yul\":1182:1261   */\n  tag_60\n  tag_48\n  jump\t// in\ntag_60:\n    /* \"#utility.yul\":1128:1271   */\ntag_59:\n    /* \"#utility.yul\":1295:1296   */\n  0x00\n    /* \"#utility.yul\":1280:1529   */\ntag_61:\n    /* \"#utility.yul\":1305:1311   */\n  dup6\n    /* \"#utility.yul\":1302:1303   */\n  dup2\n    /* \"#utility.yul\":1299:1312   */\n  lt\n    /* \"#utility.yul\":1280:1529   */\n  iszero\n  tag_63\n  jumpi\n    /* \"#utility.yul\":1373:1376   */\n  dup2\n    /* \"#utility.yul\":1402:1450   */\n  tag_64\n    /* \"#utility.yul\":1446:1449   */\n  dup9\n    /* \"#utility.yul\":1434:1444   */\n  dup3\n    /* \"#utility.yul\":1402:1450   */\n  tag_65\n  jump\t// in\ntag_64:\n    /* \"#utility.yul\":1397:1400   */\n  dup5\n    /* \"#utility.yul\":1390:1451   */\n  mstore\n    /* \"#utility.yul\":1480:1484   */\n  0x20\n    /* \"#utility.yul\":1475:1478   */\n  dup5\n    /* \"#utility.yul\":1471:1485   */\n  add\n    /* \"#utility.yul\":1464:1485   */\n  swap4\n  pop\n    /* \"#utility.yul\":1514:1518   */\n  0x20\n    /* \"#utility.yul\":1509:1512   */\n  dup4\n    /* \"#utility.yul\":1505:1519   */\n  add\n    /* \"#utility.yul\":1498:1519   */\n  swap3\n  pop\n    /* \"#utility.yul\":1340:1529   */\n  pop\n    /* \"#utility.yul\":1327:1328   */\n  0x01\n    /* \"#utility.yul\":1324:1325   */\n  dup2\n    /* \"#utility.yul\":1320:1329   */\n  add\n    /* \"#utility.yul\":1315:1329   */\n  swap1\n  pop\n    /* \"#utility.yul\":1280:1529   */\n  jump(tag_61)\ntag_63:\n    /* \"#utility.yul\":1284:1298   */\n  pop\n    /* \"#utility.yul\":904:1535   */\n  pop\n  pop\n    /* \"#utility.yul\":791:1535   */\n  swap4\n  swap3\n  pop\n  pop\n  pop\n  jump\t// out\n    /* \"#utility.yul\":1541:1684   */\ntag_53:\n    /* \"#utility.yul\":1598:1603   */\n  0x00\n    /* \"#utility.yul\":1629:1635   */\n  dup2\n    /* \"#utility.yul\":1623:1636   */\n  mload\n    /* \"#utility.yul\":1614:1636   */\n  swap1\n  pop\n    /* \"#utility.yul\":1645:1678   */\n  tag_67\n    /* \"#utility.yul\":1672:1677   */\n  dup2\n    /* \"#utility.yul\":1645:1678   */\n  tag_68\n  jump\t// in\ntag_67:\n    /* \"#utility.yul\":1541:1684   */\n  swap3\n  swap2\n  pop\n  pop\n  jump\t// out\n    /* \"#utility.yul\":1707:2092   */\ntag_69:\n    /* \"#utility.yul\":1789:1794   */\n  0x00\n    /* \"#utility.yul\":1838:1841   */\n  dup3\n    /* \"#utility.yul\":1831:1835   */\n  0x1f\n    /* \"#utility.yul\":1823:1829   */\n  dup4\n    /* \"#utility.yul\":1819:1836   */\n  add\n    /* \"#utility.yul\":1815:1842   */\n  slt\n    /* \"#utility.yul\":1805:1927   */\n  tag_71\n  jumpi\n    /* \"#utility.yul\":1846:1925   */\n  tag_72\n  tag_73\n  jump\t// in\ntag_72:\n    /* \"#utility.yul\":1805:1927   */\ntag_71:\n    /* \"#utility.yul\":1956:1962   */\n  dup2\n    /* \"#utility.yul\":1950:1963   */\n  mload\n    /* \"#utility.yul\":1981:2086   */\n  tag_74\n    /* \"#utility.yul\":2082:2085   */\n  dup5\n    /* \"#utility.yul\":2074:2080   */\n  dup3\n    /* \"#utility.yul\":2067:2071   */\n  0x20\n    /* \"#utility.yul\":2059:2065   */\n  dup7\n    /* \"#utility.yul\":2055:2072   */\n  add\n    /* \"#utility.yul\":1981:2086   */\n  tag_40\n  jump\t// in\ntag_74:\n    /* \"#utility.yul\":1972:2086   */\n  swap2\n  pop\n    /* \"#utility.yul\":1795:2092   */\n  pop\n    /* \"#utility.yul\":1707:2092   */\n  swap3\n  swap2\n  pop\n  pop\n  jump\t// out\n    /* \"#utility.yul\":2115:2500   */\ntag_75:\n    /* \"#utility.yul\":2197:2202   */\n  0x00\n    /* \"#utility.yul\":2246:2249   */\n  dup3\n    /* \"#utility.yul\":2239:2243   */\n  0x1f\n    /* \"#utility.yul\":2231:2237   */\n  dup4\n    /* \"#utility.yul\":2227:2244   */\n  add\n    /* \"#utility.yul\":2223:2250   */\n  slt\n    /* \"#utility.yul\":2213:2335   */\n  tag_77\n  jumpi\n    /* \"#utility.yul\":2254:2333   */\n  tag_78\n  tag_73\n  jump\t// in\ntag_78:\n    /* \"#utility.yul\":2213:2335   */\ntag_77:\n    /* \"#utility.yul\":2364:2370   */\n  dup2\n    /* \"#utility.yul\":2358:2371   */\n  mload\n    /* \"#utility.yul\":2389:2494   */\n  tag_79\n    /* \"#utility.yul\":2490:2493   */\n  dup5\n    /* \"#utility.yul\":2482:2488   */\n  dup3\n    /* \"#utility.yul\":2475:2479   */\n  0x20\n    /* \"#utility.yul\":2467:2473   */\n  dup7\n    /* \"#utility.yul\":2463:2480   */\n  add\n    /* \"#utility.yul\":2389:2494   */\n  tag_54\n  jump\t// in\ntag_79:\n    /* \"#utility.yul\":2380:2494   */\n  swap2\n  pop\n    /* \"#utility.yul\":2203:2500   */\n  pop\n    /* \"#utility.yul\":2115:2500   */\n  swap3\n  swap2\n  pop\n  pop\n  jump\t// out\n    /* \"#utility.yul\":2506:2649   */\ntag_65:\n    /* \"#utility.yul\":2563:2568   */\n  0x00\n    /* \"#utility.yul\":2594:2600   */\n  dup2\n    /* \"#utility.yul\":2588:2601   */\n  mload\n    /* \"#utility.yul\":2579:2601   */\n  swap1\n  pop\n    /* \"#utility.yul\":2610:2643   */\n  tag_81\n    /* \"#utility.yul\":2637:2642   */\n  dup2\n    /* \"#utility.yul\":2610:2643   */\n  tag_82\n  jump\t// in\ntag_81:\n    /* \"#utility.yul\":2506:2649   */\n  swap3\n  swap2\n  pop\n  pop\n  jump\t// out\n    /* \"#utility.yul\":2655:3568   */\ntag_2:\n    /* \"#utility.yul\":2784:2790   */\n  0x00\n    /* \"#utility.yul\":2792:2798   */\n  dup1\n    /* \"#utility.yul\":2841:2843   */\n  0x40\n    /* \"#utility.yul\":2829:2838   */\n  dup4\n    /* \"#utility.yul\":2820:2827   */\n  dup6\n    /* \"#utility.yul\":2816:2839   */\n  sub\n    /* \"#utility.yul\":2812:2844   */\n  slt\n    /* \"#utility.yul\":2809:2928   */\n  iszero\n  tag_84\n  jumpi\n    /* \"#utility.yul\":2847:2926   */\n  tag_85\n  tag_86\n  jump\t// in\ntag_85:\n    /* \"#utility.yul\":2809:2928   */\ntag_84:\n    /* \"#utility.yul\":2988:2989   */\n  0x00\n    /* \"#utility.yul\":2977:2986   */\n  dup4\n    /* \"#utility.yul\":2973:2990   */\n  add\n    /* \"#utility.yul\":2967:2991   */\n  mload\n    /* \"#utility.yul\":3018:3036   */\n  0xffffffffffffffff\n    /* \"#utility.yul\":3010:3016   */\n  dup2\n    /* \"#utility.yul\":3007:3037   */\n  gt\n    /* \"#utility.yul\":3004:3121   */\n  iszero\n  tag_87\n  jumpi\n    /* \"#utility.yul\":3040:3119   */\n  tag_88\n  tag_89\n  jump\t// in\ntag_88:\n    /* \"#utility.yul\":3004:3121   */\ntag_87:\n    /* \"#utility.yul\":3145:3234   */\n  tag_90\n    /* \"#utility.yul\":3226:3233   */\n  dup6\n    /* \"#utility.yul\":3217:3223   */\n  dup3\n    /* \"#utility.yul\":3206:3215   */\n  dup7\n    /* \"#utility.yul\":3202:3224   */\n  add\n    /* \"#utility.yul\":3145:3234   */\n  tag_69\n  jump\t// in\ntag_90:\n    /* \"#utility.yul\":3135:3234   */\n  swap3\n  pop\n    /* \"#utility.yul\":2938:3244   */\n  pop\n    /* \"#utility.yul\":3304:3306   */\n  0x20\n    /* \"#utility.yul\":3293:3302   */\n  dup4\n    /* \"#utility.yul\":3289:3307   */\n  add\n    /* \"#utility.yul\":3283:3308   */\n  mload\n    /* \"#utility.yul\":3335:3353   */\n  0xffffffffffffffff\n    /* \"#utility.yul\":3327:3333   */\n  dup2\n    /* \"#utility.yul\":3324:3354   */\n  gt\n    /* \"#utility.yul\":3321:3438   */\n  iszero\n  tag_91\n  jumpi\n    /* \"#utility.yul\":3357:3436   */\n  tag_92\n  tag_89\n  jump\t// in\ntag_92:\n    /* \"#utility.yul\":3321:3438   */\ntag_91:\n    /* \"#utility.yul\":3462:3551   */\n  tag_93\n    /* \"#utility.yul\":3543:3550   */\n  dup6\n    /* \"#utility.yul\":3534:3540   */\n  dup3\n    /* \"#utility.yul\":3523:3532   */\n  dup7\n    /* \"#utility.yul\":3519:3541   */\n  add\n    /* \"#utility.yul\":3462:3551   */\n  tag_75\n  jump\t// in\ntag_93:\n    /* \"#utility.yul\":3452:3551   */\n  swap2\n  pop\n    /* \"#utility.yul\":3254:3561   */\n  pop\n    /* \"#utility.yul\":2655:3568   */\n  swap3\n  pop\n  swap3\n  swap1\n  pop\n  jump\t// out\n    /* \"#utility.yul\":3574:3692   */\ntag_94:\n    /* \"#utility.yul\":3661:3685   */\n  tag_96\n    /* \"#utility.yul\":3679:3684   */\n  dup2\n    /* \"#utility.yul\":3661:3685   */\n  tag_97\n  jump\t// in\ntag_96:\n    /* \"#utility.yul\":3656:3659   */\n  dup3\n    /* \"#utility.yul\":3649:3686   */\n  mstore\n    /* \"#utility.yul\":3574:3692   */\n  pop\n  pop\n  jump\t// out\n    /* \"#utility.yul\":3698:4064   */\ntag_98:\n    /* \"#utility.yul\":3840:3843   */\n  0x00\n    /* \"#utility.yul\":3861:3928   */\n  tag_100\n    /* \"#utility.yul\":3925:3927   */\n  0x2c\n    /* \"#utility.yul\":3920:3923   */\n  dup4\n    /* \"#utility.yul\":3861:3928   */\n  tag_101\n  jump\t// in\ntag_100:\n    /* \"#utility.yul\":3854:3928   */\n  swap2\n  pop\n    /* \"#utility.yul\":3937:4030   */\n  tag_102\n    /* \"#utility.yul\":4026:4029   */\n  dup3\n    /* \"#utility.yul\":3937:4030   */\n  tag_103\n  jump\t// in\ntag_102:\n    /* \"#utility.yul\":4055:4057   */\n  0x40\n    /* \"#utility.yul\":4050:4053   */\n  dup3\n    /* \"#utility.yul\":4046:4058   */\n  add\n    /* \"#utility.yul\":4039:4058   */\n  swap1\n  pop\n    /* \"#utility.yul\":3698:4064   */\n  swap2\n  swap1\n  pop\n  jump\t// out\n    /* \"#utility.yul\":4070:4436   */\ntag_104:\n    /* \"#utility.yul\":4212:4215   */\n  0x00\n    /* \"#utility.yul\":4233:4300   */\n  tag_106\n    /* \"#utility.yul\":4297:4299   */\n  0x32\n    /* \"#utility.yul\":4292:4295   */\n  dup4\n    /* \"#utility.yul\":4233:4300   */\n  tag_101\n  jump\t// in\ntag_106:\n    /* \"#utility.yul\":4226:4300   */\n  swap2\n  pop\n    /* \"#utility.yul\":4309:4402   */\n  tag_107\n    /* \"#utility.yul\":4398:4401   */\n  dup3\n    /* \"#utility.yul\":4309:4402   */\n  tag_108\n  jump\t// in\ntag_107:\n    /* \"#utility.yul\":4427:4429   */\n  0x40\n    /* \"#utility.yul\":4422:4425   */\n  dup3\n    /* \"#utility.yul\":4418:4430   */\n  add\n    /* \"#utility.yul\":4411:4430   */\n  swap1\n  pop\n    /* \"#utility.yul\":4070:4436   */\n  swap2\n  swap1\n  pop\n  jump\t// out\n    /* \"#utility.yul\":4442:4808   */\ntag_109:\n    /* \"#utility.yul\":4584:4587   */\n  0x00\n    /* \"#utility.yul\":4605:4672   */\n  tag_111\n    /* \"#utility.yul\":4669:4671   */\n  0x2b\n    /* \"#utility.yul\":4664:4667   */\n  dup4\n    /* \"#utility.yul\":4605:4672   */\n  tag_101\n  jump\t// in\ntag_111:\n    /* \"#utility.yul\":4598:4672   */\n  swap2\n  pop\n    /* \"#utility.yul\":4681:4774   */\n  tag_112\n    /* \"#utility.yul\":4770:4773   */\n  dup3\n    /* \"#utility.yul\":4681:4774   */\n  tag_113\n  jump\t// in\ntag_112:\n    /* \"#utility.yul\":4799:4801   */\n  0x40\n    /* \"#utility.yul\":4794:4797   */\n  dup3\n    /* \"#utility.yul\":4790:4802   */\n  add\n    /* \"#utility.yul\":4783:4802   */\n  swap1\n  pop\n    /* \"#utility.yul\":4442:4808   */\n  swap2\n  swap1\n  pop\n  jump\t// out\n    /* \"#utility.yul\":4814:5180   */\ntag_114:\n    /* \"#utility.yul\":4956:4959   */\n  0x00\n    /* \"#utility.yul\":4977:5044   */\n  tag_116\n    /* \"#utility.yul\":5041:5043   */\n  0x1a\n    /* \"#utility.yul\":5036:5039   */\n  dup4\n    /* \"#utility.yul\":4977:5044   */\n  tag_101\n  jump\t// in\ntag_116:\n    /* \"#utility.yul\":4970:5044   */\n  swap2\n  pop\n    /* \"#utility.yul\":5053:5146   */\n  tag_117\n    /* \"#utility.yul\":5142:5145   */\n  dup3\n    /* \"#utility.yul\":5053:5146   */\n  tag_118\n  jump\t// in\ntag_117:\n    /* \"#utility.yul\":5171:5173   */\n  0x20\n    /* \"#utility.yul\":5166:5169   */\n  dup3\n    /* \"#utility.yul\":5162:5174   */\n  add\n    /* \"#utility.yul\":5155:5174   */\n  swap1\n  pop\n    /* \"#utility.yul\":4814:5180   */\n  swap2\n  swap1\n  pop\n  jump\t// out\n    /* \"#utility.yul\":5186:5552   */\ntag_119:\n    /* \"#utility.yul\":5328:5331   */\n  0x00\n    /* \"#utility.yul\":5349:5416   */\n  tag_121\n    /* \"#utility.yul\":5413:5415   */\n  0x1d\n    /* \"#utility.yul\":5408:5411   */\n  dup4\n    /* \"#utility.yul\":5349:5416   */\n  tag_101\n  jump\t// in\ntag_121:\n    /* \"#utility.yul\":5342:5416   */\n  swap2\n  pop\n    /* \"#utility.yul\":5425:5518   */\n  tag_122\n    /* \"#utility.yul\":5514:5517   */\n  dup3\n    /* \"#utility.yul\":5425:5518   */\n  tag_123\n  jump\t// in\ntag_122:\n    /* \"#utility.yul\":5543:5545   */\n  0x20\n    /* \"#utility.yul\":5538:5541   */\n  dup3\n    /* \"#utility.yul\":5534:5546   */\n  add\n    /* \"#utility.yul\":5527:5546   */\n  swap1\n  pop\n    /* \"#utility.yul\":5186:5552   */\n  swap2\n  swap1\n  pop\n  jump\t// out\n    /* \"#utility.yul\":5558:5676   */\ntag_124:\n    /* \"#utility.yul\":5645:5669   */\n  tag_126\n    /* \"#utility.yul\":5663:5668   */\n  dup2\n    /* \"#utility.yul\":5645:5669   */\n  tag_127\n  jump\t// in\ntag_126:\n    /* \"#utility.yul\":5640:5643   */\n  dup3\n    /* \"#utility.yul\":5633:5670   */\n  mstore\n    /* \"#utility.yul\":5558:5676   */\n  pop\n  pop\n  jump\t// out\n    /* \"#utility.yul\":5682:6014   */\ntag_38:\n    /* \"#utility.yul\":5803:5807   */\n  0x00\n    /* \"#utility.yul\":5841:5843   */\n  0x40\n    /* \"#utility.yul\":5830:5839   */\n  dup3\n    /* \"#utility.yul\":5826:5844   */\n  add\n    /* \"#utility.yul\":5818:5844   */\n  swap1\n  pop\n    /* \"#utility.yul\":5854:5925   */\n  tag_129\n    /* \"#utility.yul\":5922:5923   */\n  0x00\n    /* \"#utility.yul\":5911:5920   */\n  dup4\n    /* \"#utility.yul\":5907:5924   */\n  add\n    /* \"#utility.yul\":5898:5904   */\n  dup6\n    /* \"#utility.yul\":5854:5925   */\n  tag_94\n  jump\t// in\ntag_129:\n    /* \"#utility.yul\":5935:6007   */\n  tag_130\n    /* \"#utility.yul\":6003:6005   */\n  0x20\n    /* \"#utility.yul\":5992:6001   */\n  dup4\n    /* \"#utility.yul\":5988:6006   */\n  add\n    /* \"#utility.yul\":5979:5985   */\n  dup5\n    /* \"#utility.yul\":5935:6007   */\n  tag_124\n  jump\t// in\ntag_130:\n    /* \"#utility.yul\":5682:6014   */\n  swap4\n  swap3\n  pop\n  pop\n  pop\n  jump\t// out\n    /* \"#utility.yul\":6020:6439   */\ntag_27:\n    /* \"#utility.yul\":6186:6190   */\n  0x00\n    /* \"#utility.yul\":6224:6226   */\n  0x20\n    /* \"#utility.yul\":6213:6222   */\n  dup3\n    /* \"#utility.yul\":6209:6227   */\n  add\n    /* \"#utility.yul\":6201:6227   */\n  swap1\n  pop\n    /* \"#utility.yul\":6273:6282   */\n  dup2\n    /* \"#utility.yul\":6267:6271   */\n  dup2\n    /* \"#utility.yul\":6263:6283   */\n  sub\n    /* \"#utility.yul\":6259:6260   */\n  0x00\n    /* \"#utility.yul\":6248:6257   */\n  dup4\n    /* \"#utility.yul\":6244:6261   */\n  add\n    /* \"#utility.yul\":6237:6284   */\n  mstore\n    /* \"#utility.yul\":6301:6432   */\n  tag_132\n    /* \"#utility.yul\":6427:6431   */\n  dup2\n    /* \"#utility.yul\":6301:6432   */\n  tag_98\n  jump\t// in\ntag_132:\n    /* \"#utility.yul\":6293:6432   */\n  swap1\n  pop\n    /* \"#utility.yul\":6020:6439   */\n  swap2\n  swap1\n  pop\n  jump\t// out\n    /* \"#utility.yul\":6445:6864   */\ntag_7:\n    /* \"#utility.yul\":6611:6615   */\n  0x00\n    /* \"#utility.yul\":6649:6651   */\n  0x20\n    /* \"#utility.yul\":6638:6647   */\n  dup3\n    /* \"#utility.yul\":6634:6652   */\n  add\n    /* \"#utility.yul\":6626:6652   */\n  swap1\n  pop\n    /* \"#utility.yul\":6698:6707   */\n  dup2\n    /* \"#utility.yul\":6692:6696   */\n  dup2\n    /* \"#utility.yul\":6688:6708   */\n  sub\n    /* \"#utility.yul\":6684:6685   */\n  0x00\n    /* \"#utility.yul\":6673:6682   */\n  dup4\n    /* \"#utility.yul\":6669:6686   */\n  add\n    /* \"#utility.yul\":6662:6709   */\n  mstore\n    /* \"#utility.yul\":6726:6857   */\n  tag_134\n    /* \"#utility.yul\":6852:6856   */\n  dup2\n    /* \"#utility.yul\":6726:6857   */\n  tag_104\n  jump\t// in\ntag_134:\n    /* \"#utility.yul\":6718:6857   */\n  swap1\n  pop\n    /* \"#utility.yul\":6445:6864   */\n  swap2\n  swap1\n  pop\n  jump\t// out\n    /* \"#utility.yul\":6870:7289   */\ntag_33:\n    /* \"#utility.yul\":7036:7040   */\n  0x00\n    /* \"#utility.yul\":7074:7076   */\n  0x20\n    /* \"#utility.yul\":7063:7072   */\n  dup3\n    /* \"#utility.yul\":7059:7077   */\n  add\n    /* \"#utility.yul\":7051:7077   */\n  swap1\n  pop\n    /* \"#utility.yul\":7123:7132   */\n  dup2\n    /* \"#utility.yul\":7117:7121   */\n  dup2\n    /* \"#utility.yul\":7113:7133   */\n  sub\n    /* \"#utility.yul\":7109:7110   */\n  0x00\n    /* \"#utility.yul\":7098:7107   */\n  dup4\n    /* \"#utility.yul\":7094:7111   */\n  add\n    /* \"#utility.yul\":7087:7134   */\n  mstore\n    /* \"#utility.yul\":7151:7282   */\n  tag_136\n    /* \"#utility.yul\":7277:7281   */\n  dup2\n    /* \"#utility.yul\":7151:7282   */\n  tag_109\n  jump\t// in\ntag_136:\n    /* \"#utility.yul\":7143:7282   */\n  swap1\n  pop\n    /* \"#utility.yul\":6870:7289   */\n  swap2\n  swap1\n  pop\n  jump\t// out\n    /* \"#utility.yul\":7295:7714   */\ntag_10:\n    /* \"#utility.yul\":7461:7465   */\n  0x00\n    /* \"#utility.yul\":7499:7501   */\n  0x20\n    /* \"#utility.yul\":7488:7497   */\n  dup3\n    /* \"#utility.yul\":7484:7502   */\n  add\n    /* \"#utility.yul\":7476:7502   */\n  swap1\n  pop\n    /* \"#utility.yul\":7548:7557   */\n  dup2\n    /* \"#utility.yul\":7542:7546   */\n  dup2\n    /* \"#utility.yul\":7538:7558   */\n  sub\n    /* \"#utility.yul\":7534:7535   */\n  0x00\n    /* \"#utility.yul\":7523:7532   */\n  dup4\n    /* \"#utility.yul\":7519:7536   */\n  add\n    /* \"#utility.yul\":7512:7559   */\n  mstore\n    /* \"#utility.yul\":7576:7707   */\n  tag_138\n    /* \"#utility.yul\":7702:7706   */\n  dup2\n    /* \"#utility.yul\":7576:7707   */\n  tag_114\n  jump\t// in\ntag_138:\n    /* \"#utility.yul\":7568:7707   */\n  swap1\n  pop\n    /* \"#utility.yul\":7295:7714   */\n  swap2\n  swap1\n  pop\n  jump\t// out\n    /* \"#utility.yul\":7720:8139   */\ntag_30:\n    /* \"#utility.yul\":7886:7890   */\n  0x00\n    /* \"#utility.yul\":7924:7926   */\n  0x20\n    /* \"#utility.yul\":7913:7922   */\n  dup3\n    /* \"#utility.yul\":7909:7927   */\n  add\n    /* \"#utility.yul\":7901:7927   */\n  swap1\n  pop\n    /* \"#utility.yul\":7973:7982   */\n  dup2\n    /* \"#utility.yul\":7967:7971   */\n  dup2\n    /* \"#utility.yul\":7963:7983   */\n  sub\n    /* \"#utility.yul\":7959:7960   */\n  0x00\n    /* \"#utility.yul\":7948:7957   */\n  dup4\n    /* \"#utility.yul\":7944:7961   */\n  add\n    /* \"#utility.yul\":7937:7984   */\n  mstore\n    /* \"#utility.yul\":8001:8132   */\n  tag_140\n    /* \"#utility.yul\":8127:8131   */\n  dup2\n    /* \"#utility.yul\":8001:8132   */\n  tag_119\n  jump\t// in\ntag_140:\n    /* \"#utility.yul\":7993:8132   */\n  swap1\n  pop\n    /* \"#utility.yul\":7720:8139   */\n  swap2\n  swap1\n  pop\n  jump\t// out\n    /* \"#utility.yul\":8145:8274   */\ntag_45:\n    /* \"#utility.yul\":8179:8185   */\n  0x00\n    /* \"#utility.yul\":8206:8226   */\n  tag_142\n  tag_143\n  jump\t// in\ntag_142:\n    /* \"#utility.yul\":8196:8226   */\n  swap1\n  pop\n    /* \"#utility.yul\":8235:8268   */\n  tag_144\n    /* \"#utility.yul\":8263:8267   */\n  dup3\n    /* \"#utility.yul\":8255:8261   */\n  dup3\n    /* \"#utility.yul\":8235:8268   */\n  tag_145\n  jump\t// in\ntag_144:\n    /* \"#utility.yul\":8145:8274   */\n  swap2\n  swap1\n  pop\n  jump\t// out\n    /* \"#utility.yul\":8280:8355   */\ntag_143:\n    /* \"#utility.yul\":8313:8319   */\n  0x00\n    /* \"#utility.yul\":8346:8348   */\n  0x40\n    /* \"#utility.yul\":8340:8349   */\n  mload\n    /* \"#utility.yul\":8330:8349   */\n  swap1\n  pop\n    /* \"#utility.yul\":8280:8355   */\n  swap1\n  jump\t// out\n    /* \"#utility.yul\":8361:8672   */\ntag_44:\n    /* \"#utility.yul\":8438:8442   */\n  0x00\n    /* \"#utility.yul\":8528:8546   */\n  0xffffffffffffffff\n    /* \"#utility.yul\":8520:8526   */\n  dup3\n    /* \"#utility.yul\":8517:8547   */\n  gt\n    /* \"#utility.yul\":8514:8570   */\n  iszero\n  tag_148\n  jumpi\n    /* \"#utility.yul\":8550:8568   */\n  tag_149\n  tag_150\n  jump\t// in\ntag_149:\n    /* \"#utility.yul\":8514:8570   */\ntag_148:\n    /* \"#utility.yul\":8600:8604   */\n  0x20\n    /* \"#utility.yul\":8592:8598   */\n  dup3\n    /* \"#utility.yul\":8588:8605   */\n  mul\n    /* \"#utility.yul\":8580:8605   */\n  swap1\n  pop\n    /* \"#utility.yul\":8660:8664   */\n  0x20\n    /* \"#utility.yul\":8654:8658   */\n  dup2\n    /* \"#utility.yul\":8650:8665   */\n  add\n    /* \"#utility.yul\":8642:8665   */\n  swap1\n  pop\n    /* \"#utility.yul\":8361:8672   */\n  swap2\n  swap1\n  pop\n  jump\t// out\n    /* \"#utility.yul\":8678:8989   */\ntag_58:\n    /* \"#utility.yul\":8755:8759   */\n  0x00\n    /* \"#utility.yul\":8845:8863   */\n  0xffffffffffffffff\n    /* \"#utility.yul\":8837:8843   */\n  dup3\n    /* \"#utility.yul\":8834:8864   */\n  gt\n    /* \"#utility.yul\":8831:8887   */\n  iszero\n  tag_152\n  jumpi\n    /* \"#utility.yul\":8867:8885   */\n  tag_153\n  tag_150\n  jump\t// in\ntag_153:\n    /* \"#utility.yul\":8831:8887   */\ntag_152:\n    /* \"#utility.yul\":8917:8921   */\n  0x20\n    /* \"#utility.yul\":8909:8915   */\n  dup3\n    /* \"#utility.yul\":8905:8922   */\n  mul\n    /* \"#utility.yul\":8897:8922   */\n  swap1\n  pop\n    /* \"#utility.yul\":8977:8981   */\n  0x20\n    /* \"#utility.yul\":8971:8975   */\n  dup2\n    /* \"#utility.yul\":8967:8982   */\n  add\n    /* \"#utility.yul\":8959:8982   */\n  swap1\n  pop\n    /* \"#utility.yul\":8678:8989   */\n  swap2\n  swap1\n  pop\n  jump\t// out\n    /* \"#utility.yul\":8995:9164   */\ntag_101:\n    /* \"#utility.yul\":9079:9090   */\n  0x00\n    /* \"#utility.yul\":9113:9119   */\n  dup3\n    /* \"#utility.yul\":9108:9111   */\n  dup3\n    /* \"#utility.yul\":9101:9120   */\n  mstore\n    /* \"#utility.yul\":9153:9157   */\n  0x20\n    /* \"#utility.yul\":9148:9151   */\n  dup3\n    /* \"#utility.yul\":9144:9158   */\n  add\n    /* \"#utility.yul\":9129:9158   */\n  swap1\n  pop\n    /* \"#utility.yul\":8995:9164   */\n  swap3\n  swap2\n  pop\n  pop\n  jump\t// out\n    /* \"#utility.yul\":9170:9475   */\ntag_36:\n    /* \"#utility.yul\":9210:9213   */\n  0x00\n    /* \"#utility.yul\":9229:9249   */\n  tag_156\n    /* \"#utility.yul\":9247:9248   */\n  dup3\n    /* \"#utility.yul\":9229:9249   */\n  tag_127\n  jump\t// in\ntag_156:\n    /* \"#utility.yul\":9224:9249   */\n  swap2\n  pop\n    /* \"#utility.yul\":9263:9283   */\n  tag_157\n    /* \"#utility.yul\":9281:9282   */\n  dup4\n    /* \"#utility.yul\":9263:9283   */\n  tag_127\n  jump\t// in\ntag_157:\n    /* \"#utility.yul\":9258:9283   */\n  swap3\n  pop\n    /* \"#utility.yul\":9417:9418   */\n  dup3\n    /* \"#utility.yul\":9349:9415   */\n  0xffffffffffffffffffffffffffffffffffffffffffffffffffffffffffffffff\n    /* \"#utility.yul\":9345:9419   */\n  sub\n    /* \"#utility.yul\":9342:9343   */\n  dup3\n    /* \"#utility.yul\":9339:9420   */\n  gt\n    /* \"#utility.yul\":9336:9443   */\n  iszero\n  tag_158\n  jumpi\n    /* \"#utility.yul\":9423:9441   */\n  tag_159\n  tag_160\n  jump\t// in\ntag_159:\n    /* \"#utility.yul\":9336:9443   */\ntag_158:\n    /* \"#utility.yul\":9467:9468   */\n  dup3\n    /* \"#utility.yul\":9464:9465   */\n  dup3\n    /* \"#utility.yul\":9460:9469   */\n  add\n    /* \"#utility.yul\":9453:9469   */\n  swap1\n  pop\n    /* \"#utility.yul\":9170:9475   */\n  swap3\n  swap2\n  pop\n  pop\n  jump\t// out\n    /* \"#utility.yul\":9481:9577   */\ntag_97:\n    /* \"#utility.yul\":9518:9525   */\n  0x00\n    /* \"#utility.yul\":9547:9571   */\n  tag_162\n    /* \"#utility.yul\":9565:9570   */\n  dup3\n    /* \"#utility.yul\":9547:9571   */\n  tag_163\n  jump\t// in\ntag_162:\n    /* \"#utility.yul\":9536:9571   */\n  swap1\n  pop\n    /* \"#utility.yul\":9481:9577   */\n  swap2\n  swap1\n  pop\n  jump\t// out\n    /* \"#utility.yul\":9583:9709   */\ntag_163:\n    /* \"#utility.yul\":9620:9627   */\n  0x00\n    /* \"#utility.yul\":9660:9702   */\n  0xffffffffffffffffffffffffffffffffffffffff\n    /* \"#utility.yul\":9653:9658   */\n  dup3\n    /* \"#utility.yul\":9649:9703   */\n  and\n    /* \"#utility.yul\":9638:9703   */\n  swap1\n  pop\n    /* \"#utility.yul\":9583:9709   */\n  swap2\n  swap1\n  pop\n  jump\t// out\n    /* \"#utility.yul\":9715:9792   */\ntag_127:\n    /* \"#utility.yul\":9752:9759   */\n  0x00\n    /* \"#utility.yul\":9781:9786   */\n  dup2\n    /* \"#utility.yul\":9770:9786   */\n  swap1\n  pop\n    /* \"#utility.yul\":9715:9792   */\n  swap2\n  swap1\n  pop\n  jump\t// out\n    /* \"#utility.yul\":9798:10079   */\ntag_145:\n    /* \"#utility.yul\":9881:9908   */\n  tag_167\n    /* \"#utility.yul\":9903:9907   */\n  dup3\n    /* \"#utility.yul\":9881:9908   */\n  tag_168\n  jump\t// in\ntag_167:\n    /* \"#utility.yul\":9873:9879   */\n  dup2\n    /* \"#utility.yul\":9869:9909   */\n  add\n    /* \"#utility.yul\":10011:10017   */\n  dup2\n    /* \"#utility.yul\":9999:10009   */\n  dup2\n    /* \"#utility.yul\":9996:10018   */\n  lt\n    /* \"#utility.yul\":9975:9993   */\n  0xffffffffffffffff\n    /* \"#utility.yul\":9963:9973   */\n  dup3\n    /* \"#utility.yul\":9960:9994   */\n  gt\n    /* \"#utility.yul\":9957:10019   */\n  or\n    /* \"#utility.yul\":9954:10042   */\n  iszero\n  tag_169\n  jumpi\n    /* \"#utility.yul\":10022:10040   */\n  tag_170\n  tag_150\n  jump\t// in\ntag_170:\n    /* \"#utility.yul\":9954:10042   */\ntag_169:\n    /* \"#utility.yul\":10062:10072   */\n  dup1\n    /* \"#utility.yul\":10058:10060   */\n  0x40\n    /* \"#utility.yul\":10051:10073   */\n  mstore\n    /* \"#utility.yul\":9841:10079   */\n  pop\n    /* \"#utility.yul\":9798:10079   */\n  pop\n  pop\n  jump\t// out\n    /* \"#utility.yul\":10085:10318   */\ntag_22:\n    /* \"#utility.yul\":10124:10127   */\n  0x00\n    /* \"#utility.yul\":10147:10171   */\n  tag_172\n    /* \"#utility.yul\":10165:10170   */\n  dup3\n    /* \"#utility.yul\":10147:10171   */\n  tag_127\n  jump\t// in\ntag_172:\n    /* \"#utility.yul\":10138:10171   */\n  swap2\n  pop\n    /* \"#utility.yul\":10193:10259   */\n  0xffffffffffffffffffffffffffffffffffffffffffffffffffffffffffffffff\n    /* \"#utility.yul\":10186:10191   */\n  dup3\n    /* \"#utility.yul\":10183:10260   */\n  eq\n    /* \"#utility.yul\":10180:10283   */\n  iszero\n  tag_173\n  jumpi\n    /* \"#utility.yul\":10263:10281   */\n  tag_174\n  tag_160\n  jump\t// in\ntag_174:\n    /* \"#utility.yul\":10180:10283   */\ntag_173:\n    /* \"#utility.yul\":10310:10311   */\n  0x01\n    /* \"#utility.yul\":10303:10308   */\n  dup3\n    /* \"#utility.yul\":10299:10312   */\n  add\n    /* \"#utility.yul\":10292:10312   */\n  swap1\n  pop\n    /* \"#utility.yul\":10085:10318   */\n  swap2\n  swap1\n  pop\n  jump\t// out\n    /* \"#utility.yul\":10324:10504   */\ntag_160:\n    /* \"#utility.yul\":10372:10449   */\n  0x4e487b7100000000000000000000000000000000000000000000000000000000\n    /* \"#utility.yul\":10369:10370   */\n  0x00\n    /* \"#utility.yul\":10362:10450   */\n  mstore\n    /* \"#utility.yul\":10469:10473   */\n  0x11\n    /* \"#utility.yul\":10466:10467   */\n  0x04\n    /* \"#utility.yul\":10459:10474   */\n  mstore\n    /* \"#utility.yul\":10493:10497   */\n  0x24\n    /* \"#utility.yul\":10490:10491   */\n  0x00\n    /* \"#utility.yul\":10483:10498   */\n  revert\n    /* \"#utility.yul\":10510:10690   */\ntag_17:\n    /* \"#utility.yul\":10558:10635   */\n  0x4e487b7100000000000000000000000000000000000000000000000000000000\n    /* \"#utility.yul\":10555:10556   */\n  0x00\n    /* \"#utility.yul\":10548:10636   */\n  mstore\n    /* \"#utility.yul\":10655:10659   */\n  0x32\n    /* \"#utility.yul\":10652:10653   */\n  0x04\n    /* \"#utility.yul\":10645:10660   */\n  mstore\n    /* \"#utility.yul\":10679:10683   */\n  0x24\n    /* \"#utility.yul\":10676:10677   */\n  0x00\n    /* \"#utility.yul\":10669:10684   */\n  revert\n    /* \"#utility.yul\":10696:10876   */\ntag_150:\n    /* \"#utility.yul\":10744:10821   */\n  0x4e487b7100000000000000000000000000000000000000000000000000000000\n    /* \"#utility.yul\":10741:10742   */\n  0x00\n    /* \"#utility.yul\":10734:10822   */\n  mstore\n    /* \"#utility.yul\":10841:10845   */\n  0x41\n    /* \"#utility.yul\":10838:10839   */\n  0x04\n    /* \"#utility.yul\":10831:10846   */\n  mstore\n    /* \"#utility.yul\":10865:10869   */\n  0x24\n    /* \"#utility.yul\":10862:10863   */\n  0x00\n    /* \"#utility.yul\":10855:10870   */\n  revert\n    /* \"#utility.yul\":10882:10999   */\ntag_73:\n    /* \"#utility.yul\":10991:10992   */\n  0x00\n    /* \"#utility.yul\":10988:10989   */\n  dup1\n    /* \"#utility.yul\":10981:10993   */\n  revert\n    /* \"#utility.yul\":11005:11122   */\ntag_48:\n    /* \"#utility.yul\":11114:11115   */\n  0x00\n    /* \"#utility.yul\":11111:11112   */\n  dup1\n    /* \"#utility.yul\":11104:11116   */\n  revert\n    /* \"#utility.yul\":11128:11245   */\ntag_89:\n    /* \"#utility.yul\":11237:11238   */\n  0x00\n    /* \"#utility.yul\":11234:11235   */\n  dup1\n    /* \"#utility.yul\":11227:11239   */\n  revert\n    /* \"#utility.yul\":11251:11368   */\ntag_86:\n    /* \"#utility.yul\":11360:11361   */\n  0x00\n    /* \"#utility.yul\":11357:11358   */\n  dup1\n    /* \"#utility.yul\":11350:11362   */\n  revert\n    /* \"#utility.yul\":11374:11476   */\ntag_168:\n    /* \"#utility.yul\":11415:11421   */\n  0x00\n    /* \"#utility.yul\":11466:11468   */\n  0x1f\n    /* \"#utility.yul\":11462:11469   */\n  not\n    /* \"#utility.yul\":11457:11459   */\n  0x1f\n    /* \"#utility.yul\":11450:11455   */\n  dup4\n    /* \"#utility.yul\":11446:11460   */\n  add\n    /* \"#utility.yul\":11442:11470   */\n  and\n    /* \"#utility.yul\":11432:11470   */\n  swap1\n  pop\n    /* \"#utility.yul\":11374:11476   */\n  swap2\n  swap1\n  pop\n  jump\t// out\n    /* \"#utility.yul\":11482:11713   */\ntag_103:\n    /* \"#utility.yul\":11622:11656   */\n  0x5061796d656e7453706c69747465723a206163636f756e742069732074686520\n    /* \"#utility.yul\":11618:11619   */\n  0x00\n    /* \"#utility.yul\":11610:11616   */\n  dup3\n    /* \"#utility.yul\":11606:11620   */\n  add\n    /* \"#utility.yul\":11599:11657   */\n  mstore\n    /* \"#utility.yul\":11691:11705   */\n  0x7a65726f20616464726573730000000000000000000000000000000000000000\n    /* \"#utility.yul\":11686:11688   */\n  0x20\n    /* \"#utility.yul\":11678:11684   */\n  dup3\n    /* \"#utility.yul\":11674:11689   */\n  add\n    /* \"#utility.yul\":11667:11706   */\n  mstore\n    /* \"#utility.yul\":11482:11713   */\n  pop\n  jump\t// out\n    /* \"#utility.yul\":11719:11956   */\ntag_108:\n    /* \"#utility.yul\":11859:11893   */\n  0x5061796d656e7453706c69747465723a2070617965657320616e642073686172\n    /* \"#utility.yul\":11855:11856   */\n  0x00\n    /* \"#utility.yul\":11847:11853   */\n  dup3\n    /* \"#utility.yul\":11843:11857   */\n  add\n    /* \"#utility.yul\":11836:11894   */\n  mstore\n    /* \"#utility.yul\":11928:11948   */\n  0x6573206c656e677468206d69736d617463680000000000000000000000000000\n    /* \"#utility.yul\":11923:11925   */\n  0x20\n    /* \"#utility.yul\":11915:11921   */\n  dup3\n    /* \"#utility.yul\":11911:11926   */\n  add\n    /* \"#utility.yul\":11904:11949   */\n  mstore\n    /* \"#utility.yul\":11719:11956   */\n  pop\n  jump\t// out\n    /* \"#utility.yul\":11962:12192   */\ntag_113:\n    /* \"#utility.yul\":12102:12136   */\n  0x5061796d656e7453706c69747465723a206163636f756e7420616c7265616479\n    /* \"#utility.yul\":12098:12099   */\n  0x00\n    /* \"#utility.yul\":12090:12096   */\n  dup3\n    /* \"#utility.yul\":12086:12100   */\n  add\n    /* \"#utility.yul\":12079:12137   */\n  mstore\n    /* \"#utility.yul\":12171:12184   */\n  0x2068617320736861726573000000000000000000000000000000000000000000\n    /* \"#utility.yul\":12166:12168   */\n  0x20\n    /* \"#utility.yul\":12158:12164   */\n  dup3\n    /* \"#utility.yul\":12154:12169   */\n  add\n    /* \"#utility.yul\":12147:12185   */\n  mstore\n    /* \"#utility.yul\":11962:12192   */\n  pop\n  jump\t// out\n    /* \"#utility.yul\":12198:12374   */\ntag_118:\n    /* \"#utility.yul\":12338:12366   */\n  0x5061796d656e7453706c69747465723a206e6f20706179656573000000000000\n    /* \"#utility.yul\":12334:12335   */\n  0x00\n    /* \"#utility.yul\":12326:12332   */\n  dup3\n    /* \"#utility.yul\":12322:12336   */\n  add\n    /* \"#utility.yul\":12315:12367   */\n  mstore\n    /* \"#utility.yul\":12198:12374   */\n  pop\n  jump\t// out\n    /* \"#utility.yul\":12380:12559   */\ntag_123:\n    /* \"#utility.yul\":12520:12551   */\n  0x5061796d656e7453706c69747465723a20736861726573206172652030000000\n    /* \"#utility.yul\":12516:12517   */\n  0x00\n    /* \"#utility.yul\":12508:12514   */\n  dup3\n    /* \"#utility.yul\":12504:12518   */\n  add\n    /* \"#utility.yul\":12497:12552   */\n  mstore\n    /* \"#utility.yul\":12380:12559   */\n  pop\n  jump\t// out\n    /* \"#utility.yul\":12565:12687   */\ntag_68:\n    /* \"#utility.yul\":12638:12662   */\n  tag_189\n    /* \"#utility.yul\":12656:12661   */\n  dup2\n    /* \"#utility.yul\":12638:12662   */\n  tag_97\n  jump\t// in\ntag_189:\n    /* \"#utility.yul\":12631:12636   */\n  dup2\n    /* \"#utility.yul\":12628:12663   */\n  eq\n    /* \"#utility.yul\":12618:12681   */\n  tag_190\n  jumpi\n    /* \"#utility.yul\":12677:12678   */\n  0x00\n    /* \"#utility.yul\":12674:12675   */\n  dup1\n    /* \"#utility.yul\":12667:12679   */\n  revert\n    /* \"#utility.yul\":12618:12681   */\ntag_190:\n    /* \"#utility.yul\":12565:12687   */\n  pop\n  jump\t// out\n    /* \"#utility.yul\":12693:12815   */\ntag_82:\n    /* \"#utility.yul\":12766:12790   */\n  tag_192\n    /* \"#utility.yul\":12784:12789   */\n  dup2\n    /* \"#utility.yul\":12766:12790   */\n  tag_127\n  jump\t// in\ntag_192:\n    /* \"#utility.yul\":12759:12764   */\n  dup2\n    /* \"#utility.yul\":12756:12791   */\n  eq\n    /* \"#utility.yul\":12746:12809   */\n  tag_193\n  jumpi\n    /* \"#utility.yul\":12805:12806   */\n  0x00\n    /* \"#utility.yul\":12802:12803   */\n  dup1\n    /* \"#utility.yul\":12795:12807   */\n  revert\n    /* \"#utility.yul\":12746:12809   */\ntag_193:\n    /* \"#utility.yul\":12693:12815   */\n  pop\n  jump\t// out\n    /* \"common/contracts/finance/PaymentSplitter.sol\":1471:8571  contract PaymentSplitter is Context {... */\ntag_23:\n  dataSize(sub_0)\n  dup1\n  dataOffset(sub_0)\n  0x00\n  codecopy\n  0x00\n  return\nstop\n\nsub_0: assembly {\n        /* \"common/contracts/finance/PaymentSplitter.sol\":1471:8571  contract PaymentSplitter is Context {... */\n      mstore(0x40, 0x80)\n      jumpi(tag_1, lt(calldatasize, 0x04))\n      shr(0xe0, calldataload(0x00))\n      dup1\n      0x9852595c\n      gt\n      tag_14\n      jumpi\n      dup1\n      0x9852595c\n      eq\n      tag_8\n      jumpi\n      dup1\n      0xa3f8eace\n      eq\n      tag_9\n      jumpi\n      dup1\n      0xc45ac050\n      eq\n      tag_10\n      jumpi\n      dup1\n      0xce7c2ac2\n      eq\n      tag_11\n      jumpi\n      dup1\n      0xd79779b2\n      eq\n      tag_12\n      jumpi\n      dup1\n      0xe33b7de3\n      eq\n      tag_13\n      jumpi\n      jump(tag_2)\n    tag_14:\n      dup1\n      0x19165587\n      eq\n      tag_3\n      jumpi\n      dup1\n      0x3a98ef39\n      eq\n      tag_4\n      jumpi\n      dup1\n      0x406072a9\n      eq\n      tag_5\n      jumpi\n      dup1\n      0x48b75044\n      eq\n      tag_6\n      jumpi\n      dup1\n      0x8b83209b\n      eq\n      tag_7\n      jumpi\n      jump(tag_2)\n    tag_1:\n      jumpi(tag_2, calldatasize)\n        /* \"common/contracts/finance/PaymentSplitter.sol\":3369:3409  PaymentReceived(_msgSender(), msg.value) */\n      0x6ef95f06320e7a25a04a175ca677b7052bdd97131872c2192525a629f51be770\n        /* \"common/contracts/finance/PaymentSplitter.sol\":3385:3397  _msgSender() */\n      tag_17\n        /* \"common/contracts/finance/PaymentSplitter.sol\":3385:3395  _msgSender */\n      tag_18\n        /* \"common/contracts/finance/PaymentSplitter.sol\":3385:3397  _msgSender() */\n      jump\t// in\n    tag_17:\n        /* \"common/contracts/finance/PaymentSplitter.sol\":3399:3408  msg.value */\n      callvalue\n        /* \"common/contracts/finance/PaymentSplitter.sol\":3369:3409  PaymentReceived(_msgSender(), msg.value) */\n      mload(0x40)\n      tag_19\n      swap3\n      swap2\n      swap1\n      tag_20\n      jump\t// in\n    tag_19:\n      mload(0x40)\n      dup1\n      swap2\n      sub\n      swap1\n      log1\n        /* \"common/contracts/finance/PaymentSplitter.sol\":1471:8571  contract PaymentSplitter is Context {... */\n      stop\n    tag_2:\n      0x00\n      dup1\n      revert\n        /* \"common/contracts/finance/PaymentSplitter.sol\":5815:6470  function release(address payable account) public virtual {... */\n    tag_3:\n      callvalue\n      dup1\n      iszero\n      tag_21\n      jumpi\n      0x00\n      dup1\n      revert\n    tag_21:\n      pop\n      tag_22\n      0x04\n      dup1\n      calldatasize\n      sub\n      dup2\n      add\n      swap1\n      tag_23\n      swap2\n      swap1\n      tag_24\n      jump\t// in\n    tag_23:\n      tag_25\n      jump\t// in\n    tag_22:\n      stop\n        /* \"common/contracts/finance/PaymentSplitter.sol\":3494:3583  function totalShares() public view returns (uint256) {... */\n    tag_4:\n      callvalue\n      dup1\n      iszero\n      tag_26\n      jumpi\n      0x00\n      dup1\n      revert\n    tag_26:\n      pop\n      tag_27\n      tag_28\n      jump\t// in\n    tag_27:\n      mload(0x40)\n      tag_29\n      swap2\n      swap1\n      tag_30\n      jump\t// in\n    tag_29:\n      mload(0x40)\n      dup1\n      swap2\n      sub\n      swap1\n      return\n        /* \"common/contracts/finance/PaymentSplitter.sol\":4586:4719  function released(IERC20 token, address account) public view returns (uint256) {... */\n    tag_5:\n      callvalue\n      dup1\n      iszero\n      tag_31\n      jumpi\n      0x00\n      dup1\n      revert\n    tag_31:\n      pop\n      tag_32\n      0x04\n      dup1\n      calldatasize\n      sub\n      dup2\n      add\n      swap1\n      tag_33\n      swap2\n      swap1\n      tag_34\n      jump\t// in\n    tag_33:\n      tag_35\n      jump\t// in\n    tag_32:\n      mload(0x40)\n      tag_36\n      swap2\n      swap1\n      tag_30\n      jump\t// in\n    tag_36:\n      mload(0x40)\n      dup1\n      swap2\n      sub\n      swap1\n      return\n        /* \"common/contracts/finance/PaymentSplitter.sol\":6731:7506  function release(IERC20 token, address account) public virtual {... */\n    tag_6:\n      callvalue\n      dup1\n      iszero\n      tag_37\n      jumpi\n      0x00\n      dup1\n      revert\n    tag_37:\n      pop\n      tag_38\n      0x04\n      dup1\n      calldatasize\n      sub\n      dup2\n      add\n      swap1\n      tag_39\n      swap2\n      swap1\n      tag_34\n      jump\t// in\n    tag_39:\n      tag_40\n      jump\t// in\n    tag_38:\n      stop\n        /* \"common/contracts/finance/PaymentSplitter.sol\":4805:4903  function payee(uint256 index) public view returns (address) {... */\n    tag_7:\n      callvalue\n      dup1\n      iszero\n      tag_41\n      jumpi\n      0x00\n      dup1\n      revert\n    tag_41:\n      pop\n      tag_42\n      0x04\n      dup1\n      calldatasize\n      sub\n      dup2\n      add\n      swap1\n      tag_43\n      swap2\n      swap1\n      tag_44\n      jump\t// in\n    tag_43:\n      tag_45\n      jump\t// in\n    tag_42:\n      mload(0x40)\n      tag_46\n      swap2\n      swap1\n      tag_47\n      jump\t// in\n    tag_46:\n      mload(0x40)\n      dup1\n      swap2\n      sub\n      swap1\n      return\n        /* \"common/contracts/finance/PaymentSplitter.sol\":4316:4423  function released(address account) public view returns (uint256) {... */\n    tag_8:\n      callvalue\n      dup1\n      iszero\n      tag_48\n      jumpi\n      0x00\n      dup1\n      revert\n    tag_48:\n      pop\n      tag_49\n      0x04\n      dup1\n      calldatasize\n      sub\n      dup2\n      add\n      swap1\n      tag_50\n      swap2\n      swap1\n      tag_51\n      jump\t// in\n    tag_50:\n      tag_52\n      jump\t// in\n    tag_49:\n      mload(0x40)\n      tag_53\n      swap2\n      swap1\n      tag_30\n      jump\t// in\n    tag_53:\n      mload(0x40)\n      dup1\n      swap2\n      sub\n      swap1\n      return\n        /* \"common/contracts/finance/PaymentSplitter.sol\":4988:5210  function releasable(address account) public view returns (uint256) {... */\n    tag_9:\n      callvalue\n      dup1\n      iszero\n      tag_54\n      jumpi\n      0x00\n      dup1\n      revert\n    tag_54:\n      pop\n      tag_55\n      0x04\n      dup1\n      calldatasize\n      sub\n      dup2\n      add\n      swap1\n      tag_56\n      swap2\n      swap1\n      tag_51\n      jump\t// in\n    tag_56:\n      tag_57\n      jump\t// in\n    tag_55:\n      mload(0x40)\n      tag_58\n      swap2\n      swap1\n      tag_30\n      jump\t// in\n    tag_58:\n      mload(0x40)\n      dup1\n      swap2\n      sub\n      swap1\n      return\n        /* \"common/contracts/finance/PaymentSplitter.sol\":5364:5621  function releasable(IERC20 token, address account) public view returns (uint256) {... */\n    tag_10:\n      callvalue\n      dup1\n      iszero\n      tag_59\n      jumpi\n      0x00\n      dup1\n      revert\n    tag_59:\n      pop\n      tag_60\n      0x04\n      dup1\n      calldatasize\n      sub\n      dup2\n      add\n      swap1\n      tag_61\n      swap2\n      swap1\n      tag_34\n      jump\t// in\n    tag_61:\n      tag_62\n      jump\t// in\n    tag_60:\n      mload(0x40)\n      tag_63\n      swap2\n      swap1\n      tag_30\n      jump\t// in\n    tag_63:\n      mload(0x40)\n      dup1\n      swap2\n      sub\n      swap1\n      return\n        /* \"common/contracts/finance/PaymentSplitter.sol\":4119:4222  function shares(address account) public view returns (uint256) {... */\n    tag_11:\n      callvalue\n      dup1\n      iszero\n      tag_64\n      jumpi\n      0x00\n      dup1\n      revert\n    tag_64:\n      pop\n      tag_65\n      0x04\n      dup1\n      calldatasize\n      sub\n      dup2\n      add\n      swap1\n      tag_66\n      swap2\n      swap1\n      tag_51\n      jump\t// in\n    tag_66:\n      tag_67\n      jump\t// in\n    tag_65:\n      mload(0x40)\n      tag_68\n      swap2\n      swap1\n      tag_30\n      jump\t// in\n    tag_68:\n      mload(0x40)\n      dup1\n      swap2\n      sub\n      swap1\n      return\n        /* \"common/contracts/finance/PaymentSplitter.sol\":3916:4033  function totalReleased(IERC20 token) public view returns (uint256) {... */\n    tag_12:\n      callvalue\n      dup1\n      iszero\n      tag_69\n      jumpi\n      0x00\n      dup1\n      revert\n    tag_69:\n      pop\n      tag_70\n      0x04\n      dup1\n      calldatasize\n      sub\n      dup2\n      add\n      swap1\n      tag_71\n      swap2\n      swap1\n      tag_72\n      jump\t// in\n    tag_71:\n      tag_73\n      jump\t// in\n    tag_70:\n      mload(0x40)\n      tag_74\n      swap2\n      swap1\n      tag_30\n      jump\t// in\n    tag_74:\n      mload(0x40)\n      dup1\n      swap2\n      sub\n      swap1\n      return\n        /* \"common/contracts/finance/PaymentSplitter.sol\":3672:3765  function totalReleased() public view returns (uint256) {... */\n    tag_13:\n      callvalue\n      dup1\n      iszero\n      tag_75\n      jumpi\n      0x00\n      dup1\n      revert\n    tag_75:\n      pop\n      tag_76\n      tag_77\n      jump\t// in\n    tag_76:\n      mload(0x40)\n      tag_78\n      swap2\n      swap1\n      tag_30\n      jump\t// in\n    tag_78:\n      mload(0x40)\n      dup1\n      swap2\n      sub\n      swap1\n      return\n        /* \"common/contracts/utils/Context.sol\":640:736  function _msgSender() internal view virtual returns (address) {... */\n    tag_18:\n        /* \"common/contracts/utils/Context.sol\":693:700  address */\n      0x00\n        /* \"common/contracts/utils/Context.sol\":719:729  msg.sender */\n      caller\n        /* \"common/contracts/utils/Context.sol\":712:729  return msg.sender */\n      swap1\n      pop\n        /* \"common/contracts/utils/Context.sol\":640:736  function _msgSender() internal view virtual returns (address) {... */\n      swap1\n      jump\t// out\n        /* \"common/contracts/finance/PaymentSplitter.sol\":5815:6470  function release(address payable account) public virtual {... */\n    tag_25:\n        /* \"common/contracts/finance/PaymentSplitter.sol\":5909:5910  0 */\n      0x00\n        /* \"common/contracts/finance/PaymentSplitter.sol\":5890:5897  _shares */\n      0x02\n        /* \"common/contracts/finance/PaymentSplitter.sol\":5890:5906  _shares[account] */\n      0x00\n        /* \"common/contracts/finance/PaymentSplitter.sol\":5898:5905  account */\n      dup4\n        /* \"common/contracts/finance/PaymentSplitter.sol\":5890:5906  _shares[account] */\n      0xffffffffffffffffffffffffffffffffffffffff\n      and\n      0xffffffffffffffffffffffffffffffffffffffff\n      and\n      dup2\n      mstore\n      0x20\n      add\n      swap1\n      dup2\n      mstore\n      0x20\n      add\n      0x00\n      keccak256\n      sload\n        /* \"common/contracts/finance/PaymentSplitter.sol\":5890:5910  _shares[account] > 0 */\n      gt\n        /* \"common/contracts/finance/PaymentSplitter.sol\":5882:5953  require(_shares[account] > 0, \"PaymentSplitter: account has no shares\") */\n      tag_81\n      jumpi\n      mload(0x40)\n      0x08c379a000000000000000000000000000000000000000000000000000000000\n      dup2\n      mstore\n      0x04\n      add\n      tag_82\n      swap1\n      tag_83\n      jump\t// in\n    tag_82:\n      mload(0x40)\n      dup1\n      swap2\n      sub\n      swap1\n      revert\n    tag_81:\n        /* \"common/contracts/finance/PaymentSplitter.sol\":5964:5979  uint256 payment */\n      0x00\n        /* \"common/contracts/finance/PaymentSplitter.sol\":5982:6001  releasable(account) */\n      tag_84\n        /* \"common/contracts/finance/PaymentSplitter.sol\":5993:6000  account */\n      dup3\n        /* \"common/contracts/finance/PaymentSplitter.sol\":5982:5992  releasable */\n      tag_57\n        /* \"common/contracts/finance/PaymentSplitter.sol\":5982:6001  releasable(account) */\n      jump\t// in\n    tag_84:\n        /* \"common/contracts/finance/PaymentSplitter.sol\":5964:6001  uint256 payment = releasable(account) */\n      swap1\n      pop\n        /* \"common/contracts/finance/PaymentSplitter.sol\":6031:6032  0 */\n      0x00\n        /* \"common/contracts/finance/PaymentSplitter.sol\":6020:6027  payment */\n      dup2\n        /* \"common/contracts/finance/PaymentSplitter.sol\":6020:6032  payment != 0 */\n      eq\n      iszero\n        /* \"common/contracts/finance/PaymentSplitter.sol\":6012:6080  require(payment != 0, \"PaymentSplitter: account is not due payment\") */\n      tag_85\n      jumpi\n      mload(0x40)\n      0x08c379a000000000000000000000000000000000000000000000000000000000\n      dup2\n      mstore\n      0x04\n      add\n      tag_86\n      swap1\n      tag_87\n      jump\t// in\n    tag_86:\n      mload(0x40)\n      dup1\n      swap2\n      sub\n      swap1\n      revert\n    tag_85:\n        /* \"common/contracts/finance/PaymentSplitter.sol\":6289:6296  payment */\n      dup1\n        /* \"common/contracts/finance/PaymentSplitter.sol\":6271:6285  _totalReleased */\n      0x01\n      0x00\n        /* \"common/contracts/finance/PaymentSplitter.sol\":6271:6296  _totalReleased += payment */\n      dup3\n      dup3\n      sload\n      tag_88\n      swap2\n      swap1\n      tag_89\n      jump\t// in\n    tag_88:\n      swap3\n      pop\n      pop\n      dup2\n      swap1\n      sstore\n      pop\n        /* \"common/contracts/finance/PaymentSplitter.sol\":6352:6359  payment */\n      dup1\n        /* \"common/contracts/finance/PaymentSplitter.sol\":6330:6339  _released */\n      0x03\n        /* \"common/contracts/finance/PaymentSplitter.sol\":6330:6348  _released[account] */\n      0x00\n        /* \"common/contracts/finance/PaymentSplitter.sol\":6340:6347  account */\n      dup5\n        /* \"common/contracts/finance/PaymentSplitter.sol\":6330:6348  _released[account] */\n      0xffffffffffffffffffffffffffffffffffffffff\n      and\n      0xffffffffffffffffffffffffffffffffffffffff\n      and\n      dup2\n      mstore\n      0x20\n      add\n      swap1\n      dup2\n      mstore\n      0x20\n      add\n      0x00\n      keccak256\n      0x00\n        /* \"common/contracts/finance/PaymentSplitter.sol\":6330:6359  _released[account] += payment */\n      dup3\n      dup3\n      sload\n      add\n      swap3\n      pop\n      pop\n      dup2\n      swap1\n      sstore\n      pop\n        /* \"common/contracts/finance/PaymentSplitter.sol\":6380:6415  Address.sendValue(account, payment) */\n      tag_90\n        /* \"common/contracts/finance/PaymentSplitter.sol\":6398:6405  account */\n      dup3\n        /* \"common/contracts/finance/PaymentSplitter.sol\":6407:6414  payment */\n      dup3\n        /* \"common/contracts/finance/PaymentSplitter.sol\":6380:6397  Address.sendValue */\n      tag_91\n        /* \"common/contracts/finance/PaymentSplitter.sol\":6380:6415  Address.sendValue(account, payment) */\n      jump\t// in\n    tag_90:\n        /* \"common/contracts/finance/PaymentSplitter.sol\":6430:6463  PaymentReleased(account, payment) */\n      0xdf20fd1e76bc69d672e4814fafb2c449bba3a5369d8359adf9e05e6fde87b056\n        /* \"common/contracts/finance/PaymentSplitter.sol\":6446:6453  account */\n      dup3\n        /* \"common/contracts/finance/PaymentSplitter.sol\":6455:6462  payment */\n      dup3\n        /* \"common/contracts/finance/PaymentSplitter.sol\":6430:6463  PaymentReleased(account, payment) */\n      mload(0x40)\n      tag_92\n      swap3\n      swap2\n      swap1\n      tag_93\n      jump\t// in\n    tag_92:\n      mload(0x40)\n      dup1\n      swap2\n      sub\n      swap1\n      log1\n        /* \"common/contracts/finance/PaymentSplitter.sol\":5872:6470  {... */\n      pop\n        /* \"common/contracts/finance/PaymentSplitter.sol\":5815:6470  function release(address payable account) public virtual {... */\n      pop\n      jump\t// out\n        /* \"common/contracts/finance/PaymentSplitter.sol\":3494:3583  function totalShares() public view returns (uint256) {... */\n    tag_28:\n        /* \"common/contracts/finance/PaymentSplitter.sol\":3538:3545  uint256 */\n      0x00\n        /* \"common/contracts/finance/PaymentSplitter.sol\":3564:3576  _totalShares */\n      dup1\n      sload\n        /* \"common/contracts/finance/PaymentSplitter.sol\":3557:3576  return _totalShares */\n      swap1\n      pop\n        /* \"common/contracts/finance/PaymentSplitter.sol\":3494:3583  function totalShares() public view returns (uint256) {... */\n      swap1\n      jump\t// out\n        /* \"common/contracts/finance/PaymentSplitter.sol\":4586:4719  function released(IERC20 token, address account) public view returns (uint256) {... */\n    tag_35:\n        /* \"common/contracts/finance/PaymentSplitter.sol\":4656:4663  uint256 */\n      0x00\n        /* \"common/contracts/finance/PaymentSplitter.sol\":4682:4696  _erc20Released */\n      0x06\n        /* \"common/contracts/finance/PaymentSplitter.sol\":4682:4703  _erc20Released[token] */\n      0x00\n        /* \"common/contracts/finance/PaymentSplitter.sol\":4697:4702  token */\n      dup5\n        /* \"common/contracts/finance/PaymentSplitter.sol\":4682:4703  _erc20Released[token] */\n      0xffffffffffffffffffffffffffffffffffffffff\n      and\n      0xffffffffffffffffffffffffffffffffffffffff\n      and\n      dup2\n      mstore\n      0x20\n      add\n      swap1\n      dup2\n      mstore\n      0x20\n      add\n      0x00\n      keccak256\n        /* \"common/contracts/finance/PaymentSplitter.sol\":4682:4712  _erc20Released[token][account] */\n      0x00\n        /* \"common/contracts/finance/PaymentSplitter.sol\":4704:4711  account */\n      dup4\n        /* \"common/contracts/finance/PaymentSplitter.sol\":4682:4712  _erc20Released[token][account] */\n      0xffffffffffffffffffffffffffffffffffffffff\n      and\n      0xffffffffffffffffffffffffffffffffffffffff\n      and\n      dup2\n      mstore\n      0x20\n      add\n      swap1\n      dup2\n      mstore\n      0x20\n      add\n      0x00\n      keccak256\n      sload\n        /* \"common/contracts/finance/PaymentSplitter.sol\":4675:4712  return _erc20Released[token][account] */\n      swap1\n      pop\n        /* \"common/contracts/finance/PaymentSplitter.sol\":4586:4719  function released(IERC20 token, address account) public view returns (uint256) {... */\n      swap3\n      swap2\n      pop\n      pop\n      jump\t// out\n        /* \"common/contracts/finance/PaymentSplitter.sol\":6731:7506  function release(IERC20 token, address account) public virtual {... */\n    tag_40:\n        /* \"common/contracts/finance/PaymentSplitter.sol\":6831:6832  0 */\n      0x00\n        /* \"common/contracts/finance/PaymentSplitter.sol\":6812:6819  _shares */\n      0x02\n        /* \"common/contracts/finance/PaymentSplitter.sol\":6812:6828  _shares[account] */\n      0x00\n        /* \"common/contracts/finance/PaymentSplitter.sol\":6820:6827  account */\n      dup4\n        /* \"common/contracts/finance/PaymentSplitter.sol\":6812:6828  _shares[account] */\n      0xffffffffffffffffffffffffffffffffffffffff\n      and\n      0xffffffffffffffffffffffffffffffffffffffff\n      and\n      dup2\n      mstore\n      0x20\n      add\n      swap1\n      dup2\n      mstore\n      0x20\n      add\n      0x00\n      keccak256\n      sload\n        /* \"common/contracts/finance/PaymentSplitter.sol\":6812:6832  _shares[account] > 0 */\n      gt\n        /* \"common/contracts/finance/PaymentSplitter.sol\":6804:6875  require(_shares[account] > 0, \"PaymentSplitter: account has no shares\") */\n      tag_97\n      jumpi\n      mload(0x40)\n      0x08c379a000000000000000000000000000000000000000000000000000000000\n      dup2\n      mstore\n      0x04\n      add\n      tag_98\n      swap1\n      tag_83\n      jump\t// in\n    tag_98:\n      mload(0x40)\n      dup1\n      swap2\n      sub\n      swap1\n      revert\n    tag_97:\n        /* \"common/contracts/finance/PaymentSplitter.sol\":6886:6901  uint256 payment */\n      0x00\n        /* \"common/contracts/finance/PaymentSplitter.sol\":6904:6930  releasable(token, account) */\n      tag_99\n        /* \"common/contracts/finance/PaymentSplitter.sol\":6915:6920  token */\n      dup4\n        /* \"common/contracts/finance/PaymentSplitter.sol\":6922:6929  account */\n      dup4\n        /* \"common/contracts/finance/PaymentSplitter.sol\":6904:6914  releasable */\n      tag_62\n        /* \"common/contracts/finance/PaymentSplitter.sol\":6904:6930  releasable(token, account) */\n      jump\t// in\n    tag_99:\n        /* \"common/contracts/finance/PaymentSplitter.sol\":6886:6930  uint256 payment = releasable(token, account) */\n      swap1\n      pop\n        /* \"common/contracts/finance/PaymentSplitter.sol\":6960:6961  0 */\n      0x00\n        /* \"common/contracts/finance/PaymentSplitter.sol\":6949:6956  payment */\n      dup2\n        /* \"common/contracts/finance/PaymentSplitter.sol\":6949:6961  payment != 0 */\n      eq\n      iszero\n        /* \"common/contracts/finance/PaymentSplitter.sol\":6941:7009  require(payment != 0, \"PaymentSplitter: account is not due payment\") */\n      tag_100\n      jumpi\n      mload(0x40)\n      0x08c379a000000000000000000000000000000000000000000000000000000000\n      dup2\n      mstore\n      0x04\n      add\n      tag_101\n      swap1\n      tag_87\n      jump\t// in\n    tag_101:\n      mload(0x40)\n      dup1\n      swap2\n      sub\n      swap1\n      revert\n    tag_100:\n        /* \"common/contracts/finance/PaymentSplitter.sol\":7289:7296  payment */\n      dup1\n        /* \"common/contracts/finance/PaymentSplitter.sol\":7259:7278  _erc20TotalReleased */\n      0x05\n        /* \"common/contracts/finance/PaymentSplitter.sol\":7259:7285  _erc20TotalReleased[token] */\n      0x00\n        /* \"common/contracts/finance/PaymentSplitter.sol\":7279:7284  token */\n      dup6\n        /* \"common/contracts/finance/PaymentSplitter.sol\":7259:7285  _erc20TotalReleased[token] */\n      0xffffffffffffffffffffffffffffffffffffffff\n      and\n      0xffffffffffffffffffffffffffffffffffffffff\n      and\n      dup2\n      mstore\n      0x20\n      add\n      swap1\n      dup2\n      mstore\n      0x20\n      add\n      0x00\n      keccak256\n      0x00\n        /* \"common/contracts/finance/PaymentSplitter.sol\":7259:7296  _erc20TotalReleased[token] += payment */\n      dup3\n      dup3\n      sload\n      tag_102\n      swap2\n      swap1\n      tag_89\n      jump\t// in\n    tag_102:\n      swap3\n      pop\n      pop\n      dup2\n      swap1\n      sstore\n      pop\n        /* \"common/contracts/finance/PaymentSplitter.sol\":7364:7371  payment */\n      dup1\n        /* \"common/contracts/finance/PaymentSplitter.sol\":7330:7344  _erc20Released */\n      0x06\n        /* \"common/contracts/finance/PaymentSplitter.sol\":7330:7351  _erc20Released[token] */\n      0x00\n        /* \"common/contracts/finance/PaymentSplitter.sol\":7345:7350  token */\n      dup6\n        /* \"common/contracts/finance/PaymentSplitter.sol\":7330:7351  _erc20Released[token] */\n      0xffffffffffffffffffffffffffffffffffffffff\n      and\n      0xffffffffffffffffffffffffffffffffffffffff\n      and\n      dup2\n      mstore\n      0x20\n      add\n      swap1\n      dup2\n      mstore\n      0x20\n      add\n      0x00\n      keccak256\n        /* \"common/contracts/finance/PaymentSplitter.sol\":7330:7360  _erc20Released[token][account] */\n      0x00\n        /* \"common/contracts/finance/PaymentSplitter.sol\":7352:7359  account */\n      dup5\n        /* \"common/contracts/finance/PaymentSplitter.sol\":7330:7360  _erc20Released[token][account] */\n      0xffffffffffffffffffffffffffffffffffffffff\n      and\n      0xffffffffffffffffffffffffffffffffffffffff\n      and\n      dup2\n      mstore\n      0x20\n      add\n      swap1\n      dup2\n      mstore\n      0x20\n      add\n      0x00\n      keccak256\n      0x00\n        /* \"common/contracts/finance/PaymentSplitter.sol\":7330:7371  _erc20Released[token][account] += payment */\n      dup3\n      dup3\n      sload\n      add\n      swap3\n      pop\n      pop\n      dup2\n      swap1\n      sstore\n      pop\n        /* \"common/contracts/finance/PaymentSplitter.sol\":7392:7439  SafeERC20.safeTransfer(token, account, payment) */\n      tag_103\n        /* \"common/contracts/finance/PaymentSplitter.sol\":7415:7420  token */\n      dup4\n        /* \"common/contracts/finance/PaymentSplitter.sol\":7422:7429  account */\n      dup4\n        /* \"common/contracts/finance/PaymentSplitter.sol\":7431:7438  payment */\n      dup4\n        /* \"common/contracts/finance/PaymentSplitter.sol\":7392:7414  SafeERC20.safeTransfer */\n      tag_104\n        /* \"common/contracts/finance/PaymentSplitter.sol\":7392:7439  SafeERC20.safeTransfer(token, account, payment) */\n      jump\t// in\n    tag_103:\n        /* \"common/contracts/finance/PaymentSplitter.sol\":7475:7480  token */\n      dup3\n        /* \"common/contracts/finance/PaymentSplitter.sol\":7454:7499  ERC20PaymentReleased(token, account, payment) */\n      0xffffffffffffffffffffffffffffffffffffffff\n      and\n      0x3be5b7a71e84ed12875d241991c70855ac5817d847039e17a9d895c1ceb0f18a\n        /* \"common/contracts/finance/PaymentSplitter.sol\":7482:7489  account */\n      dup4\n        /* \"common/contracts/finance/PaymentSplitter.sol\":7491:7498  payment */\n      dup4\n        /* \"common/contracts/finance/PaymentSplitter.sol\":7454:7499  ERC20PaymentReleased(token, account, payment) */\n      mload(0x40)\n      tag_105\n      swap3\n      swap2\n      swap1\n      tag_20\n      jump\t// in\n    tag_105:\n      mload(0x40)\n      dup1\n      swap2\n      sub\n      swap1\n      log2\n        /* \"common/contracts/finance/PaymentSplitter.sol\":6794:7506  {... */\n      pop\n        /* \"common/contracts/finance/PaymentSplitter.sol\":6731:7506  function release(IERC20 token, address account) public virtual {... */\n      pop\n      pop\n      jump\t// out\n        /* \"common/contracts/finance/PaymentSplitter.sol\":4805:4903  function payee(uint256 index) public view returns (address) {... */\n    tag_45:\n        /* \"common/contracts/finance/PaymentSplitter.sol\":4856:4863  address */\n      0x00\n        /* \"common/contracts/finance/PaymentSplitter.sol\":4882:4889  _payees */\n      0x04\n        /* \"common/contracts/finance/PaymentSplitter.sol\":4890:4895  index */\n      dup3\n        /* \"common/contracts/finance/PaymentSplitter.sol\":4882:4896  _payees[index] */\n      dup2\n      sload\n      dup2\n      lt\n      tag_107\n      jumpi\n      tag_108\n      tag_109\n      jump\t// in\n    tag_108:\n    tag_107:\n      swap1\n      0x00\n      mstore\n      keccak256(0x00, 0x20)\n      add\n      0x00\n      swap1\n      sload\n      swap1\n      0x0100\n      exp\n      swap1\n      div\n      0xffffffffffffffffffffffffffffffffffffffff\n      and\n        /* \"common/contracts/finance/PaymentSplitter.sol\":4875:4896  return _payees[index] */\n      swap1\n      pop\n        /* \"common/contracts/finance/PaymentSplitter.sol\":4805:4903  function payee(uint256 index) public view returns (address) {... */\n      swap2\n      swap1\n      pop\n      jump\t// out\n        /* \"common/contracts/finance/PaymentSplitter.sol\":4316:4423  function released(address account) public view returns (uint256) {... */\n    tag_52:\n        /* \"common/contracts/finance/PaymentSplitter.sol\":4372:4379  uint256 */\n      0x00\n        /* \"common/contracts/finance/PaymentSplitter.sol\":4398:4407  _released */\n      0x03\n        /* \"common/contracts/finance/PaymentSplitter.sol\":4398:4416  _released[account] */\n      0x00\n        /* \"common/contracts/finance/PaymentSplitter.sol\":4408:4415  account */\n      dup4\n        /* \"common/contracts/finance/PaymentSplitter.sol\":4398:4416  _released[account] */\n      0xffffffffffffffffffffffffffffffffffffffff\n      and\n      0xffffffffffffffffffffffffffffffffffffffff\n      and\n      dup2\n      mstore\n      0x20\n      add\n      swap1\n      dup2\n      mstore\n      0x20\n      add\n      0x00\n      keccak256\n      sload\n        /* \"common/contracts/finance/PaymentSplitter.sol\":4391:4416  return _released[account] */\n      swap1\n      pop\n        /* \"common/contracts/finance/PaymentSplitter.sol\":4316:4423  function released(address account) public view returns (uint256) {... */\n      swap2\n      swap1\n      pop\n      jump\t// out\n        /* \"common/contracts/finance/PaymentSplitter.sol\":4988:5210  function releasable(address account) public view returns (uint256) {... */\n    tag_57:\n        /* \"common/contracts/finance/PaymentSplitter.sol\":5046:5053  uint256 */\n      0x00\n        /* \"common/contracts/finance/PaymentSplitter.sol\":5065:5086  uint256 totalReceived */\n      dup1\n        /* \"common/contracts/finance/PaymentSplitter.sol\":5113:5128  totalReleased() */\n      tag_113\n        /* \"common/contracts/finance/PaymentSplitter.sol\":5113:5126  totalReleased */\n      tag_77\n        /* \"common/contracts/finance/PaymentSplitter.sol\":5113:5128  totalReleased() */\n      jump\t// in\n    tag_113:\n        /* \"common/contracts/finance/PaymentSplitter.sol\":5089:5110  address(this).balance */\n      selfbalance\n        /* \"common/contracts/finance/PaymentSplitter.sol\":5089:5128  address(this).balance + totalReleased() */\n      tag_114\n      swap2\n      swap1\n      tag_89\n      jump\t// in\n    tag_114:\n        /* \"common/contracts/finance/PaymentSplitter.sol\":5065:5128  uint256 totalReceived = address(this).balance + totalReleased() */\n      swap1\n      pop\n        /* \"common/contracts/finance/PaymentSplitter.sol\":5145:5203  _pendingPayment(account, totalReceived, released(account)) */\n      tag_115\n        /* \"common/contracts/finance/PaymentSplitter.sol\":5161:5168  account */\n      dup4\n        /* \"common/contracts/finance/PaymentSplitter.sol\":5170:5183  totalReceived */\n      dup3\n        /* \"common/contracts/finance/PaymentSplitter.sol\":5185:5202  released(account) */\n      tag_116\n        /* \"common/contracts/finance/PaymentSplitter.sol\":5194:5201  account */\n      dup7\n        /* \"common/contracts/finance/PaymentSplitter.sol\":5185:5193  released */\n      tag_52\n        /* \"common/contracts/finance/PaymentSplitter.sol\":5185:5202  released(account) */\n      jump\t// in\n    tag_116:\n        /* \"common/contracts/finance/PaymentSplitter.sol\":5145:5160  _pendingPayment */\n      tag_117\n        /* \"common/contracts/finance/PaymentSplitter.sol\":5145:5203  _pendingPayment(account, totalReceived, released(account)) */\n      jump\t// in\n    tag_115:\n        /* \"common/contracts/finance/PaymentSplitter.sol\":5138:5203  return _pendingPayment(account, totalReceived, released(account)) */\n      swap2\n      pop\n      pop\n        /* \"common/contracts/finance/PaymentSplitter.sol\":4988:5210  function releasable(address account) public view returns (uint256) {... */\n      swap2\n      swap1\n      pop\n      jump\t// out\n        /* \"common/contracts/finance/PaymentSplitter.sol\":5364:5621  function releasable(IERC20 token, address account) public view returns (uint256) {... */\n    tag_62:\n        /* \"common/contracts/finance/PaymentSplitter.sol\":5436:5443  uint256 */\n      0x00\n        /* \"common/contracts/finance/PaymentSplitter.sol\":5455:5476  uint256 totalReceived */\n      dup1\n        /* \"common/contracts/finance/PaymentSplitter.sol\":5512:5532  totalReleased(token) */\n      tag_119\n        /* \"common/contracts/finance/PaymentSplitter.sol\":5526:5531  token */\n      dup5\n        /* \"common/contracts/finance/PaymentSplitter.sol\":5512:5525  totalReleased */\n      tag_73\n        /* \"common/contracts/finance/PaymentSplitter.sol\":5512:5532  totalReleased(token) */\n      jump\t// in\n    tag_119:\n        /* \"common/contracts/finance/PaymentSplitter.sol\":5479:5484  token */\n      dup5\n        /* \"common/contracts/finance/PaymentSplitter.sol\":5479:5494  token.balanceOf */\n      0xffffffffffffffffffffffffffffffffffffffff\n      and\n      0x70a08231\n        /* \"common/contracts/finance/PaymentSplitter.sol\":5503:5507  this */\n      address\n        /* \"common/contracts/finance/PaymentSplitter.sol\":5479:5509  token.balanceOf(address(this)) */\n      mload(0x40)\n      dup3\n      0xffffffff\n      and\n      0xe0\n      shl\n      dup2\n      mstore\n      0x04\n      add\n      tag_120\n      swap2\n      swap1\n      tag_47\n      jump\t// in\n    tag_120:\n      0x20\n      mload(0x40)\n      dup1\n      dup4\n      sub\n      dup2\n      dup7\n      dup1\n      extcodesize\n      iszero\n      dup1\n      iszero\n      tag_121\n      jumpi\n      0x00\n      dup1\n      revert\n    tag_121:\n      pop\n      gas\n      staticcall\n      iszero\n      dup1\n      iszero\n      tag_123\n      jumpi\n      returndatasize\n      0x00\n      dup1\n      returndatacopy\n      revert(0x00, returndatasize)\n    tag_123:\n      pop\n      pop\n      pop\n      pop\n      mload(0x40)\n      returndatasize\n      not(0x1f)\n      0x1f\n      dup3\n      add\n      and\n      dup3\n      add\n      dup1\n      0x40\n      mstore\n      pop\n      dup2\n      add\n      swap1\n      tag_124\n      swap2\n      swap1\n      tag_125\n      jump\t// in\n    tag_124:\n        /* \"common/contracts/finance/PaymentSplitter.sol\":5479:5532  token.balanceOf(address(this)) + totalReleased(token) */\n      tag_126\n      swap2\n      swap1\n      tag_89\n      jump\t// in\n    tag_126:\n        /* \"common/contracts/finance/PaymentSplitter.sol\":5455:5532  uint256 totalReceived = token.balanceOf(address(this)) + totalReleased(token) */\n      swap1\n      pop\n        /* \"common/contracts/finance/PaymentSplitter.sol\":5549:5614  _pendingPayment(account, totalReceived, released(token, account)) */\n      tag_127\n        /* \"common/contracts/finance/PaymentSplitter.sol\":5565:5572  account */\n      dup4\n        /* \"common/contracts/finance/PaymentSplitter.sol\":5574:5587  totalReceived */\n      dup3\n        /* \"common/contracts/finance/PaymentSplitter.sol\":5589:5613  released(token, account) */\n      tag_128\n        /* \"common/contracts/finance/PaymentSplitter.sol\":5598:5603  token */\n      dup8\n        /* \"common/contracts/finance/PaymentSplitter.sol\":5605:5612  account */\n      dup8\n        /* \"common/contracts/finance/PaymentSplitter.sol\":5589:5597  released */\n      tag_35\n        /* \"common/contracts/finance/PaymentSplitter.sol\":5589:5613  released(token, account) */\n      jump\t// in\n    tag_128:\n        /* \"common/contracts/finance/PaymentSplitter.sol\":5549:5564  _pendingPayment */\n      tag_117\n        /* \"common/contracts/finance/PaymentSplitter.sol\":5549:5614  _pendingPayment(account, totalReceived, released(token, account)) */\n      jump\t// in\n    tag_127:\n        /* \"common/contracts/finance/PaymentSplitter.sol\":5542:5614  return _pendingPayment(account, totalReceived, released(token, account)) */\n      swap2\n      pop\n      pop\n        /* \"common/contracts/finance/PaymentSplitter.sol\":5364:5621  function releasable(IERC20 token, address account) public view returns (uint256) {... */\n      swap3\n      swap2\n      pop\n      pop\n      jump\t// out\n        /* \"common/contracts/finance/PaymentSplitter.sol\":4119:4222  function shares(address account) public view returns (uint256) {... */\n    tag_67:\n        /* \"common/contracts/finance/PaymentSplitter.sol\":4173:4180  uint256 */\n      0x00\n        /* \"common/contracts/finance/PaymentSplitter.sol\":4199:4206  _shares */\n      0x02\n        /* \"common/contracts/finance/PaymentSplitter.sol\":4199:4215  _shares[account] */\n      0x00\n        /* \"common/contracts/finance/PaymentSplitter.sol\":4207:4214  account */\n      dup4\n        /* \"common/contracts/finance/PaymentSplitter.sol\":4199:4215  _shares[account] */\n      0xffffffffffffffffffffffffffffffffffffffff\n      and\n      0xffffffffffffffffffffffffffffffffffffffff\n      and\n      dup2\n      mstore\n      0x20\n      add\n      swap1\n      dup2\n      mstore\n      0x20\n      add\n      0x00\n      keccak256\n      sload\n        /* \"common/contracts/finance/PaymentSplitter.sol\":4192:4215  return _shares[account] */\n      swap1\n      pop\n        /* \"common/contracts/finance/PaymentSplitter.sol\":4119:4222  function shares(address account) public view returns (uint256) {... */\n      swap2\n      swap1\n      pop\n      jump\t// out\n        /* \"common/contracts/finance/PaymentSplitter.sol\":3916:4033  function totalReleased(IERC20 token) public view returns (uint256) {... */\n    tag_73:\n        /* \"common/contracts/finance/PaymentSplitter.sol\":3974:3981  uint256 */\n      0x00\n        /* \"common/contracts/finance/PaymentSplitter.sol\":4000:4019  _erc20TotalReleased */\n      0x05\n        /* \"common/contracts/finance/PaymentSplitter.sol\":4000:4026  _erc20TotalReleased[token] */\n      0x00\n        /* \"common/contracts/finance/PaymentSplitter.sol\":4020:4025  token */\n      dup4\n        /* \"common/contracts/finance/PaymentSplitter.sol\":4000:4026  _erc20TotalReleased[token] */\n      0xffffffffffffffffffffffffffffffffffffffff\n      and\n      0xffffffffffffffffffffffffffffffffffffffff\n      and\n      dup2\n      mstore\n      0x20\n      add\n      swap1\n      dup2\n      mstore\n      0x20\n      add\n      0x00\n      keccak256\n      sload\n        /* \"common/contracts/finance/PaymentSplitter.sol\":3993:4026  return _erc20TotalReleased[token] */\n      swap1\n      pop\n        /* \"common/contracts/finance/PaymentSplitter.sol\":3916:4033  function totalReleased(IERC20 token) public view returns (uint256) {... */\n      swap2\n      swap1\n      pop\n      jump\t// out\n        /* \"common/contracts/finance/PaymentSplitter.sol\":3672:3765  function totalReleased() public view returns (uint256) {... */\n    tag_77:\n        /* \"common/contracts/finance/PaymentSplitter.sol\":3718:3725  uint256 */\n      0x00\n        /* \"common/contracts/finance/PaymentSplitter.sol\":3744:3758  _totalReleased */\n      sload(0x01)\n        /* \"common/contracts/finance/PaymentSplitter.sol\":3737:3758  return _totalReleased */\n      swap1\n      pop\n        /* \"common/contracts/finance/PaymentSplitter.sol\":3672:3765  function totalReleased() public view returns (uint256) {... */\n      swap1\n      jump\t// out\n        /* \"common/contracts/utils/Address.sol\":2411:2723  function sendValue(address payable recipient, uint256 amount) internal {... */\n    tag_91:\n        /* \"common/contracts/utils/Address.sol\":2525:2531  amount */\n      dup1\n        /* \"common/contracts/utils/Address.sol\":2500:2521  address(this).balance */\n      selfbalance\n        /* \"common/contracts/utils/Address.sol\":2500:2531  address(this).balance >= amount */\n      lt\n      iszero\n        /* \"common/contracts/utils/Address.sol\":2492:2565  require(address(this).balance >= amount, \"Address: insufficient balance\") */\n      tag_133\n      jumpi\n      mload(0x40)\n      0x08c379a000000000000000000000000000000000000000000000000000000000\n      dup2\n      mstore\n      0x04\n      add\n      tag_134\n      swap1\n      tag_135\n      jump\t// in\n    tag_134:\n      mload(0x40)\n      dup1\n      swap2\n      sub\n      swap1\n      revert\n    tag_133:\n        /* \"common/contracts/utils/Address.sol\":2577:2589  bool success */\n      0x00\n        /* \"common/contracts/utils/Address.sol\":2595:2604  recipient */\n      dup3\n        /* \"common/contracts/utils/Address.sol\":2595:2609  recipient.call */\n      0xffffffffffffffffffffffffffffffffffffffff\n      and\n        /* \"common/contracts/utils/Address.sol\":2617:2623  amount */\n      dup3\n        /* \"common/contracts/utils/Address.sol\":2595:2628  recipient.call{value: amount}(\"\") */\n      mload(0x40)\n      tag_136\n      swap1\n      tag_137\n      jump\t// in\n    tag_136:\n      0x00\n      mload(0x40)\n      dup1\n      dup4\n      sub\n      dup2\n      dup6\n      dup8\n      gas\n      call\n      swap3\n      pop\n      pop\n      pop\n      returndatasize\n      dup1\n      0x00\n      dup2\n      eq\n      tag_140\n      jumpi\n      mload(0x40)\n      swap2\n      pop\n      and(add(returndatasize, 0x3f), not(0x1f))\n      dup3\n      add\n      0x40\n      mstore\n      returndatasize\n      dup3\n      mstore\n      returndatasize\n      0x00\n      0x20\n      dup5\n      add\n      returndatacopy\n      jump(tag_139)\n    tag_140:\n      0x60\n      swap2\n      pop\n    tag_139:\n      pop\n        /* \"common/contracts/utils/Address.sol\":2576:2628  (bool success, ) = recipient.call{value: amount}(\"\") */\n      pop\n      swap1\n      pop\n        /* \"common/contracts/utils/Address.sol\":2646:2653  success */\n      dup1\n        /* \"common/contracts/utils/Address.sol\":2638:2716  require(success, \"Address: unable to send value, recipient may have reverted\") */\n      tag_141\n      jumpi\n      mload(0x40)\n      0x08c379a000000000000000000000000000000000000000000000000000000000\n      dup2\n      mstore\n      0x04\n      add\n      tag_142\n      swap1\n      tag_143\n      jump\t// in\n    tag_142:\n      mload(0x40)\n      dup1\n      swap2\n      sub\n      swap1\n      revert\n    tag_141:\n        /* \"common/contracts/utils/Address.sol\":2482:2723  {... */\n      pop\n        /* \"common/contracts/utils/Address.sol\":2411:2723  function sendValue(address payable recipient, uint256 amount) internal {... */\n      pop\n      pop\n      jump\t// out\n        /* \"common/contracts/token/ERC20/utils/SafeERC20.sol\":757:962  function safeTransfer(... */\n    tag_104:\n        /* \"common/contracts/token/ERC20/utils/SafeERC20.sol\":869:955  _callOptionalReturn(token, abi.encodeWithSelector(token.transfer.selector, to, value)) */\n      tag_145\n        /* \"common/contracts/token/ERC20/utils/SafeERC20.sol\":889:894  token */\n      dup4\n        /* \"common/contracts/token/ERC20/utils/SafeERC20.sol\":919:942  token.transfer.selector */\n      shl(0xe0, 0xa9059cbb)\n        /* \"common/contracts/token/ERC20/utils/SafeERC20.sol\":944:946  to */\n      dup5\n        /* \"common/contracts/token/ERC20/utils/SafeERC20.sol\":948:953  value */\n      dup5\n        /* \"common/contracts/token/ERC20/utils/SafeERC20.sol\":896:954  abi.encodeWithSelector(token.transfer.selector, to, value) */\n      add(0x24, mload(0x40))\n      tag_146\n      swap3\n      swap2\n      swap1\n      tag_20\n      jump\t// in\n    tag_146:\n      mload(0x40)\n      0x20\n      dup2\n      dup4\n      sub\n      sub\n      dup2\n      mstore\n      swap1\n      0x40\n      mstore\n      swap1\n      not(0xffffffffffffffffffffffffffffffffffffffffffffffffffffffff)\n      and\n      0x20\n      dup3\n      add\n      dup1\n      mload\n      0xffffffffffffffffffffffffffffffffffffffffffffffffffffffff\n      dup4\n      dup2\n      dup4\n      and\n      or\n      dup4\n      mstore\n      pop\n      pop\n      pop\n      pop\n        /* \"common/contracts/token/ERC20/utils/SafeERC20.sol\":869:888  _callOptionalReturn */\n      tag_147\n        /* \"common/contracts/token/ERC20/utils/SafeERC20.sol\":869:955  _callOptionalReturn(token, abi.encodeWithSelector(token.transfer.selector, to, value)) */\n      jump\t// in\n    tag_145:\n        /* \"common/contracts/token/ERC20/utils/SafeERC20.sol\":757:962  function safeTransfer(... */\n      pop\n      pop\n      pop\n      jump\t// out\n        /* \"common/contracts/finance/PaymentSplitter.sol\":7678:7920  function _pendingPayment(... */\n    tag_117:\n        /* \"common/contracts/finance/PaymentSplitter.sol\":7820:7827  uint256 */\n      0x00\n        /* \"common/contracts/finance/PaymentSplitter.sol\":7898:7913  alreadyReleased */\n      dup2\n        /* \"common/contracts/finance/PaymentSplitter.sol\":7883:7895  _totalShares */\n      sload(0x00)\n        /* \"common/contracts/finance/PaymentSplitter.sol\":7863:7870  _shares */\n      0x02\n        /* \"common/contracts/finance/PaymentSplitter.sol\":7863:7879  _shares[account] */\n      0x00\n        /* \"common/contracts/finance/PaymentSplitter.sol\":7871:7878  account */\n      dup8\n        /* \"common/contracts/finance/PaymentSplitter.sol\":7863:7879  _shares[account] */\n      0xffffffffffffffffffffffffffffffffffffffff\n      and\n      0xffffffffffffffffffffffffffffffffffffffff\n      and\n      dup2\n      mstore\n      0x20\n      add\n      swap1\n      dup2\n      mstore\n      0x20\n      add\n      0x00\n      keccak256\n      sload\n        /* \"common/contracts/finance/PaymentSplitter.sol\":7847:7860  totalReceived */\n      dup6\n        /* \"common/contracts/finance/PaymentSplitter.sol\":7847:7879  totalReceived * _shares[account] */\n      tag_149\n      swap2\n      swap1\n      tag_150\n      jump\t// in\n    tag_149:\n        /* \"common/contracts/finance/PaymentSplitter.sol\":7846:7895  (totalReceived * _shares[account]) / _totalShares */\n      tag_151\n      swap2\n      swap1\n      tag_152\n      jump\t// in\n    tag_151:\n        /* \"common/contracts/finance/PaymentSplitter.sol\":7846:7913  (totalReceived * _shares[account]) / _totalShares - alreadyReleased */\n      tag_153\n      swap2\n      swap1\n      tag_154\n      jump\t// in\n    tag_153:\n        /* \"common/contracts/finance/PaymentSplitter.sol\":7839:7913  return (totalReceived * _shares[account]) / _totalShares - alreadyReleased */\n      swap1\n      pop\n        /* \"common/contracts/finance/PaymentSplitter.sol\":7678:7920  function _pendingPayment(... */\n      swap4\n      swap3\n      pop\n      pop\n      pop\n      jump\t// out\n        /* \"common/contracts/token/ERC20/utils/SafeERC20.sol\":3741:4447  function _callOptionalReturn(IERC20 token, bytes memory data) private {... */\n    tag_147:\n        /* \"common/contracts/token/ERC20/utils/SafeERC20.sol\":4160:4183  bytes memory returndata */\n      0x00\n        /* \"common/contracts/token/ERC20/utils/SafeERC20.sol\":4186:4255  address(token).functionCall(data, \"SafeERC20: low-level call failed\") */\n      tag_156\n        /* \"common/contracts/token/ERC20/utils/SafeERC20.sol\":4214:4218  data */\n      dup3\n        /* \"common/contracts/token/ERC20/utils/SafeERC20.sol\":4186:4255  address(token).functionCall(data, \"SafeERC20: low-level call failed\") */\n      mload(0x40)\n      dup1\n      0x40\n      add\n      0x40\n      mstore\n      dup1\n      0x20\n      dup2\n      mstore\n      0x20\n      add\n      0x5361666545524332303a206c6f772d6c6576656c2063616c6c206661696c6564\n      dup2\n      mstore\n      pop\n        /* \"common/contracts/token/ERC20/utils/SafeERC20.sol\":4194:4199  token */\n      dup6\n        /* \"common/contracts/token/ERC20/utils/SafeERC20.sol\":4186:4213  address(token).functionCall */\n      0xffffffffffffffffffffffffffffffffffffffff\n      and\n      tag_157\n      swap1\n        /* \"common/contracts/token/ERC20/utils/SafeERC20.sol\":4186:4255  address(token).functionCall(data, \"SafeERC20: low-level call failed\") */\n      swap3\n      swap2\n      swap1\n      0xffffffff\n      and\n      jump\t// in\n    tag_156:\n        /* \"common/contracts/token/ERC20/utils/SafeERC20.sol\":4160:4255  bytes memory returndata = address(token).functionCall(data, \"SafeERC20: low-level call failed\") */\n      swap1\n      pop\n        /* \"common/contracts/token/ERC20/utils/SafeERC20.sol\":4289:4290  0 */\n      0x00\n        /* \"common/contracts/token/ERC20/utils/SafeERC20.sol\":4269:4279  returndata */\n      dup2\n        /* \"common/contracts/token/ERC20/utils/SafeERC20.sol\":4269:4286  returndata.length */\n      mload\n        /* \"common/contracts/token/ERC20/utils/SafeERC20.sol\":4269:4290  returndata.length > 0 */\n      gt\n        /* \"common/contracts/token/ERC20/utils/SafeERC20.sol\":4265:4441  if (returndata.length > 0) {... */\n      iszero\n      tag_158\n      jumpi\n        /* \"common/contracts/token/ERC20/utils/SafeERC20.sol\":4364:4374  returndata */\n      dup1\n        /* \"common/contracts/token/ERC20/utils/SafeERC20.sol\":4353:4383  abi.decode(returndata, (bool)) */\n      dup1\n      0x20\n      add\n      swap1\n      mload\n      dup2\n      add\n      swap1\n      tag_159\n      swap2\n      swap1\n      tag_160\n      jump\t// in\n    tag_159:\n        /* \"common/contracts/token/ERC20/utils/SafeERC20.sol\":4345:4430  require(abi.decode(returndata, (bool)), \"SafeERC20: ERC20 operation did not succeed\") */\n      tag_161\n      jumpi\n      mload(0x40)\n      0x08c379a000000000000000000000000000000000000000000000000000000000\n      dup2\n      mstore\n      0x04\n      add\n      tag_162\n      swap1\n      tag_163\n      jump\t// in\n    tag_162:\n      mload(0x40)\n      dup1\n      swap2\n      sub\n      swap1\n      revert\n    tag_161:\n        /* \"common/contracts/token/ERC20/utils/SafeERC20.sol\":4265:4441  if (returndata.length > 0) {... */\n    tag_158:\n        /* \"common/contracts/token/ERC20/utils/SafeERC20.sol\":3811:4447  {... */\n      pop\n        /* \"common/contracts/token/ERC20/utils/SafeERC20.sol\":3741:4447  function _callOptionalReturn(IERC20 token, bytes memory data) private {... */\n      pop\n      pop\n      jump\t// out\n        /* \"common/contracts/utils/Address.sol\":3872:4095  function functionCall(... */\n    tag_157:\n        /* \"common/contracts/utils/Address.sol\":4005:4017  bytes memory */\n      0x60\n        /* \"common/contracts/utils/Address.sol\":4036:4088  functionCallWithValue(target, data, 0, errorMessage) */\n      tag_165\n        /* \"common/contracts/utils/Address.sol\":4058:4064  target */\n      dup5\n        /* \"common/contracts/utils/Address.sol\":4066:4070  data */\n      dup5\n        /* \"common/contracts/utils/Address.sol\":4072:4073  0 */\n      0x00\n        /* \"common/contracts/utils/Address.sol\":4075:4087  errorMessage */\n      dup6\n        /* \"common/contracts/utils/Address.sol\":4036:4057  functionCallWithValue */\n      tag_166\n        /* \"common/contracts/utils/Address.sol\":4036:4088  functionCallWithValue(target, data, 0, errorMessage) */\n      jump\t// in\n    tag_165:\n        /* \"common/contracts/utils/Address.sol\":4029:4088  return functionCallWithValue(target, data, 0, errorMessage) */\n      swap1\n      pop\n        /* \"common/contracts/utils/Address.sol\":3872:4095  function functionCall(... */\n      swap4\n      swap3\n      pop\n      pop\n      pop\n      jump\t// out\n        /* \"common/contracts/utils/Address.sol\":4959:5405  function functionCallWithValue(... */\n    tag_166:\n        /* \"common/contracts/utils/Address.sol\":5124:5136  bytes memory */\n      0x60\n        /* \"common/contracts/utils/Address.sol\":5181:5186  value */\n      dup3\n        /* \"common/contracts/utils/Address.sol\":5156:5177  address(this).balance */\n      selfbalance\n        /* \"common/contracts/utils/Address.sol\":5156:5186  address(this).balance >= value */\n      lt\n      iszero\n        /* \"common/contracts/utils/Address.sol\":5148:5229  require(address(this).balance >= value, \"Address: insufficient balance for call\") */\n      tag_168\n      jumpi\n      mload(0x40)\n      0x08c379a000000000000000000000000000000000000000000000000000000000\n      dup2\n      mstore\n      0x04\n      add\n      tag_169\n      swap1\n      tag_170\n      jump\t// in\n    tag_169:\n      mload(0x40)\n      dup1\n      swap2\n      sub\n      swap1\n      revert\n    tag_168:\n        /* \"common/contracts/utils/Address.sol\":5240:5252  bool success */\n      0x00\n        /* \"common/contracts/utils/Address.sol\":5254:5277  bytes memory returndata */\n      dup1\n        /* \"common/contracts/utils/Address.sol\":5281:5287  target */\n      dup7\n        /* \"common/contracts/utils/Address.sol\":5281:5292  target.call */\n      0xffffffffffffffffffffffffffffffffffffffff\n      and\n        /* \"common/contracts/utils/Address.sol\":5300:5305  value */\n      dup6\n        /* \"common/contracts/utils/Address.sol\":5307:5311  data */\n      dup8\n        /* \"common/contracts/utils/Address.sol\":5281:5312  target.call{value: value}(data) */\n      mload(0x40)\n      tag_171\n      swap2\n      swap1\n      tag_172\n      jump\t// in\n    tag_171:\n      0x00\n      mload(0x40)\n      dup1\n      dup4\n      sub\n      dup2\n      dup6\n      dup8\n      gas\n      call\n      swap3\n      pop\n      pop\n      pop\n      returndatasize\n      dup1\n      0x00\n      dup2\n      eq\n      tag_175\n      jumpi\n      mload(0x40)\n      swap2\n      pop\n      and(add(returndatasize, 0x3f), not(0x1f))\n      dup3\n      add\n      0x40\n      mstore\n      returndatasize\n      dup3\n      mstore\n      returndatasize\n      0x00\n      0x20\n      dup5\n      add\n      returndatacopy\n      jump(tag_174)\n    tag_175:\n      0x60\n      swap2\n      pop\n    tag_174:\n      pop\n        /* \"common/contracts/utils/Address.sol\":5239:5312  (bool success, bytes memory returndata) = target.call{value: value}(data) */\n      swap2\n      pop\n      swap2\n      pop\n        /* \"common/contracts/utils/Address.sol\":5329:5398  verifyCallResultFromTarget(target, success, returndata, errorMessage) */\n      tag_176\n        /* \"common/contracts/utils/Address.sol\":5356:5362  target */\n      dup8\n        /* \"common/contracts/utils/Address.sol\":5364:5371  success */\n      dup4\n        /* \"common/contracts/utils/Address.sol\":5373:5383  returndata */\n      dup4\n        /* \"common/contracts/utils/Address.sol\":5385:5397  errorMessage */\n      dup8\n        /* \"common/contracts/utils/Address.sol\":5329:5355  verifyCallResultFromTarget */\n      tag_177\n        /* \"common/contracts/utils/Address.sol\":5329:5398  verifyCallResultFromTarget(target, success, returndata, errorMessage) */\n      jump\t// in\n    tag_176:\n        /* \"common/contracts/utils/Address.sol\":5322:5398  return verifyCallResultFromTarget(target, success, returndata, errorMessage) */\n      swap3\n      pop\n      pop\n      pop\n        /* \"common/contracts/utils/Address.sol\":4959:5405  function functionCallWithValue(... */\n      swap5\n      swap4\n      pop\n      pop\n      pop\n      pop\n      jump\t// out\n        /* \"common/contracts/utils/Address.sol\":7465:8093  function verifyCallResultFromTarget(... */\n    tag_177:\n        /* \"common/contracts/utils/Address.sol\":7645:7657  bytes memory */\n      0x60\n        /* \"common/contracts/utils/Address.sol\":7673:7680  success */\n      dup4\n        /* \"common/contracts/utils/Address.sol\":7669:8087  if (success) {... */\n      iszero\n      tag_179\n      jumpi\n        /* \"common/contracts/utils/Address.sol\":7721:7722  0 */\n      0x00\n        /* \"common/contracts/utils/Address.sol\":7700:7710  returndata */\n      dup4\n        /* \"common/contracts/utils/Address.sol\":7700:7717  returndata.length */\n      mload\n        /* \"common/contracts/utils/Address.sol\":7700:7722  returndata.length == 0 */\n      eq\n        /* \"common/contracts/utils/Address.sol\":7696:7982  if (returndata.length == 0) {... */\n      iszero\n      tag_180\n      jumpi\n        /* \"common/contracts/utils/Address.sol\":7915:7933  isContract(target) */\n      tag_181\n        /* \"common/contracts/utils/Address.sol\":7926:7932  target */\n      dup6\n        /* \"common/contracts/utils/Address.sol\":7915:7925  isContract */\n      tag_182\n        /* \"common/contracts/utils/Address.sol\":7915:7933  isContract(target) */\n      jump\t// in\n    tag_181:\n        /* \"common/contracts/utils/Address.sol\":7907:7967  require(isContract(target), \"Address: call to non-contract\") */\n      tag_183\n      jumpi\n      mload(0x40)\n      0x08c379a000000000000000000000000000000000000000000000000000000000\n      dup2\n      mstore\n      0x04\n      add\n      tag_184\n      swap1\n      tag_185\n      jump\t// in\n    tag_184:\n      mload(0x40)\n      dup1\n      swap2\n      sub\n      swap1\n      revert\n    tag_183:\n        /* \"common/contracts/utils/Address.sol\":7696:7982  if (returndata.length == 0) {... */\n    tag_180:\n        /* \"common/contracts/utils/Address.sol\":8002:8012  returndata */\n      dup3\n        /* \"common/contracts/utils/Address.sol\":7995:8012  return returndata */\n      swap1\n      pop\n      jump(tag_178)\n        /* \"common/contracts/utils/Address.sol\":7669:8087  if (success) {... */\n    tag_179:\n        /* \"common/contracts/utils/Address.sol\":8043:8076  _revert(returndata, errorMessage) */\n      tag_187\n        /* \"common/contracts/utils/Address.sol\":8051:8061  returndata */\n      dup4\n        /* \"common/contracts/utils/Address.sol\":8063:8075  errorMessage */\n      dup4\n        /* \"common/contracts/utils/Address.sol\":8043:8050  _revert */\n      tag_188\n        /* \"common/contracts/utils/Address.sol\":8043:8076  _revert(returndata, errorMessage) */\n      jump\t// in\n    tag_187:\n        /* \"common/contracts/utils/Address.sol\":7465:8093  function verifyCallResultFromTarget(... */\n    tag_178:\n      swap5\n      swap4\n      pop\n      pop\n      pop\n      pop\n      jump\t// out\n        /* \"common/contracts/utils/Address.sol\":1175:1495  function isContract(address account) internal view returns (bool) {... */\n    tag_182:\n        /* \"common/contracts/utils/Address.sol\":1235:1239  bool */\n      0x00\n        /* \"common/contracts/utils/Address.sol\":1487:1488  0 */\n      dup1\n        /* \"common/contracts/utils/Address.sol\":1465:1472  account */\n      dup3\n        /* \"common/contracts/utils/Address.sol\":1465:1484  account.code.length */\n      0xffffffffffffffffffffffffffffffffffffffff\n      and\n      extcodesize\n        /* \"common/contracts/utils/Address.sol\":1465:1488  account.code.length > 0 */\n      gt\n        /* \"common/contracts/utils/Address.sol\":1458:1488  return account.code.length > 0 */\n      swap1\n      pop\n        /* \"common/contracts/utils/Address.sol\":1175:1495  function isContract(address account) internal view returns (bool) {... */\n      swap2\n      swap1\n      pop\n      jump\t// out\n        /* \"common/contracts/utils/Address.sol\":8615:9155  function _revert(bytes memory returndata, string memory errorMessage) private pure {... */\n    tag_188:\n        /* \"common/contracts/utils/Address.sol\":8794:8795  0 */\n      0x00\n        /* \"common/contracts/utils/Address.sol\":8774:8784  returndata */\n      dup3\n        /* \"common/contracts/utils/Address.sol\":8774:8791  returndata.length */\n      mload\n        /* \"common/contracts/utils/Address.sol\":8774:8795  returndata.length > 0 */\n      gt\n        /* \"common/contracts/utils/Address.sol\":8770:9149  if (returndata.length > 0) {... */\n      iszero\n      tag_191\n      jumpi\n        /* \"common/contracts/utils/Address.sol\":9002:9012  returndata */\n      dup2\n        /* \"common/contracts/utils/Address.sol\":8996:9013  mload(returndata) */\n      mload\n        /* \"common/contracts/utils/Address.sol\":9058:9073  returndata_size */\n      dup1\n        /* \"common/contracts/utils/Address.sol\":9045:9055  returndata */\n      dup4\n        /* \"common/contracts/utils/Address.sol\":9041:9043  32 */\n      0x20\n        /* \"common/contracts/utils/Address.sol\":9037:9056  add(32, returndata) */\n      add\n        /* \"common/contracts/utils/Address.sol\":9030:9074  revert(add(32, returndata), returndata_size) */\n      revert\n        /* \"common/contracts/utils/Address.sol\":8770:9149  if (returndata.length > 0) {... */\n    tag_191:\n        /* \"common/contracts/utils/Address.sol\":9125:9137  errorMessage */\n      dup1\n        /* \"common/contracts/utils/Address.sol\":9118:9138  revert(errorMessage) */\n      mload(0x40)\n      0x08c379a000000000000000000000000000000000000000000000000000000000\n      dup2\n      mstore\n      0x04\n      add\n      tag_193\n      swap2\n      swap1\n      tag_194\n      jump\t// in\n    tag_193:\n      mload(0x40)\n      dup1\n      swap2\n      sub\n      swap1\n      revert\n        /* \"#utility.yul\":7:146   */\n    tag_196:\n        /* \"#utility.yul\":53:58   */\n      0x00\n        /* \"#utility.yul\":91:97   */\n      dup2\n        /* \"#utility.yul\":78:98   */\n      calldataload\n        /* \"#utility.yul\":69:98   */\n      swap1\n      pop\n        /* \"#utility.yul\":107:140   */\n      tag_198\n        /* \"#utility.yul\":134:139   */\n      dup2\n        /* \"#utility.yul\":107:140   */\n      tag_199\n      jump\t// in\n    tag_198:\n        /* \"#utility.yul\":7:146   */\n      swap3\n      swap2\n      pop\n      pop\n      jump\t// out\n        /* \"#utility.yul\":152:307   */\n    tag_200:\n        /* \"#utility.yul\":206:211   */\n      0x00\n        /* \"#utility.yul\":244:250   */\n      dup2\n        /* \"#utility.yul\":231:251   */\n      calldataload\n        /* \"#utility.yul\":222:251   */\n      swap1\n      pop\n        /* \"#utility.yul\":260:301   */\n      tag_202\n        /* \"#utility.yul\":295:300   */\n      dup2\n        /* \"#utility.yul\":260:301   */\n      tag_203\n      jump\t// in\n    tag_202:\n        /* \"#utility.yul\":152:307   */\n      swap3\n      swap2\n      pop\n      pop\n      jump\t// out\n        /* \"#utility.yul\":313:450   */\n    tag_204:\n        /* \"#utility.yul\":367:372   */\n      0x00\n        /* \"#utility.yul\":398:404   */\n      dup2\n        /* \"#utility.yul\":392:405   */\n      mload\n        /* \"#utility.yul\":383:405   */\n      swap1\n      pop\n        /* \"#utility.yul\":414:444   */\n      tag_206\n        /* \"#utility.yul\":438:443   */\n      dup2\n        /* \"#utility.yul\":414:444   */\n      tag_207\n      jump\t// in\n    tag_206:\n        /* \"#utility.yul\":313:450   */\n      swap3\n      swap2\n      pop\n      pop\n      jump\t// out\n        /* \"#utility.yul\":456:623   */\n    tag_208:\n        /* \"#utility.yul\":516:521   */\n      0x00\n        /* \"#utility.yul\":554:560   */\n      dup2\n        /* \"#utility.yul\":541:561   */\n      calldataload\n        /* \"#utility.yul\":532:561   */\n      swap1\n      pop\n        /* \"#utility.yul\":570:617   */\n      tag_210\n        /* \"#utility.yul\":611:616   */\n      dup2\n        /* \"#utility.yul\":570:617   */\n      tag_211\n      jump\t// in\n    tag_210:\n        /* \"#utility.yul\":456:623   */\n      swap3\n      swap2\n      pop\n      pop\n      jump\t// out\n        /* \"#utility.yul\":629:768   */\n    tag_212:\n        /* \"#utility.yul\":675:680   */\n      0x00\n        /* \"#utility.yul\":713:719   */\n      dup2\n        /* \"#utility.yul\":700:720   */\n      calldataload\n        /* \"#utility.yul\":691:720   */\n      swap1\n      pop\n        /* \"#utility.yul\":729:762   */\n      tag_214\n        /* \"#utility.yul\":756:761   */\n      dup2\n        /* \"#utility.yul\":729:762   */\n      tag_215\n      jump\t// in\n    tag_214:\n        /* \"#utility.yul\":629:768   */\n      swap3\n      swap2\n      pop\n      pop\n      jump\t// out\n        /* \"#utility.yul\":774:917   */\n    tag_216:\n        /* \"#utility.yul\":831:836   */\n      0x00\n        /* \"#utility.yul\":862:868   */\n      dup2\n        /* \"#utility.yul\":856:869   */\n      mload\n        /* \"#utility.yul\":847:869   */\n      swap1\n      pop\n        /* \"#utility.yul\":878:911   */\n      tag_218\n        /* \"#utility.yul\":905:910   */\n      dup2\n        /* \"#utility.yul\":878:911   */\n      tag_215\n      jump\t// in\n    tag_218:\n        /* \"#utility.yul\":774:917   */\n      swap3\n      swap2\n      pop\n      pop\n      jump\t// out\n        /* \"#utility.yul\":923:1252   */\n    tag_51:\n        /* \"#utility.yul\":982:988   */\n      0x00\n        /* \"#utility.yul\":1031:1033   */\n      0x20\n        /* \"#utility.yul\":1019:1028   */\n      dup3\n        /* \"#utility.yul\":1010:1017   */\n      dup5\n        /* \"#utility.yul\":1006:1029   */\n      sub\n        /* \"#utility.yul\":1002:1034   */\n      slt\n        /* \"#utility.yul\":999:1118   */\n      iszero\n      tag_220\n      jumpi\n        /* \"#utility.yul\":1037:1116   */\n      tag_221\n      tag_222\n      jump\t// in\n    tag_221:\n        /* \"#utility.yul\":999:1118   */\n    tag_220:\n        /* \"#utility.yul\":1157:1158   */\n      0x00\n        /* \"#utility.yul\":1182:1235   */\n      tag_223\n        /* \"#utility.yul\":1227:1234   */\n      dup5\n        /* \"#utility.yul\":1218:1224   */\n      dup3\n        /* \"#utility.yul\":1207:1216   */\n      dup6\n        /* \"#utility.yul\":1203:1225   */\n      add\n        /* \"#utility.yul\":1182:1235   */\n      tag_196\n      jump\t// in\n    tag_223:\n        /* \"#utility.yul\":1172:1235   */\n      swap2\n      pop\n        /* \"#utility.yul\":1128:1245   */\n      pop\n        /* \"#utility.yul\":923:1252   */\n      swap3\n      swap2\n      pop\n      pop\n      jump\t// out\n        /* \"#utility.yul\":1258:1603   */\n    tag_24:\n        /* \"#utility.yul\":1325:1331   */\n      0x00\n        /* \"#utility.yul\":1374:1376   */\n      0x20\n        /* \"#utility.yul\":1362:1371   */\n      dup3\n        /* \"#utility.yul\":1353:1360   */\n      dup5\n        /* \"#utility.yul\":1349:1372   */\n      sub\n        /* \"#utility.yul\":1345:1377   */\n      slt\n        /* \"#utility.yul\":1342:1461   */\n      iszero\n      tag_225\n      jumpi\n        /* \"#utility.yul\":1380:1459   */\n      tag_226\n      tag_222\n      jump\t// in\n    tag_226:\n        /* \"#utility.yul\":1342:1461   */\n    tag_225:\n        /* \"#utility.yul\":1500:1501   */\n      0x00\n        /* \"#utility.yul\":1525:1586   */\n      tag_227\n        /* \"#utility.yul\":1578:1585   */\n      dup5\n        /* \"#utility.yul\":1569:1575   */\n      dup3\n        /* \"#utility.yul\":1558:1567   */\n      dup6\n        /* \"#utility.yul\":1554:1576   */\n      add\n        /* \"#utility.yul\":1525:1586   */\n      tag_200\n      jump\t// in\n    tag_227:\n        /* \"#utility.yul\":1515:1586   */\n      swap2\n      pop\n        /* \"#utility.yul\":1471:1596   */\n      pop\n        /* \"#utility.yul\":1258:1603   */\n      swap3\n      swap2\n      pop\n      pop\n      jump\t// out\n        /* \"#utility.yul\":1609:1954   */\n    tag_160:\n        /* \"#utility.yul\":1676:1682   */\n      0x00\n        /* \"#utility.yul\":1725:1727   */\n      0x20\n        /* \"#utility.yul\":1713:1722   */\n      dup3\n        /* \"#utility.yul\":1704:1711   */\n      dup5\n        /* \"#utility.yul\":1700:1723   */\n      sub\n        /* \"#utility.yul\":1696:1728   */\n      slt\n        /* \"#utility.yul\":1693:1812   */\n      iszero\n      tag_229\n      jumpi\n        /* \"#utility.yul\":1731:1810   */\n      tag_230\n      tag_222\n      jump\t// in\n    tag_230:\n        /* \"#utility.yul\":1693:1812   */\n    tag_229:\n        /* \"#utility.yul\":1851:1852   */\n      0x00\n        /* \"#utility.yul\":1876:1937   */\n      tag_231\n        /* \"#utility.yul\":1929:1936   */\n      dup5\n        /* \"#utility.yul\":1920:1926   */\n      dup3\n        /* \"#utility.yul\":1909:1918   */\n      dup6\n        /* \"#utility.yul\":1905:1927   */\n      add\n        /* \"#utility.yul\":1876:1937   */\n      tag_204\n      jump\t// in\n    tag_231:\n        /* \"#utility.yul\":1866:1937   */\n      swap2\n      pop\n        /* \"#utility.yul\":1822:1947   */\n      pop\n        /* \"#utility.yul\":1609:1954   */\n      swap3\n      swap2\n      pop\n      pop\n      jump\t// out\n        /* \"#utility.yul\":1960:2317   */\n    tag_72:\n        /* \"#utility.yul\":2033:2039   */\n      0x00\n        /* \"#utility.yul\":2082:2084   */\n      0x20\n        /* \"#utility.yul\":2070:2079   */\n      dup3\n        /* \"#utility.yul\":2061:2068   */\n      dup5\n        /* \"#utility.yul\":2057:2080   */\n      sub\n        /* \"#utility.yul\":2053:2085   */\n      slt\n        /* \"#utility.yul\":2050:2169   */\n      iszero\n      tag_233\n      jumpi\n        /* \"#utility.yul\":2088:2167   */\n      tag_234\n      tag_222\n      jump\t// in\n    tag_234:\n        /* \"#utility.yul\":2050:2169   */\n    tag_233:\n        /* \"#utility.yul\":2208:2209   */\n      0x00\n        /* \"#utility.yul\":2233:2300   */\n      tag_235\n        /* \"#utility.yul\":2292:2299   */\n      dup5\n        /* \"#utility.yul\":2283:2289   */\n      dup3\n        /* \"#utility.yul\":2272:2281   */\n      dup6\n        /* \"#utility.yul\":2268:2290   */\n      add\n        /* \"#utility.yul\":2233:2300   */\n      tag_208\n      jump\t// in\n    tag_235:\n        /* \"#utility.yul\":2223:2300   */\n      swap2\n      pop\n        /* \"#utility.yul\":2179:2310   */\n      pop\n        /* \"#utility.yul\":1960:2317   */\n      swap3\n      swap2\n      pop\n      pop\n      jump\t// out\n        /* \"#utility.yul\":2323:2825   */\n    tag_34:\n        /* \"#utility.yul\":2405:2411   */\n      0x00\n        /* \"#utility.yul\":2413:2419   */\n      dup1\n        /* \"#utility.yul\":2462:2464   */\n      0x40\n        /* \"#utility.yul\":2450:2459   */\n      dup4\n        /* \"#utility.yul\":2441:2448   */\n      dup6\n        /* \"#utility.yul\":2437:2460   */\n      sub\n        /* \"#utility.yul\":2433:2465   */\n      slt\n        /* \"#utility.yul\":2430:2549   */\n      iszero\n      tag_237\n      jumpi\n        /* \"#utility.yul\":2468:2547   */\n      tag_238\n      tag_222\n      jump\t// in\n    tag_238:\n        /* \"#utility.yul\":2430:2549   */\n    tag_237:\n        /* \"#utility.yul\":2588:2589   */\n      0x00\n        /* \"#utility.yul\":2613:2680   */\n      tag_239\n        /* \"#utility.yul\":2672:2679   */\n      dup6\n        /* \"#utility.yul\":2663:2669   */\n      dup3\n        /* \"#utility.yul\":2652:2661   */\n      dup7\n        /* \"#utility.yul\":2648:2670   */\n      add\n        /* \"#utility.yul\":2613:2680   */\n      tag_208\n      jump\t// in\n    tag_239:\n        /* \"#utility.yul\":2603:2680   */\n      swap3\n      pop\n        /* \"#utility.yul\":2559:2690   */\n      pop\n        /* \"#utility.yul\":2729:2731   */\n      0x20\n        /* \"#utility.yul\":2755:2808   */\n      tag_240\n        /* \"#utility.yul\":2800:2807   */\n      dup6\n        /* \"#utility.yul\":2791:2797   */\n      dup3\n        /* \"#utility.yul\":2780:2789   */\n      dup7\n        /* \"#utility.yul\":2776:2798   */\n      add\n        /* \"#utility.yul\":2755:2808   */\n      tag_196\n      jump\t// in\n    tag_240:\n        /* \"#utility.yul\":2745:2808   */\n      swap2\n      pop\n        /* \"#utility.yul\":2700:2818   */\n      pop\n        /* \"#utility.yul\":2323:2825   */\n      swap3\n      pop\n      swap3\n      swap1\n      pop\n      jump\t// out\n        /* \"#utility.yul\":2831:3160   */\n    tag_44:\n        /* \"#utility.yul\":2890:2896   */\n      0x00\n        /* \"#utility.yul\":2939:2941   */\n      0x20\n        /* \"#utility.yul\":2927:2936   */\n      dup3\n        /* \"#utility.yul\":2918:2925   */\n      dup5\n        /* \"#utility.yul\":2914:2937   */\n      sub\n        /* \"#utility.yul\":2910:2942   */\n      slt\n        /* \"#utility.yul\":2907:3026   */\n      iszero\n      tag_242\n      jumpi\n        /* \"#utility.yul\":2945:3024   */\n      tag_243\n      tag_222\n      jump\t// in\n    tag_243:\n        /* \"#utility.yul\":2907:3026   */\n    tag_242:\n        /* \"#utility.yul\":3065:3066   */\n      0x00\n        /* \"#utility.yul\":3090:3143   */\n      tag_244\n        /* \"#utility.yul\":3135:3142   */\n      dup5\n        /* \"#utility.yul\":3126:3132   */\n      dup3\n        /* \"#utility.yul\":3115:3124   */\n      dup6\n        /* \"#utility.yul\":3111:3133   */\n      add\n        /* \"#utility.yul\":3090:3143   */\n      tag_212\n      jump\t// in\n    tag_244:\n        /* \"#utility.yul\":3080:3143   */\n      swap2\n      pop\n        /* \"#utility.yul\":3036:3153   */\n      pop\n        /* \"#utility.yul\":2831:3160   */\n      swap3\n      swap2\n      pop\n      pop\n      jump\t// out\n        /* \"#utility.yul\":3166:3517   */\n    tag_125:\n        /* \"#utility.yul\":3236:3242   */\n      0x00\n        /* \"#utility.yul\":3285:3287   */\n      0x20\n        /* \"#utility.yul\":3273:3282   */\n      dup3\n        /* \"#utility.yul\":3264:3271   */\n      dup5\n        /* \"#utility.yul\":3260:3283   */\n      sub\n        /* \"#utility.yul\":3256:3288   */\n      slt\n        /* \"#utility.yul\":3253:3372   */\n      iszero\n      tag_246\n      jumpi\n        /* \"#utility.yul\":3291:3370   */\n      tag_247\n      tag_222\n      jump\t// in\n    tag_247:\n        /* \"#utility.yul\":3253:3372   */\n    tag_246:\n        /* \"#utility.yul\":3411:3412   */\n      0x00\n        /* \"#utility.yul\":3436:3500   */\n      tag_248\n        /* \"#utility.yul\":3492:3499   */\n      dup5\n        /* \"#utility.yul\":3483:3489   */\n      dup3\n        /* \"#utility.yul\":3472:3481   */\n      dup6\n        /* \"#utility.yul\":3468:3490   */\n      add\n        /* \"#utility.yul\":3436:3500   */\n      tag_216\n      jump\t// in\n    tag_248:\n        /* \"#utility.yul\":3426:3500   */\n      swap2\n      pop\n        /* \"#utility.yul\":3382:3510   */\n      pop\n        /* \"#utility.yul\":3166:3517   */\n      swap3\n      swap2\n      pop\n      pop\n      jump\t// out\n        /* \"#utility.yul\":3523:3670   */\n    tag_249:\n        /* \"#utility.yul\":3618:3663   */\n      tag_251\n        /* \"#utility.yul\":3657:3662   */\n      dup2\n        /* \"#utility.yul\":3618:3663   */\n      tag_252\n      jump\t// in\n    tag_251:\n        /* \"#utility.yul\":3613:3616   */\n      dup3\n        /* \"#utility.yul\":3606:3664   */\n      mstore\n        /* \"#utility.yul\":3523:3670   */\n      pop\n      pop\n      jump\t// out\n        /* \"#utility.yul\":3676:3794   */\n    tag_253:\n        /* \"#utility.yul\":3763:3787   */\n      tag_255\n        /* \"#utility.yul\":3781:3786   */\n      dup2\n        /* \"#utility.yul\":3763:3787   */\n      tag_256\n      jump\t// in\n    tag_255:\n        /* \"#utility.yul\":3758:3761   */\n      dup3\n        /* \"#utility.yul\":3751:3788   */\n      mstore\n        /* \"#utility.yul\":3676:3794   */\n      pop\n      pop\n      jump\t// out\n        /* \"#utility.yul\":3800:4173   */\n    tag_257:\n        /* \"#utility.yul\":3904:3907   */\n      0x00\n        /* \"#utility.yul\":3932:3970   */\n      tag_259\n        /* \"#utility.yul\":3964:3969   */\n      dup3\n        /* \"#utility.yul\":3932:3970   */\n      tag_260\n      jump\t// in\n    tag_259:\n        /* \"#utility.yul\":3986:4074   */\n      tag_261\n        /* \"#utility.yul\":4067:4073   */\n      dup2\n        /* \"#utility.yul\":4062:4065   */\n      dup6\n        /* \"#utility.yul\":3986:4074   */\n      tag_262\n      jump\t// in\n    tag_261:\n        /* \"#utility.yul\":3979:4074   */\n      swap4\n      pop\n        /* \"#utility.yul\":4083:4135   */\n      tag_263\n        /* \"#utility.yul\":4128:4134   */\n      dup2\n        /* \"#utility.yul\":4123:4126   */\n      dup6\n        /* \"#utility.yul\":4116:4120   */\n      0x20\n        /* \"#utility.yul\":4109:4114   */\n      dup7\n        /* \"#utility.yul\":4105:4121   */\n      add\n        /* \"#utility.yul\":4083:4135   */\n      tag_264\n      jump\t// in\n    tag_263:\n        /* \"#utility.yul\":4160:4166   */\n      dup1\n        /* \"#utility.yul\":4155:4158   */\n      dup5\n        /* \"#utility.yul\":4151:4167   */\n      add\n        /* \"#utility.yul\":4144:4167   */\n      swap2\n      pop\n        /* \"#utility.yul\":3908:4173   */\n      pop\n        /* \"#utility.yul\":3800:4173   */\n      swap3\n      swap2\n      pop\n      pop\n      jump\t// out\n        /* \"#utility.yul\":4179:4543   */\n    tag_265:\n        /* \"#utility.yul\":4267:4270   */\n      0x00\n        /* \"#utility.yul\":4295:4334   */\n      tag_267\n        /* \"#utility.yul\":4328:4333   */\n      dup3\n        /* \"#utility.yul\":4295:4334   */\n      tag_268\n      jump\t// in\n    tag_267:\n        /* \"#utility.yul\":4350:4421   */\n      tag_269\n        /* \"#utility.yul\":4414:4420   */\n      dup2\n        /* \"#utility.yul\":4409:4412   */\n      dup6\n        /* \"#utility.yul\":4350:4421   */\n      tag_270\n      jump\t// in\n    tag_269:\n        /* \"#utility.yul\":4343:4421   */\n      swap4\n      pop\n        /* \"#utility.yul\":4430:4482   */\n      tag_271\n        /* \"#utility.yul\":4475:4481   */\n      dup2\n        /* \"#utility.yul\":4470:4473   */\n      dup6\n        /* \"#utility.yul\":4463:4467   */\n      0x20\n        /* \"#utility.yul\":4456:4461   */\n      dup7\n        /* \"#utility.yul\":4452:4468   */\n      add\n        /* \"#utility.yul\":4430:4482   */\n      tag_264\n      jump\t// in\n    tag_271:\n        /* \"#utility.yul\":4507:4536   */\n      tag_272\n        /* \"#utility.yul\":4529:4535   */\n      dup2\n        /* \"#utility.yul\":4507:4536   */\n      tag_273\n      jump\t// in\n    tag_272:\n        /* \"#utility.yul\":4502:4505   */\n      dup5\n        /* \"#utility.yul\":4498:4537   */\n      add\n        /* \"#utility.yul\":4491:4537   */\n      swap2\n      pop\n        /* \"#utility.yul\":4271:4543   */\n      pop\n        /* \"#utility.yul\":4179:4543   */\n      swap3\n      swap2\n      pop\n      pop\n      jump\t// out\n        /* \"#utility.yul\":4549:4915   */\n    tag_274:\n        /* \"#utility.yul\":4691:4694   */\n      0x00\n        /* \"#utility.yul\":4712:4779   */\n      tag_276\n        /* \"#utility.yul\":4776:4778   */\n      0x26\n        /* \"#utility.yul\":4771:4774   */\n      dup4\n        /* \"#utility.yul\":4712:4779   */\n      tag_270\n      jump\t// in\n    tag_276:\n        /* \"#utility.yul\":4705:4779   */\n      swap2\n      pop\n        /* \"#utility.yul\":4788:4881   */\n      tag_277\n        /* \"#utility.yul\":4877:4880   */\n      dup3\n        /* \"#utility.yul\":4788:4881   */\n      tag_278\n      jump\t// in\n    tag_277:\n        /* \"#utility.yul\":4906:4908   */\n      0x40\n        /* \"#utility.yul\":4901:4904   */\n      dup3\n        /* \"#utility.yul\":4897:4909   */\n      add\n        /* \"#utility.yul\":4890:4909   */\n      swap1\n      pop\n        /* \"#utility.yul\":4549:4915   */\n      swap2\n      swap1\n      pop\n      jump\t// out\n        /* \"#utility.yul\":4921:5287   */\n    tag_279:\n        /* \"#utility.yul\":5063:5066   */\n      0x00\n        /* \"#utility.yul\":5084:5151   */\n      tag_281\n        /* \"#utility.yul\":5148:5150   */\n      0x3a\n        /* \"#utility.yul\":5143:5146   */\n      dup4\n        /* \"#utility.yul\":5084:5151   */\n      tag_270\n      jump\t// in\n    tag_281:\n        /* \"#utility.yul\":5077:5151   */\n      swap2\n      pop\n        /* \"#utility.yul\":5160:5253   */\n      tag_282\n        /* \"#utility.yul\":5249:5252   */\n      dup3\n        /* \"#utility.yul\":5160:5253   */\n      tag_283\n      jump\t// in\n    tag_282:\n        /* \"#utility.yul\":5278:5280   */\n      0x40\n        /* \"#utility.yul\":5273:5276   */\n      dup3\n        /* \"#utility.yul\":5269:5281   */\n      add\n        /* \"#utility.yul\":5262:5281   */\n      swap1\n      pop\n        /* \"#utility.yul\":4921:5287   */\n      swap2\n      swap1\n      pop\n      jump\t// out\n        /* \"#utility.yul\":5293:5659   */\n    tag_284:\n        /* \"#utility.yul\":5435:5438   */\n      0x00\n        /* \"#utility.yul\":5456:5523   */\n      tag_286\n        /* \"#utility.yul\":5520:5522   */\n      0x1d\n        /* \"#utility.yul\":5515:5518   */\n      dup4\n        /* \"#utility.yul\":5456:5523   */\n      tag_270\n      jump\t// in\n    tag_286:\n        /* \"#utility.yul\":5449:5523   */\n      swap2\n      pop\n        /* \"#utility.yul\":5532:5625   */\n      tag_287\n        /* \"#utility.yul\":5621:5624   */\n      dup3\n        /* \"#utility.yul\":5532:5625   */\n      tag_288\n      jump\t// in\n    tag_287:\n        /* \"#utility.yul\":5650:5652   */\n      0x20\n        /* \"#utility.yul\":5645:5648   */\n      dup3\n        /* \"#utility.yul\":5641:5653   */\n      add\n        /* \"#utility.yul\":5634:5653   */\n      swap1\n      pop\n        /* \"#utility.yul\":5293:5659   */\n      swap2\n      swap1\n      pop\n      jump\t// out\n        /* \"#utility.yul\":5665:6031   */\n    tag_289:\n        /* \"#utility.yul\":5807:5810   */\n      0x00\n        /* \"#utility.yul\":5828:5895   */\n      tag_291\n        /* \"#utility.yul\":5892:5894   */\n      0x26\n        /* \"#utility.yul\":5887:5890   */\n      dup4\n        /* \"#utility.yul\":5828:5895   */\n      tag_270\n      jump\t// in\n    tag_291:\n        /* \"#utility.yul\":5821:5895   */\n      swap2\n      pop\n        /* \"#utility.yul\":5904:5997   */\n      tag_292\n        /* \"#utility.yul\":5993:5996   */\n      dup3\n        /* \"#utility.yul\":5904:5997   */\n      tag_293\n      jump\t// in\n    tag_292:\n        /* \"#utility.yul\":6022:6024   */\n      0x40\n        /* \"#utility.yul\":6017:6020   */\n      dup3\n        /* \"#utility.yul\":6013:6025   */\n      add\n        /* \"#utility.yul\":6006:6025   */\n      swap1\n      pop\n        /* \"#utility.yul\":5665:6031   */\n      swap2\n      swap1\n      pop\n      jump\t// out\n        /* \"#utility.yul\":6037:6403   */\n    tag_294:\n        /* \"#utility.yul\":6179:6182   */\n      0x00\n        /* \"#utility.yul\":6200:6267   */\n      tag_296\n        /* \"#utility.yul\":6264:6266   */\n      0x2b\n        /* \"#utility.yul\":6259:6262   */\n      dup4\n        /* \"#utility.yul\":6200:6267   */\n      tag_270\n      jump\t// in\n    tag_296:\n        /* \"#utility.yul\":6193:6267   */\n      swap2\n      pop\n        /* \"#utility.yul\":6276:6369   */\n      tag_297\n        /* \"#utility.yul\":6365:6368   */\n      dup3\n        /* \"#utility.yul\":6276:6369   */\n      tag_298\n      jump\t// in\n    tag_297:\n        /* \"#utility.yul\":6394:6396   */\n      0x40\n        /* \"#utility.yul\":6389:6392   */\n      dup3\n        /* \"#utility.yul\":6385:6397   */\n      add\n        /* \"#utility.yul\":6378:6397   */\n      swap1\n      pop\n        /* \"#utility.yul\":6037:6403   */\n      swap2\n      swap1\n      pop\n      jump\t// out\n        /* \"#utility.yul\":6409:6807   */\n    tag_299:\n        /* \"#utility.yul\":6568:6571   */\n      0x00\n        /* \"#utility.yul\":6589:6672   */\n      tag_301\n        /* \"#utility.yul\":6670:6671   */\n      0x00\n        /* \"#utility.yul\":6665:6668   */\n      dup4\n        /* \"#utility.yul\":6589:6672   */\n      tag_262\n      jump\t// in\n    tag_301:\n        /* \"#utility.yul\":6582:6672   */\n      swap2\n      pop\n        /* \"#utility.yul\":6681:6774   */\n      tag_302\n        /* \"#utility.yul\":6770:6773   */\n      dup3\n        /* \"#utility.yul\":6681:6774   */\n      tag_303\n      jump\t// in\n    tag_302:\n        /* \"#utility.yul\":6799:6800   */\n      0x00\n        /* \"#utility.yul\":6794:6797   */\n      dup3\n        /* \"#utility.yul\":6790:6801   */\n      add\n        /* \"#utility.yul\":6783:6801   */\n      swap1\n      pop\n        /* \"#utility.yul\":6409:6807   */\n      swap2\n      swap1\n      pop\n      jump\t// out\n        /* \"#utility.yul\":6813:7179   */\n    tag_304:\n        /* \"#utility.yul\":6955:6958   */\n      0x00\n        /* \"#utility.yul\":6976:7043   */\n      tag_306\n        /* \"#utility.yul\":7040:7042   */\n      0x1d\n        /* \"#utility.yul\":7035:7038   */\n      dup4\n        /* \"#utility.yul\":6976:7043   */\n      tag_270\n      jump\t// in\n    tag_306:\n        /* \"#utility.yul\":6969:7043   */\n      swap2\n      pop\n        /* \"#utility.yul\":7052:7145   */\n      tag_307\n        /* \"#utility.yul\":7141:7144   */\n      dup3\n        /* \"#utility.yul\":7052:7145   */\n      tag_308\n      jump\t// in\n    tag_307:\n        /* \"#utility.yul\":7170:7172   */\n      0x20\n        /* \"#utility.yul\":7165:7168   */\n      dup3\n        /* \"#utility.yul\":7161:7173   */\n      add\n        /* \"#utility.yul\":7154:7173   */\n      swap1\n      pop\n        /* \"#utility.yul\":6813:7179   */\n      swap2\n      swap1\n      pop\n      jump\t// out\n        /* \"#utility.yul\":7185:7551   */\n    tag_309:\n        /* \"#utility.yul\":7327:7330   */\n      0x00\n        /* \"#utility.yul\":7348:7415   */\n      tag_311\n        /* \"#utility.yul\":7412:7414   */\n      0x2a\n        /* \"#utility.yul\":7407:7410   */\n      dup4\n        /* \"#utility.yul\":7348:7415   */\n      tag_270\n      jump\t// in\n    tag_311:\n        /* \"#utility.yul\":7341:7415   */\n      swap2\n      pop\n        /* \"#utility.yul\":7424:7517   */\n      tag_312\n        /* \"#utility.yul\":7513:7516   */\n      dup3\n        /* \"#utility.yul\":7424:7517   */\n      tag_313\n      jump\t// in\n    tag_312:\n        /* \"#utility.yul\":7542:7544   */\n      0x40\n        /* \"#utility.yul\":7537:7540   */\n      dup3\n        /* \"#utility.yul\":7533:7545   */\n      add\n        /* \"#utility.yul\":7526:7545   */\n      swap1\n      pop\n        /* \"#utility.yul\":7185:7551   */\n      swap2\n      swap1\n      pop\n      jump\t// out\n        /* \"#utility.yul\":7557:7675   */\n    tag_314:\n        /* \"#utility.yul\":7644:7668   */\n      tag_316\n        /* \"#utility.yul\":7662:7667   */\n      dup2\n        /* \"#utility.yul\":7644:7668   */\n      tag_317\n      jump\t// in\n    tag_316:\n        /* \"#utility.yul\":7639:7642   */\n      dup3\n        /* \"#utility.yul\":7632:7669   */\n      mstore\n        /* \"#utility.yul\":7557:7675   */\n      pop\n      pop\n      jump\t// out\n        /* \"#utility.yul\":7681:7952   */\n    tag_172:\n        /* \"#utility.yul\":7811:7814   */\n      0x00\n        /* \"#utility.yul\":7833:7926   */\n      tag_319\n        /* \"#utility.yul\":7922:7925   */\n      dup3\n        /* \"#utility.yul\":7913:7919   */\n      dup5\n        /* \"#utility.yul\":7833:7926   */\n      tag_257\n      jump\t// in\n    tag_319:\n        /* \"#utility.yul\":7826:7926   */\n      swap2\n      pop\n        /* \"#utility.yul\":7943:7946   */\n      dup2\n        /* \"#utility.yul\":7936:7946   */\n      swap1\n      pop\n        /* \"#utility.yul\":7681:7952   */\n      swap3\n      swap2\n      pop\n      pop\n      jump\t// out\n        /* \"#utility.yul\":7958:8337   */\n    tag_137:\n        /* \"#utility.yul\":8142:8145   */\n      0x00\n        /* \"#utility.yul\":8164:8311   */\n      tag_321\n        /* \"#utility.yul\":8307:8310   */\n      dup3\n        /* \"#utility.yul\":8164:8311   */\n      tag_299\n      jump\t// in\n    tag_321:\n        /* \"#utility.yul\":8157:8311   */\n      swap2\n      pop\n        /* \"#utility.yul\":8328:8331   */\n      dup2\n        /* \"#utility.yul\":8321:8331   */\n      swap1\n      pop\n        /* \"#utility.yul\":7958:8337   */\n      swap2\n      swap1\n      pop\n      jump\t// out\n        /* \"#utility.yul\":8343:8565   */\n    tag_47:\n        /* \"#utility.yul\":8436:8440   */\n      0x00\n        /* \"#utility.yul\":8474:8476   */\n      0x20\n        /* \"#utility.yul\":8463:8472   */\n      dup3\n        /* \"#utility.yul\":8459:8477   */\n      add\n        /* \"#utility.yul\":8451:8477   */\n      swap1\n      pop\n        /* \"#utility.yul\":8487:8558   */\n      tag_323\n        /* \"#utility.yul\":8555:8556   */\n      0x00\n        /* \"#utility.yul\":8544:8553   */\n      dup4\n        /* \"#utility.yul\":8540:8557   */\n      add\n        /* \"#utility.yul\":8531:8537   */\n      dup5\n        /* \"#utility.yul\":8487:8558   */\n      tag_253\n      jump\t// in\n    tag_323:\n        /* \"#utility.yul\":8343:8565   */\n      swap3\n      swap2\n      pop\n      pop\n      jump\t// out\n        /* \"#utility.yul\":8571:8919   */\n    tag_93:\n        /* \"#utility.yul\":8700:8704   */\n      0x00\n        /* \"#utility.yul\":8738:8740   */\n      0x40\n        /* \"#utility.yul\":8727:8736   */\n      dup3\n        /* \"#utility.yul\":8723:8741   */\n      add\n        /* \"#utility.yul\":8715:8741   */\n      swap1\n      pop\n        /* \"#utility.yul\":8751:8830   */\n      tag_325\n        /* \"#utility.yul\":8827:8828   */\n      0x00\n        /* \"#utility.yul\":8816:8825   */\n      dup4\n        /* \"#utility.yul\":8812:8829   */\n      add\n        /* \"#utility.yul\":8803:8809   */\n      dup6\n        /* \"#utility.yul\":8751:8830   */\n      tag_249\n      jump\t// in\n    tag_325:\n        /* \"#utility.yul\":8840:8912   */\n      tag_326\n        /* \"#utility.yul\":8908:8910   */\n      0x20\n        /* \"#utility.yul\":8897:8906   */\n      dup4\n        /* \"#utility.yul\":8893:8911   */\n      add\n        /* \"#utility.yul\":8884:8890   */\n      dup5\n        /* \"#utility.yul\":8840:8912   */\n      tag_314\n      jump\t// in\n    tag_326:\n        /* \"#utility.yul\":8571:8919   */\n      swap4\n      swap3\n      pop\n      pop\n      pop\n      jump\t// out\n        /* \"#utility.yul\":8925:9257   */\n    tag_20:\n        /* \"#utility.yul\":9046:9050   */\n      0x00\n        /* \"#utility.yul\":9084:9086   */\n      0x40\n        /* \"#utility.yul\":9073:9082   */\n      dup3\n        /* \"#utility.yul\":9069:9087   */\n      add\n        /* \"#utility.yul\":9061:9087   */\n      swap1\n      pop\n        /* \"#utility.yul\":9097:9168   */\n      tag_328\n        /* \"#utility.yul\":9165:9166   */\n      0x00\n        /* \"#utility.yul\":9154:9163   */\n      dup4\n        /* \"#utility.yul\":9150:9167   */\n      add\n        /* \"#utility.yul\":9141:9147   */\n      dup6\n        /* \"#utility.yul\":9097:9168   */\n      tag_253\n      jump\t// in\n    tag_328:\n        /* \"#utility.yul\":9178:9250   */\n      tag_329\n        /* \"#utility.yul\":9246:9248   */\n      0x20\n        /* \"#utility.yul\":9235:9244   */\n      dup4\n        /* \"#utility.yul\":9231:9249   */\n      add\n        /* \"#utility.yul\":9222:9228   */\n      dup5\n        /* \"#utility.yul\":9178:9250   */\n      tag_314\n      jump\t// in\n    tag_329:\n        /* \"#utility.yul\":8925:9257   */\n      swap4\n      swap3\n      pop\n      pop\n      pop\n      jump\t// out\n        /* \"#utility.yul\":9263:9576   */\n    tag_194:\n        /* \"#utility.yul\":9376:9380   */\n      0x00\n        /* \"#utility.yul\":9414:9416   */\n      0x20\n        /* \"#utility.yul\":9403:9412   */\n      dup3\n        /* \"#utility.yul\":9399:9417   */\n      add\n        /* \"#utility.yul\":9391:9417   */\n      swap1\n      pop\n        /* \"#utility.yul\":9463:9472   */\n      dup2\n        /* \"#utility.yul\":9457:9461   */\n      dup2\n        /* \"#utility.yul\":9453:9473   */\n      sub\n        /* \"#utility.yul\":9449:9450   */\n      0x00\n        /* \"#utility.yul\":9438:9447   */\n      dup4\n        /* \"#utility.yul\":9434:9451   */\n      add\n        /* \"#utility.yul\":9427:9474   */\n      mstore\n        /* \"#utility.yul\":9491:9569   */\n      tag_331\n        /* \"#utility.yul\":9564:9568   */\n      dup2\n        /* \"#utility.yul\":9555:9561   */\n      dup5\n        /* \"#utility.yul\":9491:9569   */\n      tag_265\n      jump\t// in\n    tag_331:\n        /* \"#utility.yul\":9483:9569   */\n      swap1\n      pop\n        /* \"#utility.yul\":9263:9576   */\n      swap3\n      swap2\n      pop\n      pop\n      jump\t// out\n        /* \"#utility.yul\":9582:10001   */\n    tag_83:\n        /* \"#utility.yul\":9748:9752   */\n      0x00\n        /* \"#utility.yul\":9786:9788   */\n      0x20\n        /* \"#utility.yul\":9775:9784   */\n      dup3\n        /* \"#utility.yul\":9771:9789   */\n      add\n        /* \"#utility.yul\":9763:9789   */\n      swap1\n      pop\n        /* \"#utility.yul\":9835:9844   */\n      dup2\n        /* \"#utility.yul\":9829:9833   */\n      dup2\n        /* \"#utility.yul\":9825:9845   */\n      sub\n        /* \"#utility.yul\":9821:9822   */\n      0x00\n        /* \"#utility.yul\":9810:9819   */\n      dup4\n        /* \"#utility.yul\":9806:9823   */\n      add\n        /* \"#utility.yul\":9799:9846   */\n      mstore\n        /* \"#utility.yul\":9863:9994   */\n      tag_333\n        /* \"#utility.yul\":9989:9993   */\n      dup2\n        /* \"#utility.yul\":9863:9994   */\n      tag_274\n      jump\t// in\n    tag_333:\n        /* \"#utility.yul\":9855:9994   */\n      swap1\n      pop\n        /* \"#utility.yul\":9582:10001   */\n      swap2\n      swap1\n      pop\n      jump\t// out\n        /* \"#utility.yul\":10007:10426   */\n    tag_143:\n        /* \"#utility.yul\":10173:10177   */\n      0x00\n        /* \"#utility.yul\":10211:10213   */\n      0x20\n        /* \"#utility.yul\":10200:10209   */\n      dup3\n        /* \"#utility.yul\":10196:10214   */\n      add\n        /* \"#utility.yul\":10188:10214   */\n      swap1\n      pop\n        /* \"#utility.yul\":10260:10269   */\n      dup2\n        /* \"#utility.yul\":10254:10258   */\n      dup2\n        /* \"#utility.yul\":10250:10270   */\n      sub\n        /* \"#utility.yul\":10246:10247   */\n      0x00\n        /* \"#utility.yul\":10235:10244   */\n      dup4\n        /* \"#utility.yul\":10231:10248   */\n      add\n        /* \"#utility.yul\":10224:10271   */\n      mstore\n        /* \"#utility.yul\":10288:10419   */\n      tag_335\n        /* \"#utility.yul\":10414:10418   */\n      dup2\n        /* \"#utility.yul\":10288:10419   */\n      tag_279\n      jump\t// in\n    tag_335:\n        /* \"#utility.yul\":10280:10419   */\n      swap1\n      pop\n        /* \"#utility.yul\":10007:10426   */\n      swap2\n      swap1\n      pop\n      jump\t// out\n        /* \"#utility.yul\":10432:10851   */\n    tag_135:\n        /* \"#utility.yul\":10598:10602   */\n      0x00\n        /* \"#utility.yul\":10636:10638   */\n      0x20\n        /* \"#utility.yul\":10625:10634   */\n      dup3\n        /* \"#utility.yul\":10621:10639   */\n      add\n        /* \"#utility.yul\":10613:10639   */\n      swap1\n      pop\n        /* \"#utility.yul\":10685:10694   */\n      dup2\n        /* \"#utility.yul\":10679:10683   */\n      dup2\n        /* \"#utility.yul\":10675:10695   */\n      sub\n        /* \"#utility.yul\":10671:10672   */\n      0x00\n        /* \"#utility.yul\":10660:10669   */\n      dup4\n        /* \"#utility.yul\":10656:10673   */\n      add\n        /* \"#utility.yul\":10649:10696   */\n      mstore\n        /* \"#utility.yul\":10713:10844   */\n      tag_337\n        /* \"#utility.yul\":10839:10843   */\n      dup2\n        /* \"#utility.yul\":10713:10844   */\n      tag_284\n      jump\t// in\n    tag_337:\n        /* \"#utility.yul\":10705:10844   */\n      swap1\n      pop\n        /* \"#utility.yul\":10432:10851   */\n      swap2\n      swap1\n      pop\n      jump\t// out\n        /* \"#utility.yul\":10857:11276   */\n    tag_170:\n        /* \"#utility.yul\":11023:11027   */\n      0x00\n        /* \"#utility.yul\":11061:11063   */\n      0x20\n        /* \"#utility.yul\":11050:11059   */\n      dup3\n        /* \"#utility.yul\":11046:11064   */\n      add\n        /* \"#utility.yul\":11038:11064   */\n      swap1\n      pop\n        /* \"#utility.yul\":11110:11119   */\n      dup2\n        /* \"#utility.yul\":11104:11108   */\n      dup2\n        /* \"#utility.yul\":11100:11120   */\n      sub\n        /* \"#utility.yul\":11096:11097   */\n      0x00\n        /* \"#utility.yul\":11085:11094   */\n      dup4\n        /* \"#utility.yul\":11081:11098   */\n      add\n        /* \"#utility.yul\":11074:11121   */\n      mstore\n        /* \"#utility.yul\":11138:11269   */\n      tag_339\n        /* \"#utility.yul\":11264:11268   */\n      dup2\n        /* \"#utility.yul\":11138:11269   */\n      tag_289\n      jump\t// in\n    tag_339:\n        /* \"#utility.yul\":11130:11269   */\n      swap1\n      pop\n        /* \"#utility.yul\":10857:11276   */\n      swap2\n      swap1\n      pop\n      jump\t// out\n        /* \"#utility.yul\":11282:11701   */\n    tag_87:\n        /* \"#utility.yul\":11448:11452   */\n      0x00\n        /* \"#utility.yul\":11486:11488   */\n      0x20\n        /* \"#utility.yul\":11475:11484   */\n      dup3\n        /* \"#utility.yul\":11471:11489   */\n      add\n        /* \"#utility.yul\":11463:11489   */\n      swap1\n      pop\n        /* \"#utility.yul\":11535:11544   */\n      dup2\n        /* \"#utility.yul\":11529:11533   */\n      dup2\n        /* \"#utility.yul\":11525:11545   */\n      sub\n        /* \"#utility.yul\":11521:11522   */\n      0x00\n        /* \"#utility.yul\":11510:11519   */\n      dup4\n        /* \"#utility.yul\":11506:11523   */\n      add\n        /* \"#utility.yul\":11499:11546   */\n      mstore\n        /* \"#utility.yul\":11563:11694   */\n      tag_341\n        /* \"#utility.yul\":11689:11693   */\n      dup2\n        /* \"#utility.yul\":11563:11694   */\n      tag_294\n      jump\t// in\n    tag_341:\n        /* \"#utility.yul\":11555:11694   */\n      swap1\n      pop\n        /* \"#utility.yul\":11282:11701   */\n      swap2\n      swap1\n      pop\n      jump\t// out\n        /* \"#utility.yul\":11707:12126   */\n    tag_185:\n        /* \"#utility.yul\":11873:11877   */\n      0x00\n        /* \"#utility.yul\":11911:11913   */\n      0x20\n        /* \"#utility.yul\":11900:11909   */\n      dup3\n        /* \"#utility.yul\":11896:11914   */\n      add\n        /* \"#utility.yul\":11888:11914   */\n      swap1\n      pop\n        /* \"#utility.yul\":11960:11969   */\n      dup2\n        /* \"#utility.yul\":11954:11958   */\n      dup2\n        /* \"#utility.yul\":11950:11970   */\n      sub\n        /* \"#utility.yul\":11946:11947   */\n      0x00\n        /* \"#utility.yul\":11935:11944   */\n      dup4\n        /* \"#utility.yul\":11931:11948   */\n      add\n        /* \"#utility.yul\":11924:11971   */\n      mstore\n        /* \"#utility.yul\":11988:12119   */\n      tag_343\n        /* \"#utility.yul\":12114:12118   */\n      dup2\n        /* \"#utility.yul\":11988:12119   */\n      tag_304\n      jump\t// in\n    tag_343:\n        /* \"#utility.yul\":11980:12119   */\n      swap1\n      pop\n        /* \"#utility.yul\":11707:12126   */\n      swap2\n      swap1\n      pop\n      jump\t// out\n        /* \"#utility.yul\":12132:12551   */\n    tag_163:\n        /* \"#utility.yul\":12298:12302   */\n      0x00\n        /* \"#utility.yul\":12336:12338   */\n      0x20\n        /* \"#utility.yul\":12325:12334   */\n      dup3\n        /* \"#utility.yul\":12321:12339   */\n      add\n        /* \"#utility.yul\":12313:12339   */\n      swap1\n      pop\n        /* \"#utility.yul\":12385:12394   */\n      dup2\n        /* \"#utility.yul\":12379:12383   */\n      dup2\n        /* \"#utility.yul\":12375:12395   */\n      sub\n        /* \"#utility.yul\":12371:12372   */\n      0x00\n        /* \"#utility.yul\":12360:12369   */\n      dup4\n        /* \"#utility.yul\":12356:12373   */\n      add\n        /* \"#utility.yul\":12349:12396   */\n      mstore\n        /* \"#utility.yul\":12413:12544   */\n      tag_345\n        /* \"#utility.yul\":12539:12543   */\n      dup2\n        /* \"#utility.yul\":12413:12544   */\n      tag_309\n      jump\t// in\n    tag_345:\n        /* \"#utility.yul\":12405:12544   */\n      swap1\n      pop\n        /* \"#utility.yul\":12132:12551   */\n      swap2\n      swap1\n      pop\n      jump\t// out\n        /* \"#utility.yul\":12557:12779   */\n    tag_30:\n        /* \"#utility.yul\":12650:12654   */\n      0x00\n        /* \"#utility.yul\":12688:12690   */\n      0x20\n        /* \"#utility.yul\":12677:12686   */\n      dup3\n        /* \"#utility.yul\":12673:12691   */\n      add\n        /* \"#utility.yul\":12665:12691   */\n      swap1\n      pop\n        /* \"#utility.yul\":12701:12772   */\n      tag_347\n        /* \"#utility.yul\":12769:12770   */\n      0x00\n        /* \"#utility.yul\":12758:12767   */\n      dup4\n        /* \"#utility.yul\":12754:12771   */\n      add\n        /* \"#utility.yul\":12745:12751   */\n      dup5\n        /* \"#utility.yul\":12701:12772   */\n      tag_314\n      jump\t// in\n    tag_347:\n        /* \"#utility.yul\":12557:12779   */\n      swap3\n      swap2\n      pop\n      pop\n      jump\t// out\n        /* \"#utility.yul\":12866:12964   */\n    tag_260:\n        /* \"#utility.yul\":12917:12923   */\n      0x00\n        /* \"#utility.yul\":12951:12956   */\n      dup2\n        /* \"#utility.yul\":12945:12957   */\n      mload\n        /* \"#utility.yul\":12935:12957   */\n      swap1\n      pop\n        /* \"#utility.yul\":12866:12964   */\n      swap2\n      swap1\n      pop\n      jump\t// out\n        /* \"#utility.yul\":12970:13069   */\n    tag_268:\n        /* \"#utility.yul\":13022:13028   */\n      0x00\n        /* \"#utility.yul\":13056:13061   */\n      dup2\n        /* \"#utility.yul\":13050:13062   */\n      mload\n        /* \"#utility.yul\":13040:13062   */\n      swap1\n      pop\n        /* \"#utility.yul\":12970:13069   */\n      swap2\n      swap1\n      pop\n      jump\t// out\n        /* \"#utility.yul\":13075:13222   */\n    tag_262:\n        /* \"#utility.yul\":13176:13187   */\n      0x00\n        /* \"#utility.yul\":13213:13216   */\n      dup2\n        /* \"#utility.yul\":13198:13216   */\n      swap1\n      pop\n        /* \"#utility.yul\":13075:13222   */\n      swap3\n      swap2\n      pop\n      pop\n      jump\t// out\n        /* \"#utility.yul\":13228:13397   */\n    tag_270:\n        /* \"#utility.yul\":13312:13323   */\n      0x00\n        /* \"#utility.yul\":13346:13352   */\n      dup3\n        /* \"#utility.yul\":13341:13344   */\n      dup3\n        /* \"#utility.yul\":13334:13353   */\n      mstore\n        /* \"#utility.yul\":13386:13390   */\n      0x20\n        /* \"#utility.yul\":13381:13384   */\n      dup3\n        /* \"#utility.yul\":13377:13391   */\n      add\n        /* \"#utility.yul\":13362:13391   */\n      swap1\n      pop\n        /* \"#utility.yul\":13228:13397   */\n      swap3\n      swap2\n      pop\n      pop\n      jump\t// out\n        /* \"#utility.yul\":13403:13708   */\n    tag_89:\n        /* \"#utility.yul\":13443:13446   */\n      0x00\n        /* \"#utility.yul\":13462:13482   */\n      tag_355\n        /* \"#utility.yul\":13480:13481   */\n      dup3\n        /* \"#utility.yul\":13462:13482   */\n      tag_317\n      jump\t// in\n    tag_355:\n        /* \"#utility.yul\":13457:13482   */\n      swap2\n      pop\n        /* \"#utility.yul\":13496:13516   */\n      tag_356\n        /* \"#utility.yul\":13514:13515   */\n      dup4\n        /* \"#utility.yul\":13496:13516   */\n      tag_317\n      jump\t// in\n    tag_356:\n        /* \"#utility.yul\":13491:13516   */\n      swap3\n      pop\n        /* \"#utility.yul\":13650:13651   */\n      dup3\n        /* \"#utility.yul\":13582:13648   */\n      0xffffffffffffffffffffffffffffffffffffffffffffffffffffffffffffffff\n        /* \"#utility.yul\":13578:13652   */\n      sub\n        /* \"#utility.yul\":13575:13576   */\n      dup3\n        /* \"#utility.yul\":13572:13653   */\n      gt\n        /* \"#utility.yul\":13569:13676   */\n      iszero\n      tag_357\n      jumpi\n        /* \"#utility.yul\":13656:13674   */\n      tag_358\n      tag_359\n      jump\t// in\n    tag_358:\n        /* \"#utility.yul\":13569:13676   */\n    tag_357:\n        /* \"#utility.yul\":13700:13701   */\n      dup3\n        /* \"#utility.yul\":13697:13698   */\n      dup3\n        /* \"#utility.yul\":13693:13702   */\n      add\n        /* \"#utility.yul\":13686:13702   */\n      swap1\n      pop\n        /* \"#utility.yul\":13403:13708   */\n      swap3\n      swap2\n      pop\n      pop\n      jump\t// out\n        /* \"#utility.yul\":13714:13899   */\n    tag_152:\n        /* \"#utility.yul\":13754:13755   */\n      0x00\n        /* \"#utility.yul\":13771:13791   */\n      tag_361\n        /* \"#utility.yul\":13789:13790   */\n      dup3\n        /* \"#utility.yul\":13771:13791   */\n      tag_317\n      jump\t// in\n    tag_361:\n        /* \"#utility.yul\":13766:13791   */\n      swap2\n      pop\n        /* \"#utility.yul\":13805:13825   */\n      tag_362\n        /* \"#utility.yul\":13823:13824   */\n      dup4\n        /* \"#utility.yul\":13805:13825   */\n      tag_317\n      jump\t// in\n    tag_362:\n        /* \"#utility.yul\":13800:13825   */\n      swap3\n      pop\n        /* \"#utility.yul\":13844:13845   */\n      dup3\n        /* \"#utility.yul\":13834:13869   */\n      tag_363\n      jumpi\n        /* \"#utility.yul\":13849:13867   */\n      tag_364\n      tag_365\n      jump\t// in\n    tag_364:\n        /* \"#utility.yul\":13834:13869   */\n    tag_363:\n        /* \"#utility.yul\":13891:13892   */\n      dup3\n        /* \"#utility.yul\":13888:13889   */\n      dup3\n        /* \"#utility.yul\":13884:13893   */\n      div\n        /* \"#utility.yul\":13879:13893   */\n      swap1\n      pop\n        /* \"#utility.yul\":13714:13899   */\n      swap3\n      swap2\n      pop\n      pop\n      jump\t// out\n        /* \"#utility.yul\":13905:14253   */\n    tag_150:\n        /* \"#utility.yul\":13945:13952   */\n      0x00\n        /* \"#utility.yul\":13968:13988   */\n      tag_367\n        /* \"#utility.yul\":13986:13987   */\n      dup3\n        /* \"#utility.yul\":13968:13988   */\n      tag_317\n      jump\t// in\n    tag_367:\n        /* \"#utility.yul\":13963:13988   */\n      swap2\n      pop\n        /* \"#utility.yul\":14002:14022   */\n      tag_368\n        /* \"#utility.yul\":14020:14021   */\n      dup4\n        /* \"#utility.yul\":14002:14022   */\n      tag_317\n      jump\t// in\n    tag_368:\n        /* \"#utility.yul\":13997:14022   */\n      swap3\n      pop\n        /* \"#utility.yul\":14190:14191   */\n      dup2\n        /* \"#utility.yul\":14122:14188   */\n      0xffffffffffffffffffffffffffffffffffffffffffffffffffffffffffffffff\n        /* \"#utility.yul\":14118:14192   */\n      div\n        /* \"#utility.yul\":14115:14116   */\n      dup4\n        /* \"#utility.yul\":14112:14193   */\n      gt\n        /* \"#utility.yul\":14107:14108   */\n      dup3\n        /* \"#utility.yul\":14100:14109   */\n      iszero\n        /* \"#utility.yul\":14093:14110   */\n      iszero\n        /* \"#utility.yul\":14089:14194   */\n      and\n        /* \"#utility.yul\":14086:14217   */\n      iszero\n      tag_369\n      jumpi\n        /* \"#utility.yul\":14197:14215   */\n      tag_370\n      tag_359\n      jump\t// in\n    tag_370:\n        /* \"#utility.yul\":14086:14217   */\n    tag_369:\n        /* \"#utility.yul\":14245:14246   */\n      dup3\n        /* \"#utility.yul\":14242:14243   */\n      dup3\n        /* \"#utility.yul\":14238:14247   */\n      mul\n        /* \"#utility.yul\":14227:14247   */\n      swap1\n      pop\n        /* \"#utility.yul\":13905:14253   */\n      swap3\n      swap2\n      pop\n      pop\n      jump\t// out\n        /* \"#utility.yul\":14259:14450   */\n    tag_154:\n        /* \"#utility.yul\":14299:14303   */\n      0x00\n        /* \"#utility.yul\":14319:14339   */\n      tag_372\n        /* \"#utility.yul\":14337:14338   */\n      dup3\n        /* \"#utility.yul\":14319:14339   */\n      tag_317\n      jump\t// in\n    tag_372:\n        /* \"#utility.yul\":14314:14339   */\n      swap2\n      pop\n        /* \"#utility.yul\":14353:14373   */\n      tag_373\n        /* \"#utility.yul\":14371:14372   */\n      dup4\n        /* \"#utility.yul\":14353:14373   */\n      tag_317\n      jump\t// in\n    tag_373:\n        /* \"#utility.yul\":14348:14373   */\n      swap3\n      pop\n        /* \"#utility.yul\":14392:14393   */\n      dup3\n        /* \"#utility.yul\":14389:14390   */\n      dup3\n        /* \"#utility.yul\":14386:14394   */\n      lt\n        /* \"#utility.yul\":14383:14417   */\n      iszero\n      tag_374\n      jumpi\n        /* \"#utility.yul\":14397:14415   */\n      tag_375\n      tag_359\n      jump\t// in\n    tag_375:\n        /* \"#utility.yul\":14383:14417   */\n    tag_374:\n        /* \"#utility.yul\":14442:14443   */\n      dup3\n        /* \"#utility.yul\":14439:14440   */\n      dup3\n        /* \"#utility.yul\":14435:14444   */\n      sub\n        /* \"#utility.yul\":14427:14444   */\n      swap1\n      pop\n        /* \"#utility.yul\":14259:14450   */\n      swap3\n      swap2\n      pop\n      pop\n      jump\t// out\n        /* \"#utility.yul\":14456:14552   */\n    tag_256:\n        /* \"#utility.yul\":14493:14500   */\n      0x00\n        /* \"#utility.yul\":14522:14546   */\n      tag_377\n        /* \"#utility.yul\":14540:14545   */\n      dup3\n        /* \"#utility.yul\":14522:14546   */\n      tag_378\n      jump\t// in\n    tag_377:\n        /* \"#utility.yul\":14511:14546   */\n      swap1\n      pop\n        /* \"#utility.yul\":14456:14552   */\n      swap2\n      swap1\n      pop\n      jump\t// out\n        /* \"#utility.yul\":14558:14662   */\n    tag_379:\n        /* \"#utility.yul\":14603:14610   */\n      0x00\n        /* \"#utility.yul\":14632:14656   */\n      tag_381\n        /* \"#utility.yul\":14650:14655   */\n      dup3\n        /* \"#utility.yul\":14632:14656   */\n      tag_378\n      jump\t// in\n    tag_381:\n        /* \"#utility.yul\":14621:14656   */\n      swap1\n      pop\n        /* \"#utility.yul\":14558:14662   */\n      swap2\n      swap1\n      pop\n      jump\t// out\n        /* \"#utility.yul\":14668:14758   */\n    tag_382:\n        /* \"#utility.yul\":14702:14709   */\n      0x00\n        /* \"#utility.yul\":14745:14750   */\n      dup2\n        /* \"#utility.yul\":14738:14751   */\n      iszero\n        /* \"#utility.yul\":14731:14752   */\n      iszero\n        /* \"#utility.yul\":14720:14752   */\n      swap1\n      pop\n        /* \"#utility.yul\":14668:14758   */\n      swap2\n      swap1\n      pop\n      jump\t// out\n        /* \"#utility.yul\":14764:14874   */\n    tag_384:\n        /* \"#utility.yul\":14815:14822   */\n      0x00\n        /* \"#utility.yul\":14844:14868   */\n      tag_386\n        /* \"#utility.yul\":14862:14867   */\n      dup3\n        /* \"#utility.yul\":14844:14868   */\n      tag_256\n      jump\t// in\n    tag_386:\n        /* \"#utility.yul\":14833:14868   */\n      swap1\n      pop\n        /* \"#utility.yul\":14764:14874   */\n      swap2\n      swap1\n      pop\n      jump\t// out\n        /* \"#utility.yul\":14880:15006   */\n    tag_378:\n        /* \"#utility.yul\":14917:14924   */\n      0x00\n        /* \"#utility.yul\":14957:14999   */\n      0xffffffffffffffffffffffffffffffffffffffff\n        /* \"#utility.yul\":14950:14955   */\n      dup3\n        /* \"#utility.yul\":14946:15000   */\n      and\n        /* \"#utility.yul\":14935:15000   */\n      swap1\n      pop\n        /* \"#utility.yul\":14880:15006   */\n      swap2\n      swap1\n      pop\n      jump\t// out\n        /* \"#utility.yul\":15012:15089   */\n    tag_317:\n        /* \"#utility.yul\":15049:15056   */\n      0x00\n        /* \"#utility.yul\":15078:15083   */\n      dup2\n        /* \"#utility.yul\":15067:15083   */\n      swap1\n      pop\n        /* \"#utility.yul\":15012:15089   */\n      swap2\n      swap1\n      pop\n      jump\t// out\n        /* \"#utility.yul\":15095:15229   */\n    tag_252:\n        /* \"#utility.yul\":15153:15162   */\n      0x00\n        /* \"#utility.yul\":15186:15223   */\n      tag_390\n        /* \"#utility.yul\":15217:15222   */\n      dup3\n        /* \"#utility.yul\":15186:15223   */\n      tag_391\n      jump\t// in\n    tag_390:\n        /* \"#utility.yul\":15173:15223   */\n      swap1\n      pop\n        /* \"#utility.yul\":15095:15229   */\n      swap2\n      swap1\n      pop\n      jump\t// out\n        /* \"#utility.yul\":15235:15361   */\n    tag_391:\n        /* \"#utility.yul\":15285:15294   */\n      0x00\n        /* \"#utility.yul\":15318:15355   */\n      tag_393\n        /* \"#utility.yul\":15349:15354   */\n      dup3\n        /* \"#utility.yul\":15318:15355   */\n      tag_394\n      jump\t// in\n    tag_393:\n        /* \"#utility.yul\":15305:15355   */\n      swap1\n      pop\n        /* \"#utility.yul\":15235:15361   */\n      swap2\n      swap1\n      pop\n      jump\t// out\n        /* \"#utility.yul\":15367:15480   */\n    tag_394:\n        /* \"#utility.yul\":15417:15426   */\n      0x00\n        /* \"#utility.yul\":15450:15474   */\n      tag_396\n        /* \"#utility.yul\":15468:15473   */\n      dup3\n        /* \"#utility.yul\":15450:15474   */\n      tag_378\n      jump\t// in\n    tag_396:\n        /* \"#utility.yul\":15437:15474   */\n      swap1\n      pop\n        /* \"#utility.yul\":15367:15480   */\n      swap2\n      swap1\n      pop\n      jump\t// out\n        /* \"#utility.yul\":15486:15793   */\n    tag_264:\n        /* \"#utility.yul\":15554:15555   */\n      0x00\n        /* \"#utility.yul\":15564:15677   */\n    tag_398:\n        /* \"#utility.yul\":15578:15584   */\n      dup4\n        /* \"#utility.yul\":15575:15576   */\n      dup2\n        /* \"#utility.yul\":15572:15585   */\n      lt\n        /* \"#utility.yul\":15564:15677   */\n      iszero\n      tag_400\n      jumpi\n        /* \"#utility.yul\":15663:15664   */\n      dup1\n        /* \"#utility.yul\":15658:15661   */\n      dup3\n        /* \"#utility.yul\":15654:15665   */\n      add\n        /* \"#utility.yul\":15648:15666   */\n      mload\n        /* \"#utility.yul\":15644:15645   */\n      dup2\n        /* \"#utility.yul\":15639:15642   */\n      dup5\n        /* \"#utility.yul\":15635:15646   */\n      add\n        /* \"#utility.yul\":15628:15667   */\n      mstore\n        /* \"#utility.yul\":15600:15602   */\n      0x20\n        /* \"#utility.yul\":15597:15598   */\n      dup2\n        /* \"#utility.yul\":15593:15603   */\n      add\n        /* \"#utility.yul\":15588:15603   */\n      swap1\n      pop\n        /* \"#utility.yul\":15564:15677   */\n      jump(tag_398)\n    tag_400:\n        /* \"#utility.yul\":15695:15701   */\n      dup4\n        /* \"#utility.yul\":15692:15693   */\n      dup2\n        /* \"#utility.yul\":15689:15702   */\n      gt\n        /* \"#utility.yul\":15686:15787   */\n      iszero\n      tag_401\n      jumpi\n        /* \"#utility.yul\":15775:15776   */\n      0x00\n        /* \"#utility.yul\":15766:15772   */\n      dup5\n        /* \"#utility.yul\":15761:15764   */\n      dup5\n        /* \"#utility.yul\":15757:15773   */\n      add\n        /* \"#utility.yul\":15750:15777   */\n      mstore\n        /* \"#utility.yul\":15686:15787   */\n    tag_401:\n        /* \"#utility.yul\":15535:15793   */\n      pop\n        /* \"#utility.yul\":15486:15793   */\n      pop\n      pop\n      pop\n      jump\t// out\n        /* \"#utility.yul\":15799:15979   */\n    tag_359:\n        /* \"#utility.yul\":15847:15924   */\n      0x4e487b7100000000000000000000000000000000000000000000000000000000\n        /* \"#utility.yul\":15844:15845   */\n      0x00\n        /* \"#utility.yul\":15837:15925   */\n      mstore\n        /* \"#utility.yul\":15944:15948   */\n      0x11\n        /* \"#utility.yul\":15941:15942   */\n      0x04\n        /* \"#utility.yul\":15934:15949   */\n      mstore\n        /* \"#utility.yul\":15968:15972   */\n      0x24\n        /* \"#utility.yul\":15965:15966   */\n      0x00\n        /* \"#utility.yul\":15958:15973   */\n      revert\n        /* \"#utility.yul\":15985:16165   */\n    tag_365:\n        /* \"#utility.yul\":16033:16110   */\n      0x4e487b7100000000000000000000000000000000000000000000000000000000\n        /* \"#utility.yul\":16030:16031   */\n      0x00\n        /* \"#utility.yul\":16023:16111   */\n      mstore\n        /* \"#utility.yul\":16130:16134   */\n      0x12\n        /* \"#utility.yul\":16127:16128   */\n      0x04\n        /* \"#utility.yul\":16120:16135   */\n      mstore\n        /* \"#utility.yul\":16154:16158   */\n      0x24\n        /* \"#utility.yul\":16151:16152   */\n      0x00\n        /* \"#utility.yul\":16144:16159   */\n      revert\n        /* \"#utility.yul\":16171:16351   */\n    tag_109:\n        /* \"#utility.yul\":16219:16296   */\n      0x4e487b7100000000000000000000000000000000000000000000000000000000\n        /* \"#utility.yul\":16216:16217   */\n      0x00\n        /* \"#utility.yul\":16209:16297   */\n      mstore\n        /* \"#utility.yul\":16316:16320   */\n      0x32\n        /* \"#utility.yul\":16313:16314   */\n      0x04\n        /* \"#utility.yul\":16306:16321   */\n      mstore\n        /* \"#utility.yul\":16340:16344   */\n      0x24\n        /* \"#utility.yul\":16337:16338   */\n      0x00\n        /* \"#utility.yul\":16330:16345   */\n      revert\n        /* \"#utility.yul\":16480:16597   */\n    tag_222:\n        /* \"#utility.yul\":16589:16590   */\n      0x00\n        /* \"#utility.yul\":16586:16587   */\n      dup1\n        /* \"#utility.yul\":16579:16591   */\n      revert\n        /* \"#utility.yul\":16603:16705   */\n    tag_273:\n        /* \"#utility.yul\":16644:16650   */\n      0x00\n        /* \"#utility.yul\":16695:16697   */\n      0x1f\n        /* \"#utility.yul\":16691:16698   */\n      not\n        /* \"#utility.yul\":16686:16688   */\n      0x1f\n        /* \"#utility.yul\":16679:16684   */\n      dup4\n        /* \"#utility.yul\":16675:16689   */\n      add\n        /* \"#utility.yul\":16671:16699   */\n      and\n        /* \"#utility.yul\":16661:16699   */\n      swap1\n      pop\n        /* \"#utility.yul\":16603:16705   */\n      swap2\n      swap1\n      pop\n      jump\t// out\n        /* \"#utility.yul\":16711:16936   */\n    tag_278:\n        /* \"#utility.yul\":16851:16885   */\n      0x5061796d656e7453706c69747465723a206163636f756e7420686173206e6f20\n        /* \"#utility.yul\":16847:16848   */\n      0x00\n        /* \"#utility.yul\":16839:16845   */\n      dup3\n        /* \"#utility.yul\":16835:16849   */\n      add\n        /* \"#utility.yul\":16828:16886   */\n      mstore\n        /* \"#utility.yul\":16920:16928   */\n      0x7368617265730000000000000000000000000000000000000000000000000000\n        /* \"#utility.yul\":16915:16917   */\n      0x20\n        /* \"#utility.yul\":16907:16913   */\n      dup3\n        /* \"#utility.yul\":16903:16918   */\n      add\n        /* \"#utility.yul\":16896:16929   */\n      mstore\n        /* \"#utility.yul\":16711:16936   */\n      pop\n      jump\t// out\n        /* \"#utility.yul\":16942:17187   */\n    tag_283:\n        /* \"#utility.yul\":17082:17116   */\n      0x416464726573733a20756e61626c6520746f2073656e642076616c75652c2072\n        /* \"#utility.yul\":17078:17079   */\n      0x00\n        /* \"#utility.yul\":17070:17076   */\n      dup3\n        /* \"#utility.yul\":17066:17080   */\n      add\n        /* \"#utility.yul\":17059:17117   */\n      mstore\n        /* \"#utility.yul\":17151:17179   */\n      0x6563697069656e74206d61792068617665207265766572746564000000000000\n        /* \"#utility.yul\":17146:17148   */\n      0x20\n        /* \"#utility.yul\":17138:17144   */\n      dup3\n        /* \"#utility.yul\":17134:17149   */\n      add\n        /* \"#utility.yul\":17127:17180   */\n      mstore\n        /* \"#utility.yul\":16942:17187   */\n      pop\n      jump\t// out\n        /* \"#utility.yul\":17193:17372   */\n    tag_288:\n        /* \"#utility.yul\":17333:17364   */\n      0x416464726573733a20696e73756666696369656e742062616c616e6365000000\n        /* \"#utility.yul\":17329:17330   */\n      0x00\n        /* \"#utility.yul\":17321:17327   */\n      dup3\n        /* \"#utility.yul\":17317:17331   */\n      add\n        /* \"#utility.yul\":17310:17365   */\n      mstore\n        /* \"#utility.yul\":17193:17372   */\n      pop\n      jump\t// out\n        /* \"#utility.yul\":17378:17603   */\n    tag_293:\n        /* \"#utility.yul\":17518:17552   */\n      0x416464726573733a20696e73756666696369656e742062616c616e636520666f\n        /* \"#utility.yul\":17514:17515   */\n      0x00\n        /* \"#utility.yul\":17506:17512   */\n      dup3\n        /* \"#utility.yul\":17502:17516   */\n      add\n        /* \"#utility.yul\":17495:17553   */\n      mstore\n        /* \"#utility.yul\":17587:17595   */\n      0x722063616c6c0000000000000000000000000000000000000000000000000000\n        /* \"#utility.yul\":17582:17584   */\n      0x20\n        /* \"#utility.yul\":17574:17580   */\n      dup3\n        /* \"#utility.yul\":17570:17585   */\n      add\n        /* \"#utility.yul\":17563:17596   */\n      mstore\n        /* \"#utility.yul\":17378:17603   */\n      pop\n      jump\t// out\n        /* \"#utility.yul\":17609:17839   */\n    tag_298:\n        /* \"#utility.yul\":17749:17783   */\n      0x5061796d656e7453706c69747465723a206163636f756e74206973206e6f7420\n        /* \"#utility.yul\":17745:17746   */\n      0x00\n        /* \"#utility.yul\":17737:17743   */\n      dup3\n        /* \"#utility.yul\":17733:17747   */\n      add\n        /* \"#utility.yul\":17726:17784   */\n      mstore\n        /* \"#utility.yul\":17818:17831   */\n      0x647565207061796d656e74000000000000000000000000000000000000000000\n        /* \"#utility.yul\":17813:17815   */\n      0x20\n        /* \"#utility.yul\":17805:17811   */\n      dup3\n        /* \"#utility.yul\":17801:17816   */\n      add\n        /* \"#utility.yul\":17794:17832   */\n      mstore\n        /* \"#utility.yul\":17609:17839   */\n      pop\n      jump\t// out\n        /* \"#utility.yul\":17845:17959   */\n    tag_303:\n      pop\n      jump\t// out\n        /* \"#utility.yul\":17965:18144   */\n    tag_308:\n        /* \"#utility.yul\":18105:18136   */\n      0x416464726573733a2063616c6c20746f206e6f6e2d636f6e7472616374000000\n        /* \"#utility.yul\":18101:18102   */\n      0x00\n        /* \"#utility.yul\":18093:18099   */\n      dup3\n        /* \"#utility.yul\":18089:18103   */\n      add\n        /* \"#utility.yul\":18082:18137   */\n      mstore\n        /* \"#utility.yul\":17965:18144   */\n      pop\n      jump\t// out\n        /* \"#utility.yul\":18150:18379   */\n    tag_313:\n        /* \"#utility.yul\":18290:18324   */\n      0x5361666545524332303a204552433230206f7065726174696f6e20646964206e\n        /* \"#utility.yul\":18286:18287   */\n      0x00\n        /* \"#utility.yul\":18278:18284   */\n      dup3\n        /* \"#utility.yul\":18274:18288   */\n      add\n        /* \"#utility.yul\":18267:18325   */\n      mstore\n        /* \"#utility.yul\":18359:18371   */\n      0x6f74207375636365656400000000000000000000000000000000000000000000\n        /* \"#utility.yul\":18354:18356   */\n      0x20\n        /* \"#utility.yul\":18346:18352   */\n      dup3\n        /* \"#utility.yul\":18342:18357   */\n      add\n        /* \"#utility.yul\":18335:18372   */\n      mstore\n        /* \"#utility.yul\":18150:18379   */\n      pop\n      jump\t// out\n        /* \"#utility.yul\":18385:18507   */\n    tag_199:\n        /* \"#utility.yul\":18458:18482   */\n      tag_418\n        /* \"#utility.yul\":18476:18481   */\n      dup2\n        /* \"#utility.yul\":18458:18482   */\n      tag_256\n      jump\t// in\n    tag_418:\n        /* \"#utility.yul\":18451:18456   */\n      dup2\n        /* \"#utility.yul\":18448:18483   */\n      eq\n        /* \"#utility.yul\":18438:18501   */\n      tag_419\n      jumpi\n        /* \"#utility.yul\":18497:18498   */\n      0x00\n        /* \"#utility.yul\":18494:18495   */\n      dup1\n        /* \"#utility.yul\":18487:18499   */\n      revert\n        /* \"#utility.yul\":18438:18501   */\n    tag_419:\n        /* \"#utility.yul\":18385:18507   */\n      pop\n      jump\t// out\n        /* \"#utility.yul\":18513:18651   */\n    tag_203:\n        /* \"#utility.yul\":18594:18626   */\n      tag_421\n        /* \"#utility.yul\":18620:18625   */\n      dup2\n        /* \"#utility.yul\":18594:18626   */\n      tag_379\n      jump\t// in\n    tag_421:\n        /* \"#utility.yul\":18587:18592   */\n      dup2\n        /* \"#utility.yul\":18584:18627   */\n      eq\n        /* \"#utility.yul\":18574:18645   */\n      tag_422\n      jumpi\n        /* \"#utility.yul\":18641:18642   */\n      0x00\n        /* \"#utility.yul\":18638:18639   */\n      dup1\n        /* \"#utility.yul\":18631:18643   */\n      revert\n        /* \"#utility.yul\":18574:18645   */\n    tag_422:\n        /* \"#utility.yul\":18513:18651   */\n      pop\n      jump\t// out\n        /* \"#utility.yul\":18657:18773   */\n    tag_207:\n        /* \"#utility.yul\":18727:18748   */\n      tag_424\n        /* \"#utility.yul\":18742:18747   */\n      dup2\n        /* \"#utility.yul\":18727:18748   */\n      tag_382\n      jump\t// in\n    tag_424:\n        /* \"#utility.yul\":18720:18725   */\n      dup2\n        /* \"#utility.yul\":18717:18749   */\n      eq\n        /* \"#utility.yul\":18707:18767   */\n      tag_425\n      jumpi\n        /* \"#utility.yul\":18763:18764   */\n      0x00\n        /* \"#utility.yul\":18760:18761   */\n      dup1\n        /* \"#utility.yul\":18753:18765   */\n      revert\n        /* \"#utility.yul\":18707:18767   */\n    tag_425:\n        /* \"#utility.yul\":18657:18773   */\n      pop\n      jump\t// out\n        /* \"#utility.yul\":18779:18929   */\n    tag_211:\n        /* \"#utility.yul\":18866:18904   */\n      tag_427\n        /* \"#utility.yul\":18898:18903   */\n      dup2\n        /* \"#utility.yul\":18866:18904   */\n      tag_384\n      jump\t// in\n    tag_427:\n        /* \"#utility.yul\":18859:18864   */\n      dup2\n        /* \"#utility.yul\":18856:18905   */\n      eq\n        /* \"#utility.yul\":18846:18923   */\n      tag_428\n      jumpi\n        /* \"#utility.yul\":18919:18920   */\n      0x00\n        /* \"#utility.yul\":18916:18917   */\n      dup1\n        /* \"#utility.yul\":18909:18921   */\n      revert\n        /* \"#utility.yul\":18846:18923   */\n    tag_428:\n        /* \"#utility.yul\":18779:18929   */\n      pop\n      jump\t// out\n        /* \"#utility.yul\":18935:19057   */\n    tag_215:\n        /* \"#utility.yul\":19008:19032   */\n      tag_430\n        /* \"#utility.yul\":19026:19031   */\n      dup2\n        /* \"#utility.yul\":19008:19032   */\n      tag_317\n      jump\t// in\n    tag_430:\n        /* \"#utility.yul\":19001:19006   */\n      dup2\n        /* \"#utility.yul\":18998:19033   */\n      eq\n        /* \"#utility.yul\":18988:19051   */\n      tag_431\n      jumpi\n        /* \"#utility.yul\":19047:19048   */\n      0x00\n        /* \"#utility.yul\":19044:19045   */\n      dup1\n        /* \"#utility.yul\":19037:19049   */\n      revert\n        /* \"#utility.yul\":18988:19051   */\n    tag_431:\n        /* \"#utility.yul\":18935:19057   */\n      pop\n      jump\t// out\n\n    auxdata: 0xa2646970667358221220076ca5badc38e810b6c08f0df151bf3b378c669d49e7a556419a9bd7a24c41b064736f6c63430008070033\n}\n",
				"bytecode": {
					"linkReferences": {},
					"object": "60806040526040516200239f3803806200239f8339818101604052810190620000299190620004f3565b805182511462000070576040517f08c379a00000000000000000000000000000000000000000000000000000000081526004016200006790620006ac565b60405180910390fd5b6000825111620000b7576040517f08c379a0000000000000000000000000000000000000000000000000000000008152600401620000ae90620006f0565b60405180910390fd5b60005b8251811015620001265762000110838281518110620000de57620000dd6200091a565b5b6020026020010151838381518110620000fc57620000fb6200091a565b5b60200260200101516200012f60201b60201c565b80806200011d906200089d565b915050620000ba565b50505062000b10565b600073ffffffffffffffffffffffffffffffffffffffff168273ffffffffffffffffffffffffffffffffffffffff161415620001a2576040517f08c379a000000000000000000000000000000000000000000000000000000000815260040162000199906200068a565b60405180910390fd5b60008111620001e8576040517f08c379a0000000000000000000000000000000000000000000000000000000008152600401620001df9062000712565b60405180910390fd5b6000600260008473ffffffffffffffffffffffffffffffffffffffff1673ffffffffffffffffffffffffffffffffffffffff16815260200190815260200160002054146200026d576040517f08c379a00000000000000000000000000000000000000000000000000000000081526004016200026490620006ce565b60405180910390fd5b6004829080600181540180825580915050600190039060005260206000200160009091909190916101000a81548173ffffffffffffffffffffffffffffffffffffffff021916908373ffffffffffffffffffffffffffffffffffffffff16021790555080600260008473ffffffffffffffffffffffffffffffffffffffff1673ffffffffffffffffffffffffffffffffffffffff1681526020019081526020016000208190555080600054620003249190620007cc565b6000819055507f40c340f65e17194d14ddddb073d3c9f888e3cb52b5aae0c6c7706b4fbc905fac82826040516200035d9291906200065d565b60405180910390a15050565b6000620003806200037a846200075d565b62000734565b90508083825260208201905082856020860282011115620003a657620003a56200097d565b5b60005b85811015620003da5781620003bf88826200045f565b845260208401935060208301925050600181019050620003a9565b5050509392505050565b6000620003fb620003f5846200078c565b62000734565b905080838252602082019050828560208602820111156200042157620004206200097d565b5b60005b858110156200045557816200043a8882620004dc565b84526020840193506020830192505060018101905062000424565b5050509392505050565b600081519050620004708162000adc565b92915050565b600082601f8301126200048e576200048d62000978565b5b8151620004a084826020860162000369565b91505092915050565b600082601f830112620004c157620004c062000978565b5b8151620004d3848260208601620003e4565b91505092915050565b600081519050620004ed8162000af6565b92915050565b600080604083850312156200050d576200050c62000987565b5b600083015167ffffffffffffffff8111156200052e576200052d62000982565b5b6200053c8582860162000476565b925050602083015167ffffffffffffffff81111562000560576200055f62000982565b5b6200056e85828601620004a9565b9150509250929050565b620005838162000829565b82525050565b600062000598602c83620007bb565b9150620005a5826200099d565b604082019050919050565b6000620005bf603283620007bb565b9150620005cc82620009ec565b604082019050919050565b6000620005e6602b83620007bb565b9150620005f38262000a3b565b604082019050919050565b60006200060d601a83620007bb565b91506200061a8262000a8a565b602082019050919050565b600062000634601d83620007bb565b9150620006418262000ab3565b602082019050919050565b62000657816200085d565b82525050565b600060408201905062000674600083018562000578565b6200068360208301846200064c565b9392505050565b60006020820190508181036000830152620006a58162000589565b9050919050565b60006020820190508181036000830152620006c781620005b0565b9050919050565b60006020820190508181036000830152620006e981620005d7565b9050919050565b600060208201905081810360008301526200070b81620005fe565b9050919050565b600060208201905081810360008301526200072d8162000625565b9050919050565b60006200074062000753565b90506200074e828262000867565b919050565b6000604051905090565b600067ffffffffffffffff8211156200077b576200077a62000949565b5b602082029050602081019050919050565b600067ffffffffffffffff821115620007aa57620007a962000949565b5b602082029050602081019050919050565b600082825260208201905092915050565b6000620007d9826200085d565b9150620007e6836200085d565b9250827fffffffffffffffffffffffffffffffffffffffffffffffffffffffffffffffff038211156200081e576200081d620008eb565b5b828201905092915050565b600062000836826200083d565b9050919050565b600073ffffffffffffffffffffffffffffffffffffffff82169050919050565b6000819050919050565b62000872826200098c565b810181811067ffffffffffffffff8211171562000894576200089362000949565b5b80604052505050565b6000620008aa826200085d565b91507fffffffffffffffffffffffffffffffffffffffffffffffffffffffffffffffff821415620008e057620008df620008eb565b5b600182019050919050565b7f4e487b7100000000000000000000000000000000000000000000000000000000600052601160045260246000fd5b7f4e487b7100000000000000000000000000000000000000000000000000000000600052603260045260246000fd5b7f4e487b7100000000000000000000000000000000000000000000000000000000600052604160045260246000fd5b600080fd5b600080fd5b600080fd5b600080fd5b6000601f19601f8301169050919050565b7f5061796d656e7453706c69747465723a206163636f756e74206973207468652060008201527f7a65726f20616464726573730000000000000000000000000000000000000000602082015250565b7f5061796d656e7453706c69747465723a2070617965657320616e64207368617260008201527f6573206c656e677468206d69736d617463680000000000000000000000000000602082015250565b7f5061796d656e7453706c69747465723a206163636f756e7420616c726561647960008201527f2068617320736861726573000000000000000000000000000000000000000000602082015250565b7f5061796d656e7453706c69747465723a206e6f20706179656573000000000000600082015250565b7f5061796d656e7453706c69747465723a20736861726573206172652030000000600082015250565b62000ae78162000829565b811462000af357600080fd5b50565b62000b01816200085d565b811462000b0d57600080fd5b50565b61187f8062000b206000396000f3fe6080604052600436106100a05760003560e01c80639852595c116100645780639852595c146101e3578063a3f8eace14610220578063c45ac0501461025d578063ce7c2ac21461029a578063d79779b2146102d7578063e33b7de314610314576100e7565b806319165587146100ec5780633a98ef3914610115578063406072a91461014057806348b750441461017d5780638b83209b146101a6576100e7565b366100e7577f6ef95f06320e7a25a04a175ca677b7052bdd97131872c2192525a629f51be7706100ce61033f565b346040516100dd9291906111f1565b60405180910390a1005b600080fd5b3480156100f857600080fd5b50610113600480360381019061010e9190610eb1565b610347565b005b34801561012157600080fd5b5061012a6104c7565b604051610137919061131c565b60405180910390f35b34801561014c57600080fd5b5061016760048036038101906101629190610f38565b6104d0565b604051610174919061131c565b60405180910390f35b34801561018957600080fd5b506101a4600480360381019061019f9190610f38565b610557565b005b3480156101b257600080fd5b506101cd60048036038101906101c89190610f78565b61076b565b6040516101da91906111ad565b60405180910390f35b3480156101ef57600080fd5b5061020a60048036038101906102059190610e84565b6107b3565b604051610217919061131c565b60405180910390f35b34801561022c57600080fd5b5061024760048036038101906102429190610e84565b6107fc565b604051610254919061131c565b60405180910390f35b34801561026957600080fd5b50610284600480360381019061027f9190610f38565b61082f565b604051610291919061131c565b60405180910390f35b3480156102a657600080fd5b506102c160048036038101906102bc9190610e84565b6108ed565b6040516102ce919061131c565b60405180910390f35b3480156102e357600080fd5b506102fe60048036038101906102f99190610f0b565b610936565b60405161030b919061131c565b60405180910390f35b34801561032057600080fd5b5061032961097f565b604051610336919061131c565b60405180910390f35b600033905090565b6000600260008373ffffffffffffffffffffffffffffffffffffffff1673ffffffffffffffffffffffffffffffffffffffff16815260200190815260200160002054116103c9576040517f08c379a00000000000000000000000000000000000000000000000000000000081526004016103c09061123c565b60405180910390fd5b60006103d4826107fc565b9050600081141561041a576040517f08c379a0000000000000000000000000000000000000000000000000000000008152600401610411906112bc565b60405180910390fd5b806001600082825461042c9190611369565b9250508190555080600360008473ffffffffffffffffffffffffffffffffffffffff1673ffffffffffffffffffffffffffffffffffffffff1681526020019081526020016000206000828254019250508190555061048a8282610989565b7fdf20fd1e76bc69d672e4814fafb2c449bba3a5369d8359adf9e05e6fde87b05682826040516104bb9291906111c8565b60405180910390a15050565b60008054905090565b6000600660008473ffffffffffffffffffffffffffffffffffffffff1673ffffffffffffffffffffffffffffffffffffffff16815260200190815260200160002060008373ffffffffffffffffffffffffffffffffffffffff1673ffffffffffffffffffffffffffffffffffffffff16815260200190815260200160002054905092915050565b6000600260008373ffffffffffffffffffffffffffffffffffffffff1673ffffffffffffffffffffffffffffffffffffffff16815260200190815260200160002054116105d9576040517f08c379a00000000000000000000000000000000000000000000000000000000081526004016105d09061123c565b60405180910390fd5b60006105e5838361082f565b9050600081141561062b576040517f08c379a0000000000000000000000000000000000000000000000000000000008152600401610622906112bc565b60405180910390fd5b80600560008573ffffffffffffffffffffffffffffffffffffffff1673ffffffffffffffffffffffffffffffffffffffff168152602001908152602001600020600082825461067a9190611369565b9250508190555080600660008573ffffffffffffffffffffffffffffffffffffffff1673ffffffffffffffffffffffffffffffffffffffff16815260200190815260200160002060008473ffffffffffffffffffffffffffffffffffffffff1673ffffffffffffffffffffffffffffffffffffffff16815260200190815260200160002060008282540192505081905550610716838383610a7d565b8273ffffffffffffffffffffffffffffffffffffffff167f3be5b7a71e84ed12875d241991c70855ac5817d847039e17a9d895c1ceb0f18a838360405161075e9291906111f1565b60405180910390a2505050565b600060048281548110610781576107806115b1565b5b9060005260206000200160009054906101000a900473ffffffffffffffffffffffffffffffffffffffff169050919050565b6000600360008373ffffffffffffffffffffffffffffffffffffffff1673ffffffffffffffffffffffffffffffffffffffff168152602001908152602001600020549050919050565b60008061080761097f565b476108129190611369565b90506108278382610822866107b3565b610b03565b915050919050565b60008061083b84610936565b8473ffffffffffffffffffffffffffffffffffffffff166370a08231306040518263ffffffff1660e01b815260040161087491906111ad565b60206040518083038186803b15801561088c57600080fd5b505afa1580156108a0573d6000803e3d6000fd5b505050506040513d601f19601f820116820180604052508101906108c49190610fa5565b6108ce9190611369565b90506108e483826108df87876104d0565b610b03565b91505092915050565b6000600260008373ffffffffffffffffffffffffffffffffffffffff1673ffffffffffffffffffffffffffffffffffffffff168152602001908152602001600020549050919050565b6000600560008373ffffffffffffffffffffffffffffffffffffffff1673ffffffffffffffffffffffffffffffffffffffff168152602001908152602001600020549050919050565b6000600154905090565b804710156109cc576040517f08c379a00000000000000000000000000000000000000000000000000000000081526004016109c39061127c565b60405180910390fd5b60008273ffffffffffffffffffffffffffffffffffffffff16826040516109f290611198565b60006040518083038185875af1925050503d8060008114610a2f576040519150601f19603f3d011682016040523d82523d6000602084013e610a34565b606091505b5050905080610a78576040517f08c379a0000000000000000000000000000000000000000000000000000000008152600401610a6f9061125c565b60405180910390fd5b505050565b610afe8363a9059cbb60e01b8484604051602401610a9c9291906111f1565b604051602081830303815290604052907bffffffffffffffffffffffffffffffffffffffffffffffffffffffff19166020820180517bffffffffffffffffffffffffffffffffffffffffffffffffffffffff8381831617835250505050610b71565b505050565b600081600054600260008773ffffffffffffffffffffffffffffffffffffffff1673ffffffffffffffffffffffffffffffffffffffff1681526020019081526020016000205485610b5491906113f0565b610b5e91906113bf565b610b68919061144a565b90509392505050565b6000610bd3826040518060400160405280602081526020017f5361666545524332303a206c6f772d6c6576656c2063616c6c206661696c65648152508573ffffffffffffffffffffffffffffffffffffffff16610c389092919063ffffffff16565b9050600081511115610c335780806020019051810190610bf39190610ede565b610c32576040517f08c379a0000000000000000000000000000000000000000000000000000000008152600401610c29906112fc565b60405180910390fd5b5b505050565b6060610c478484600085610c50565b90509392505050565b606082471015610c95576040517f08c379a0000000000000000000000000000000000000000000000000000000008152600401610c8c9061129c565b60405180910390fd5b6000808673ffffffffffffffffffffffffffffffffffffffff168587604051610cbe9190611181565b60006040518083038185875af1925050503d8060008114610cfb576040519150601f19603f3d011682016040523d82523d6000602084013e610d00565b606091505b5091509150610d1187838387610d1d565b92505050949350505050565b60608315610d8057600083511415610d7857610d3885610d93565b610d77576040517f08c379a0000000000000000000000000000000000000000000000000000000008152600401610d6e906112dc565b60405180910390fd5b5b829050610d8b565b610d8a8383610db6565b5b949350505050565b6000808273ffffffffffffffffffffffffffffffffffffffff163b119050919050565b600082511115610dc95781518083602001fd5b806040517f08c379a0000000000000000000000000000000000000000000000000000000008152600401610dfd919061121a565b60405180910390fd5b600081359050610e15816117d6565b92915050565b600081359050610e2a816117ed565b92915050565b600081519050610e3f81611804565b92915050565b600081359050610e548161181b565b92915050565b600081359050610e6981611832565b92915050565b600081519050610e7e81611832565b92915050565b600060208284031215610e9a57610e996115e0565b5b6000610ea884828501610e06565b91505092915050565b600060208284031215610ec757610ec66115e0565b5b6000610ed584828501610e1b565b91505092915050565b600060208284031215610ef457610ef36115e0565b5b6000610f0284828501610e30565b91505092915050565b600060208284031215610f2157610f206115e0565b5b6000610f2f84828501610e45565b91505092915050565b60008060408385031215610f4f57610f4e6115e0565b5b6000610f5d85828601610e45565b9250506020610f6e85828601610e06565b9150509250929050565b600060208284031215610f8e57610f8d6115e0565b5b6000610f9c84828501610e5a565b91505092915050565b600060208284031215610fbb57610fba6115e0565b5b6000610fc984828501610e6f565b91505092915050565b610fdb816114ea565b82525050565b610fea8161147e565b82525050565b6000610ffb82611337565b611005818561134d565b9350611015818560208601611520565b80840191505092915050565b600061102c82611342565b6110368185611358565b9350611046818560208601611520565b61104f816115e5565b840191505092915050565b6000611067602683611358565b9150611072826115f6565b604082019050919050565b600061108a603a83611358565b915061109582611645565b604082019050919050565b60006110ad601d83611358565b91506110b882611694565b602082019050919050565b60006110d0602683611358565b91506110db826116bd565b604082019050919050565b60006110f3602b83611358565b91506110fe8261170c565b604082019050919050565b600061111660008361134d565b91506111218261175b565b600082019050919050565b6000611139601d83611358565b91506111448261175e565b602082019050919050565b600061115c602a83611358565b915061116782611787565b604082019050919050565b61117b816114e0565b82525050565b600061118d8284610ff0565b915081905092915050565b60006111a382611109565b9150819050919050565b60006020820190506111c26000830184610fe1565b92915050565b60006040820190506111dd6000830185610fd2565b6111ea6020830184611172565b9392505050565b60006040820190506112066000830185610fe1565b6112136020830184611172565b9392505050565b600060208201905081810360008301526112348184611021565b905092915050565b600060208201905081810360008301526112558161105a565b9050919050565b600060208201905081810360008301526112758161107d565b9050919050565b60006020820190508181036000830152611295816110a0565b9050919050565b600060208201905081810360008301526112b5816110c3565b9050919050565b600060208201905081810360008301526112d5816110e6565b9050919050565b600060208201905081810360008301526112f58161112c565b9050919050565b600060208201905081810360008301526113158161114f565b9050919050565b60006020820190506113316000830184611172565b92915050565b600081519050919050565b600081519050919050565b600081905092915050565b600082825260208201905092915050565b6000611374826114e0565b915061137f836114e0565b9250827fffffffffffffffffffffffffffffffffffffffffffffffffffffffffffffffff038211156113b4576113b3611553565b5b828201905092915050565b60006113ca826114e0565b91506113d5836114e0565b9250826113e5576113e4611582565b5b828204905092915050565b60006113fb826114e0565b9150611406836114e0565b9250817fffffffffffffffffffffffffffffffffffffffffffffffffffffffffffffffff048311821515161561143f5761143e611553565b5b828202905092915050565b6000611455826114e0565b9150611460836114e0565b92508282101561147357611472611553565b5b828203905092915050565b6000611489826114c0565b9050919050565b600061149b826114c0565b9050919050565b60008115159050919050565b60006114b98261147e565b9050919050565b600073ffffffffffffffffffffffffffffffffffffffff82169050919050565b6000819050919050565b60006114f5826114fc565b9050919050565b60006115078261150e565b9050919050565b6000611519826114c0565b9050919050565b60005b8381101561153e578082015181840152602081019050611523565b8381111561154d576000848401525b50505050565b7f4e487b7100000000000000000000000000000000000000000000000000000000600052601160045260246000fd5b7f4e487b7100000000000000000000000000000000000000000000000000000000600052601260045260246000fd5b7f4e487b7100000000000000000000000000000000000000000000000000000000600052603260045260246000fd5b600080fd5b6000601f19601f8301169050919050565b7f5061796d656e7453706c69747465723a206163636f756e7420686173206e6f2060008201527f7368617265730000000000000000000000000000000000000000000000000000602082015250565b7f416464726573733a20756e61626c6520746f2073656e642076616c75652c207260008201527f6563697069656e74206d61792068617665207265766572746564000000000000602082015250565b7f416464726573733a20696e73756666696369656e742062616c616e6365000000600082015250565b7f416464726573733a20696e73756666696369656e742062616c616e636520666f60008201527f722063616c6c0000000000000000000000000000000000000000000000000000602082015250565b7f5061796d656e7453706c69747465723a206163636f756e74206973206e6f742060008201527f647565207061796d656e74000000000000000000000000000000000000000000602082015250565b50565b7f416464726573733a2063616c6c20746f206e6f6e2d636f6e7472616374000000600082015250565b7f5361666545524332303a204552433230206f7065726174696f6e20646964206e60008201527f6f74207375636365656400000000000000000000000000000000000000000000602082015250565b6117df8161147e565b81146117ea57600080fd5b50565b6117f681611490565b811461180157600080fd5b50565b61180d816114a2565b811461181857600080fd5b50565b611824816114ae565b811461182f57600080fd5b50565b61183b816114e0565b811461184657600080fd5b5056fea2646970667358221220076ca5badc38e810b6c08f0df151bf3b378c669d49e7a556419a9bd7a24c41b064736f6c63430008070033",
					"opcodes": "PUSH1 0x80 PUSH1 0x40 MSTORE PUSH1 0x40 MLOAD PUSH3 0x239F CODESIZE SUB DUP1 PUSH3 0x239F DUP4 CODECOPY DUP2 DUP2 ADD PUSH1 0x40 MSTORE DUP2 ADD SWAP1 PUSH3 0x29 SWAP2 SWAP1 PUSH3 0x4F3 JUMP JUMPDEST DUP1 MLOAD DUP3 MLOAD EQ PUSH3 0x70 JUMPI PUSH1 0x40 MLOAD PUSH32 0x8C379A000000000000000000000000000000000000000000000000000000000 DUP2 MSTORE PUSH1 0x4 ADD PUSH3 0x67 SWAP1 PUSH3 0x6AC JUMP JUMPDEST PUSH1 0x40 MLOAD DUP1 SWAP2 SUB SWAP1 REVERT JUMPDEST PUSH1 0x0 DUP3 MLOAD GT PUSH3 0xB7 JUMPI PUSH1 0x40 MLOAD PUSH32 0x8C379A000000000000000000000000000000000000000000000000000000000 DUP2 MSTORE PUSH1 0x4 ADD PUSH3 0xAE SWAP1 PUSH3 0x6F0 JUMP JUMPDEST PUSH1 0x40 MLOAD DUP1 SWAP2 SUB SWAP1 REVERT JUMPDEST PUSH1 0x0 JUMPDEST DUP3 MLOAD DUP2 LT ISZERO PUSH3 0x126 JUMPI PUSH3 0x110 DUP4 DUP3 DUP2 MLOAD DUP2 LT PUSH3 0xDE JUMPI PUSH3 0xDD PUSH3 0x91A JUMP JUMPDEST JUMPDEST PUSH1 0x20 MUL PUSH1 0x20 ADD ADD MLOAD DUP4 DUP4 DUP2 MLOAD DUP2 LT PUSH3 0xFC JUMPI PUSH3 0xFB PUSH3 0x91A JUMP JUMPDEST JUMPDEST PUSH1 0x20 MUL PUSH1 0x20 ADD ADD MLOAD PUSH3 0x12F PUSH1 0x20 SHL PUSH1 0x20 SHR JUMP JUMPDEST DUP1 DUP1 PUSH3 0x11D SWAP1 PUSH3 0x89D JUMP JUMPDEST SWAP2 POP POP PUSH3 0xBA JUMP JUMPDEST POP POP POP PUSH3 0xB10 JUMP JUMPDEST PUSH1 0x0 PUSH20 0xFFFFFFFFFFFFFFFFFFFFFFFFFFFFFFFFFFFFFFFF AND DUP3 PUSH20 0xFFFFFFFFFFFFFFFFFFFFFFFFFFFFFFFFFFFFFFFF AND EQ ISZERO PUSH3 0x1A2 JUMPI PUSH1 0x40 MLOAD PUSH32 0x8C379A000000000000000000000000000000000000000000000000000000000 DUP2 MSTORE PUSH1 0x4 ADD PUSH3 0x199 SWAP1 PUSH3 0x68A JUMP JUMPDEST PUSH1 0x40 MLOAD DUP1 SWAP2 SUB SWAP1 REVERT JUMPDEST PUSH1 0x0 DUP2 GT PUSH3 0x1E8 JUMPI PUSH1 0x40 MLOAD PUSH32 0x8C379A000000000000000000000000000000000000000000000000000000000 DUP2 MSTORE PUSH1 0x4 ADD PUSH3 0x1DF SWAP1 PUSH3 0x712 JUMP JUMPDEST PUSH1 0x40 MLOAD DUP1 SWAP2 SUB SWAP1 REVERT JUMPDEST PUSH1 0x0 PUSH1 0x2 PUSH1 0x0 DUP5 PUSH20 0xFFFFFFFFFFFFFFFFFFFFFFFFFFFFFFFFFFFFFFFF AND PUSH20 0xFFFFFFFFFFFFFFFFFFFFFFFFFFFFFFFFFFFFFFFF AND DUP2 MSTORE PUSH1 0x20 ADD SWAP1 DUP2 MSTORE PUSH1 0x20 ADD PUSH1 0x0 KECCAK256 SLOAD EQ PUSH3 0x26D JUMPI PUSH1 0x40 MLOAD PUSH32 0x8C379A000000000000000000000000000000000000000000000000000000000 DUP2 MSTORE PUSH1 0x4 ADD PUSH3 0x264 SWAP1 PUSH3 0x6CE JUMP JUMPDEST PUSH1 0x40 MLOAD DUP1 SWAP2 SUB SWAP1 REVERT JUMPDEST PUSH1 0x4 DUP3 SWAP1 DUP1 PUSH1 0x1 DUP2 SLOAD ADD DUP1 DUP3 SSTORE DUP1 SWAP2 POP POP PUSH1 0x1 SWAP1 SUB SWAP1 PUSH1 0x0 MSTORE PUSH1 0x20 PUSH1 0x0 KECCAK256 ADD PUSH1 0x0 SWAP1 SWAP2 SWAP1 SWAP2 SWAP1 SWAP2 PUSH2 0x100 EXP DUP2 SLOAD DUP2 PUSH20 0xFFFFFFFFFFFFFFFFFFFFFFFFFFFFFFFFFFFFFFFF MUL NOT AND SWAP1 DUP4 PUSH20 0xFFFFFFFFFFFFFFFFFFFFFFFFFFFFFFFFFFFFFFFF AND MUL OR SWAP1 SSTORE POP DUP1 PUSH1 0x2 PUSH1 0x0 DUP5 PUSH20 0xFFFFFFFFFFFFFFFFFFFFFFFFFFFFFFFFFFFFFFFF AND PUSH20 0xFFFFFFFFFFFFFFFFFFFFFFFFFFFFFFFFFFFFFFFF AND DUP2 MSTORE PUSH1 0x20 ADD SWAP1 DUP2 MSTORE PUSH1 0x20 ADD PUSH1 0x0 KECCAK256 DUP2 SWAP1 SSTORE POP DUP1 PUSH1 0x0 SLOAD PUSH3 0x324 SWAP2 SWAP1 PUSH3 0x7CC JUMP JUMPDEST PUSH1 0x0 DUP2 SWAP1 SSTORE POP PUSH32 0x40C340F65E17194D14DDDDB073D3C9F888E3CB52B5AAE0C6C7706B4FBC905FAC DUP3 DUP3 PUSH1 0x40 MLOAD PUSH3 0x35D SWAP3 SWAP2 SWAP1 PUSH3 0x65D JUMP JUMPDEST PUSH1 0x40 MLOAD DUP1 SWAP2 SUB SWAP1 LOG1 POP POP JUMP JUMPDEST PUSH1 0x0 PUSH3 0x380 PUSH3 0x37A DUP5 PUSH3 0x75D JUMP JUMPDEST PUSH3 0x734 JUMP JUMPDEST SWAP1 POP DUP1 DUP4 DUP3 MSTORE PUSH1 0x20 DUP3 ADD SWAP1 POP DUP3 DUP6 PUSH1 0x20 DUP7 MUL DUP3 ADD GT ISZERO PUSH3 0x3A6 JUMPI PUSH3 0x3A5 PUSH3 0x97D JUMP JUMPDEST JUMPDEST PUSH1 0x0 JUMPDEST DUP6 DUP2 LT ISZERO PUSH3 0x3DA JUMPI DUP2 PUSH3 0x3BF DUP9 DUP3 PUSH3 0x45F JUMP JUMPDEST DUP5 MSTORE PUSH1 0x20 DUP5 ADD SWAP4 POP PUSH1 0x20 DUP4 ADD SWAP3 POP POP PUSH1 0x1 DUP2 ADD SWAP1 POP PUSH3 0x3A9 JUMP JUMPDEST POP POP POP SWAP4 SWAP3 POP POP POP JUMP JUMPDEST PUSH1 0x0 PUSH3 0x3FB PUSH3 0x3F5 DUP5 PUSH3 0x78C JUMP JUMPDEST PUSH3 0x734 JUMP JUMPDEST SWAP1 POP DUP1 DUP4 DUP3 MSTORE PUSH1 0x20 DUP3 ADD SWAP1 POP DUP3 DUP6 PUSH1 0x20 DUP7 MUL DUP3 ADD GT ISZERO PUSH3 0x421 JUMPI PUSH3 0x420 PUSH3 0x97D JUMP JUMPDEST JUMPDEST PUSH1 0x0 JUMPDEST DUP6 DUP2 LT ISZERO PUSH3 0x455 JUMPI DUP2 PUSH3 0x43A DUP9 DUP3 PUSH3 0x4DC JUMP JUMPDEST DUP5 MSTORE PUSH1 0x20 DUP5 ADD SWAP4 POP PUSH1 0x20 DUP4 ADD SWAP3 POP POP PUSH1 0x1 DUP2 ADD SWAP1 POP PUSH3 0x424 JUMP JUMPDEST POP POP POP SWAP4 SWAP3 POP POP POP JUMP JUMPDEST PUSH1 0x0 DUP2 MLOAD SWAP1 POP PUSH3 0x470 DUP2 PUSH3 0xADC JUMP JUMPDEST SWAP3 SWAP2 POP POP JUMP JUMPDEST PUSH1 0x0 DUP3 PUSH1 0x1F DUP4 ADD SLT PUSH3 0x48E JUMPI PUSH3 0x48D PUSH3 0x978 JUMP JUMPDEST JUMPDEST DUP2 MLOAD PUSH3 0x4A0 DUP5 DUP3 PUSH1 0x20 DUP7 ADD PUSH3 0x369 JUMP JUMPDEST SWAP2 POP POP SWAP3 SWAP2 POP POP JUMP JUMPDEST PUSH1 0x0 DUP3 PUSH1 0x1F DUP4 ADD SLT PUSH3 0x4C1 JUMPI PUSH3 0x4C0 PUSH3 0x978 JUMP JUMPDEST JUMPDEST DUP2 MLOAD PUSH3 0x4D3 DUP5 DUP3 PUSH1 0x20 DUP7 ADD PUSH3 0x3E4 JUMP JUMPDEST SWAP2 POP POP SWAP3 SWAP2 POP POP JUMP JUMPDEST PUSH1 0x0 DUP2 MLOAD SWAP1 POP PUSH3 0x4ED DUP2 PUSH3 0xAF6 JUMP JUMPDEST SWAP3 SWAP2 POP POP JUMP JUMPDEST PUSH1 0x0 DUP1 PUSH1 0x40 DUP4 DUP6 SUB SLT ISZERO PUSH3 0x50D JUMPI PUSH3 0x50C PUSH3 0x987 JUMP JUMPDEST JUMPDEST PUSH1 0x0 DUP4 ADD MLOAD PUSH8 0xFFFFFFFFFFFFFFFF DUP2 GT ISZERO PUSH3 0x52E JUMPI PUSH3 0x52D PUSH3 0x982 JUMP JUMPDEST JUMPDEST PUSH3 0x53C DUP6 DUP3 DUP7 ADD PUSH3 0x476 JUMP JUMPDEST SWAP3 POP POP PUSH1 0x20 DUP4 ADD MLOAD PUSH8 0xFFFFFFFFFFFFFFFF DUP2 GT ISZERO PUSH3 0x560 JUMPI PUSH3 0x55F PUSH3 0x982 JUMP JUMPDEST JUMPDEST PUSH3 0x56E DUP6 DUP3 DUP7 ADD PUSH3 0x4A9 JUMP JUMPDEST SWAP2 POP POP SWAP3 POP SWAP3 SWAP1 POP JUMP JUMPDEST PUSH3 0x583 DUP2 PUSH3 0x829 JUMP JUMPDEST DUP3 MSTORE POP POP JUMP JUMPDEST PUSH1 0x0 PUSH3 0x598 PUSH1 0x2C DUP4 PUSH3 0x7BB JUMP JUMPDEST SWAP2 POP PUSH3 0x5A5 DUP3 PUSH3 0x99D JUMP JUMPDEST PUSH1 0x40 DUP3 ADD SWAP1 POP SWAP2 SWAP1 POP JUMP JUMPDEST PUSH1 0x0 PUSH3 0x5BF PUSH1 0x32 DUP4 PUSH3 0x7BB JUMP JUMPDEST SWAP2 POP PUSH3 0x5CC DUP3 PUSH3 0x9EC JUMP JUMPDEST PUSH1 0x40 DUP3 ADD SWAP1 POP SWAP2 SWAP1 POP JUMP JUMPDEST PUSH1 0x0 PUSH3 0x5E6 PUSH1 0x2B DUP4 PUSH3 0x7BB JUMP JUMPDEST SWAP2 POP PUSH3 0x5F3 DUP3 PUSH3 0xA3B JUMP JUMPDEST PUSH1 0x40 DUP3 ADD SWAP1 POP SWAP2 SWAP1 POP JUMP JUMPDEST PUSH1 0x0 PUSH3 0x60D PUSH1 0x1A DUP4 PUSH3 0x7BB JUMP JUMPDEST SWAP2 POP PUSH3 0x61A DUP3 PUSH3 0xA8A JUMP JUMPDEST PUSH1 0x20 DUP3 ADD SWAP1 POP SWAP2 SWAP1 POP JUMP JUMPDEST PUSH1 0x0 PUSH3 0x634 PUSH1 0x1D DUP4 PUSH3 0x7BB JUMP JUMPDEST SWAP2 POP PUSH3 0x641 DUP3 PUSH3 0xAB3 JUMP JUMPDEST PUSH1 0x20 DUP3 ADD SWAP1 POP SWAP2 SWAP1 POP JUMP JUMPDEST PUSH3 0x657 DUP2 PUSH3 0x85D JUMP JUMPDEST DUP3 MSTORE POP POP JUMP JUMPDEST PUSH1 0x0 PUSH1 0x40 DUP3 ADD SWAP1 POP PUSH3 0x674 PUSH1 0x0 DUP4 ADD DUP6 PUSH3 0x578 JUMP JUMPDEST PUSH3 0x683 PUSH1 0x20 DUP4 ADD DUP5 PUSH3 0x64C JUMP JUMPDEST SWAP4 SWAP3 POP POP POP JUMP JUMPDEST PUSH1 0x0 PUSH1 0x20 DUP3 ADD SWAP1 POP DUP2 DUP2 SUB PUSH1 0x0 DUP4 ADD MSTORE PUSH3 0x6A5 DUP2 PUSH3 0x589 JUMP JUMPDEST SWAP1 POP SWAP2 SWAP1 POP JUMP JUMPDEST PUSH1 0x0 PUSH1 0x20 DUP3 ADD SWAP1 POP DUP2 DUP2 SUB PUSH1 0x0 DUP4 ADD MSTORE PUSH3 0x6C7 DUP2 PUSH3 0x5B0 JUMP JUMPDEST SWAP1 POP SWAP2 SWAP1 POP JUMP JUMPDEST PUSH1 0x0 PUSH1 0x20 DUP3 ADD SWAP1 POP DUP2 DUP2 SUB PUSH1 0x0 DUP4 ADD MSTORE PUSH3 0x6E9 DUP2 PUSH3 0x5D7 JUMP JUMPDEST SWAP1 POP SWAP2 SWAP1 POP JUMP JUMPDEST PUSH1 0x0 PUSH1 0x20 DUP3 ADD SWAP1 POP DUP2 DUP2 SUB PUSH1 0x0 DUP4 ADD MSTORE PUSH3 0x70B DUP2 PUSH3 0x5FE JUMP JUMPDEST SWAP1 POP SWAP2 SWAP1 POP JUMP JUMPDEST PUSH1 0x0 PUSH1 0x20 DUP3 ADD SWAP1 POP DUP2 DUP2 SUB PUSH1 0x0 DUP4 ADD MSTORE PUSH3 0x72D DUP2 PUSH3 0x625 JUMP JUMPDEST SWAP1 POP SWAP2 SWAP1 POP JUMP JUMPDEST PUSH1 0x0 PUSH3 0x740 PUSH3 0x753 JUMP JUMPDEST SWAP1 POP PUSH3 0x74E DUP3 DUP3 PUSH3 0x867 JUMP JUMPDEST SWAP2 SWAP1 POP JUMP JUMPDEST PUSH1 0x0 PUSH1 0x40 MLOAD SWAP1 POP SWAP1 JUMP JUMPDEST PUSH1 0x0 PUSH8 0xFFFFFFFFFFFFFFFF DUP3 GT ISZERO PUSH3 0x77B JUMPI PUSH3 0x77A PUSH3 0x949 JUMP JUMPDEST JUMPDEST PUSH1 0x20 DUP3 MUL SWAP1 POP PUSH1 0x20 DUP2 ADD SWAP1 POP SWAP2 SWAP1 POP JUMP JUMPDEST PUSH1 0x0 PUSH8 0xFFFFFFFFFFFFFFFF DUP3 GT ISZERO PUSH3 0x7AA JUMPI PUSH3 0x7A9 PUSH3 0x949 JUMP JUMPDEST JUMPDEST PUSH1 0x20 DUP3 MUL SWAP1 POP PUSH1 0x20 DUP2 ADD SWAP1 POP SWAP2 SWAP1 POP JUMP JUMPDEST PUSH1 0x0 DUP3 DUP3 MSTORE PUSH1 0x20 DUP3 ADD SWAP1 POP SWAP3 SWAP2 POP POP JUMP JUMPDEST PUSH1 0x0 PUSH3 0x7D9 DUP3 PUSH3 0x85D JUMP JUMPDEST SWAP2 POP PUSH3 0x7E6 DUP4 PUSH3 0x85D JUMP JUMPDEST SWAP3 POP DUP3 PUSH32 0xFFFFFFFFFFFFFFFFFFFFFFFFFFFFFFFFFFFFFFFFFFFFFFFFFFFFFFFFFFFFFFFF SUB DUP3 GT ISZERO PUSH3 0x81E JUMPI PUSH3 0x81D PUSH3 0x8EB JUMP JUMPDEST JUMPDEST DUP3 DUP3 ADD SWAP1 POP SWAP3 SWAP2 POP POP JUMP JUMPDEST PUSH1 0x0 PUSH3 0x836 DUP3 PUSH3 0x83D JUMP JUMPDEST SWAP1 POP SWAP2 SWAP1 POP JUMP JUMPDEST PUSH1 0x0 PUSH20 0xFFFFFFFFFFFFFFFFFFFFFFFFFFFFFFFFFFFFFFFF DUP3 AND SWAP1 POP SWAP2 SWAP1 POP JUMP JUMPDEST PUSH1 0x0 DUP2 SWAP1 POP SWAP2 SWAP1 POP JUMP JUMPDEST PUSH3 0x872 DUP3 PUSH3 0x98C JUMP JUMPDEST DUP2 ADD DUP2 DUP2 LT PUSH8 0xFFFFFFFFFFFFFFFF DUP3 GT OR ISZERO PUSH3 0x894 JUMPI PUSH3 0x893 PUSH3 0x949 JUMP JUMPDEST JUMPDEST DUP1 PUSH1 0x40 MSTORE POP POP POP JUMP JUMPDEST PUSH1 0x0 PUSH3 0x8AA DUP3 PUSH3 0x85D JUMP JUMPDEST SWAP2 POP PUSH32 0xFFFFFFFFFFFFFFFFFFFFFFFFFFFFFFFFFFFFFFFFFFFFFFFFFFFFFFFFFFFFFFFF DUP3 EQ ISZERO PUSH3 0x8E0 JUMPI PUSH3 0x8DF PUSH3 0x8EB JUMP JUMPDEST JUMPDEST PUSH1 0x1 DUP3 ADD SWAP1 POP SWAP2 SWAP1 POP JUMP JUMPDEST PUSH32 0x4E487B7100000000000000000000000000000000000000000000000000000000 PUSH1 0x0 MSTORE PUSH1 0x11 PUSH1 0x4 MSTORE PUSH1 0x24 PUSH1 0x0 REVERT JUMPDEST PUSH32 0x4E487B7100000000000000000000000000000000000000000000000000000000 PUSH1 0x0 MSTORE PUSH1 0x32 PUSH1 0x4 MSTORE PUSH1 0x24 PUSH1 0x0 REVERT JUMPDEST PUSH32 0x4E487B7100000000000000000000000000000000000000000000000000000000 PUSH1 0x0 MSTORE PUSH1 0x41 PUSH1 0x4 MSTORE PUSH1 0x24 PUSH1 0x0 REVERT JUMPDEST PUSH1 0x0 DUP1 REVERT JUMPDEST PUSH1 0x0 DUP1 REVERT JUMPDEST PUSH1 0x0 DUP1 REVERT JUMPDEST PUSH1 0x0 DUP1 REVERT JUMPDEST PUSH1 0x0 PUSH1 0x1F NOT PUSH1 0x1F DUP4 ADD AND SWAP1 POP SWAP2 SWAP1 POP JUMP JUMPDEST PUSH32 0x5061796D656E7453706C69747465723A206163636F756E742069732074686520 PUSH1 0x0 DUP3 ADD MSTORE PUSH32 0x7A65726F20616464726573730000000000000000000000000000000000000000 PUSH1 0x20 DUP3 ADD MSTORE POP JUMP JUMPDEST PUSH32 0x5061796D656E7453706C69747465723A2070617965657320616E642073686172 PUSH1 0x0 DUP3 ADD MSTORE PUSH32 0x6573206C656E677468206D69736D617463680000000000000000000000000000 PUSH1 0x20 DUP3 ADD MSTORE POP JUMP JUMPDEST PUSH32 0x5061796D656E7453706C69747465723A206163636F756E7420616C7265616479 PUSH1 0x0 DUP3 ADD MSTORE PUSH32 0x2068617320736861726573000000000000000000000000000000000000000000 PUSH1 0x20 DUP3 ADD MSTORE POP JUMP JUMPDEST PUSH32 0x5061796D656E7453706C69747465723A206E6F20706179656573000000000000 PUSH1 0x0 DUP3 ADD MSTORE POP JUMP JUMPDEST PUSH32 0x5061796D656E7453706C69747465723A20736861726573206172652030000000 PUSH1 0x0 DUP3 ADD MSTORE POP JUMP JUMPDEST PUSH3 0xAE7 DUP2 PUSH3 0x829 JUMP JUMPDEST DUP2 EQ PUSH3 0xAF3 JUMPI PUSH1 0x0 DUP1 REVERT JUMPDEST POP JUMP JUMPDEST PUSH3 0xB01 DUP2 PUSH3 0x85D JUMP JUMPDEST DUP2 EQ PUSH3 0xB0D JUMPI PUSH1 0x0 DUP1 REVERT JUMPDEST POP JUMP JUMPDEST PUSH2 0x187F DUP1 PUSH3 0xB20 PUSH1 0x0 CODECOPY PUSH1 0x0 RETURN INVALID PUSH1 0x80 PUSH1 0x40 MSTORE PUSH1 0x4 CALLDATASIZE LT PUSH2 0xA0 JUMPI PUSH1 0x0 CALLDATALOAD PUSH1 0xE0 SHR DUP1 PUSH4 0x9852595C GT PUSH2 0x64 JUMPI DUP1 PUSH4 0x9852595C EQ PUSH2 0x1E3 JUMPI DUP1 PUSH4 0xA3F8EACE EQ PUSH2 0x220 JUMPI DUP1 PUSH4 0xC45AC050 EQ PUSH2 0x25D JUMPI DUP1 PUSH4 0xCE7C2AC2 EQ PUSH2 0x29A JUMPI DUP1 PUSH4 0xD79779B2 EQ PUSH2 0x2D7 JUMPI DUP1 PUSH4 0xE33B7DE3 EQ PUSH2 0x314 JUMPI PUSH2 0xE7 JUMP JUMPDEST DUP1 PUSH4 0x19165587 EQ PUSH2 0xEC JUMPI DUP1 PUSH4 0x3A98EF39 EQ PUSH2 0x115 JUMPI DUP1 PUSH4 0x406072A9 EQ PUSH2 0x140 JUMPI DUP1 PUSH4 0x48B75044 EQ PUSH2 0x17D JUMPI DUP1 PUSH4 0x8B83209B EQ PUSH2 0x1A6 JUMPI PUSH2 0xE7 JUMP JUMPDEST CALLDATASIZE PUSH2 0xE7 JUMPI PUSH32 0x6EF95F06320E7A25A04A175CA677B7052BDD97131872C2192525A629F51BE770 PUSH2 0xCE PUSH2 0x33F JUMP JUMPDEST CALLVALUE PUSH1 0x40 MLOAD PUSH2 0xDD SWAP3 SWAP2 SWAP1 PUSH2 0x11F1 JUMP JUMPDEST PUSH1 0x40 MLOAD DUP1 SWAP2 SUB SWAP1 LOG1 STOP JUMPDEST PUSH1 0x0 DUP1 REVERT JUMPDEST CALLVALUE DUP1 ISZERO PUSH2 0xF8 JUMPI PUSH1 0x0 DUP1 REVERT JUMPDEST POP PUSH2 0x113 PUSH1 0x4 DUP1 CALLDATASIZE SUB DUP2 ADD SWAP1 PUSH2 0x10E SWAP2 SWAP1 PUSH2 0xEB1 JUMP JUMPDEST PUSH2 0x347 JUMP JUMPDEST STOP JUMPDEST CALLVALUE DUP1 ISZERO PUSH2 0x121 JUMPI PUSH1 0x0 DUP1 REVERT JUMPDEST POP PUSH2 0x12A PUSH2 0x4C7 JUMP JUMPDEST PUSH1 0x40 MLOAD PUSH2 0x137 SWAP2 SWAP1 PUSH2 0x131C JUMP JUMPDEST PUSH1 0x40 MLOAD DUP1 SWAP2 SUB SWAP1 RETURN JUMPDEST CALLVALUE DUP1 ISZERO PUSH2 0x14C JUMPI PUSH1 0x0 DUP1 REVERT JUMPDEST POP PUSH2 0x167 PUSH1 0x4 DUP1 CALLDATASIZE SUB DUP2 ADD SWAP1 PUSH2 0x162 SWAP2 SWAP1 PUSH2 0xF38 JUMP JUMPDEST PUSH2 0x4D0 JUMP JUMPDEST PUSH1 0x40 MLOAD PUSH2 0x174 SWAP2 SWAP1 PUSH2 0x131C JUMP JUMPDEST PUSH1 0x40 MLOAD DUP1 SWAP2 SUB SWAP1 RETURN JUMPDEST CALLVALUE DUP1 ISZERO PUSH2 0x189 JUMPI PUSH1 0x0 DUP1 REVERT JUMPDEST POP PUSH2 0x1A4 PUSH1 0x4 DUP1 CALLDATASIZE SUB DUP2 ADD SWAP1 PUSH2 0x19F SWAP2 SWAP1 PUSH2 0xF38 JUMP JUMPDEST PUSH2 0x557 JUMP JUMPDEST STOP JUMPDEST CALLVALUE DUP1 ISZERO PUSH2 0x1B2 JUMPI PUSH1 0x0 DUP1 REVERT JUMPDEST POP PUSH2 0x1CD PUSH1 0x4 DUP1 CALLDATASIZE SUB DUP2 ADD SWAP1 PUSH2 0x1C8 SWAP2 SWAP1 PUSH2 0xF78 JUMP JUMPDEST PUSH2 0x76B JUMP JUMPDEST PUSH1 0x40 MLOAD PUSH2 0x1DA SWAP2 SWAP1 PUSH2 0x11AD JUMP JUMPDEST PUSH1 0x40 MLOAD DUP1 SWAP2 SUB SWAP1 RETURN JUMPDEST CALLVALUE DUP1 ISZERO PUSH2 0x1EF JUMPI PUSH1 0x0 DUP1 REVERT JUMPDEST POP PUSH2 0x20A PUSH1 0x4 DUP1 CALLDATASIZE SUB DUP2 ADD SWAP1 PUSH2 0x205 SWAP2 SWAP1 PUSH2 0xE84 JUMP JUMPDEST PUSH2 0x7B3 JUMP JUMPDEST PUSH1 0x40 MLOAD PUSH2 0x217 SWAP2 SWAP1 PUSH2 0x131C JUMP JUMPDEST PUSH1 0x40 MLOAD DUP1 SWAP2 SUB SWAP1 RETURN JUMPDEST CALLVALUE DUP1 ISZERO PUSH2 0x22C JUMPI PUSH1 0x0 DUP1 REVERT JUMPDEST POP PUSH2 0x247 PUSH1 0x4 DUP1 CALLDATASIZE SUB DUP2 ADD SWAP1 PUSH2 0x242 SWAP2 SWAP1 PUSH2 0xE84 JUMP JUMPDEST PUSH2 0x7FC JUMP JUMPDEST PUSH1 0x40 MLOAD PUSH2 0x254 SWAP2 SWAP1 PUSH2 0x131C JUMP JUMPDEST PUSH1 0x40 MLOAD DUP1 SWAP2 SUB SWAP1 RETURN JUMPDEST CALLVALUE DUP1 ISZERO PUSH2 0x269 JUMPI PUSH1 0x0 DUP1 REVERT JUMPDEST POP PUSH2 0x284 PUSH1 0x4 DUP1 CALLDATASIZE SUB DUP2 ADD SWAP1 PUSH2 0x27F SWAP2 SWAP1 PUSH2 0xF38 JUMP JUMPDEST PUSH2 0x82F JUMP JUMPDEST PUSH1 0x40 MLOAD PUSH2 0x291 SWAP2 SWAP1 PUSH2 0x131C JUMP JUMPDEST PUSH1 0x40 MLOAD DUP1 SWAP2 SUB SWAP1 RETURN JUMPDEST CALLVALUE DUP1 ISZERO PUSH2 0x2A6 JUMPI PUSH1 0x0 DUP1 REVERT JUMPDEST POP PUSH2 0x2C1 PUSH1 0x4 DUP1 CALLDATASIZE SUB DUP2 ADD SWAP1 PUSH2 0x2BC SWAP2 SWAP1 PUSH2 0xE84 JUMP JUMPDEST PUSH2 0x8ED JUMP JUMPDEST PUSH1 0x40 MLOAD PUSH2 0x2CE SWAP2 SWAP1 PUSH2 0x131C JUMP JUMPDEST PUSH1 0x40 MLOAD DUP1 SWAP2 SUB SWAP1 RETURN JUMPDEST CALLVALUE DUP1 ISZERO PUSH2 0x2E3 JUMPI PUSH1 0x0 DUP1 REVERT JUMPDEST POP PUSH2 0x2FE PUSH1 0x4 DUP1 CALLDATASIZE SUB DUP2 ADD SWAP1 PUSH2 0x2F9 SWAP2 SWAP1 PUSH2 0xF0B JUMP JUMPDEST PUSH2 0x936 JUMP JUMPDEST PUSH1 0x40 MLOAD PUSH2 0x30B SWAP2 SWAP1 PUSH2 0x131C JUMP JUMPDEST PUSH1 0x40 MLOAD DUP1 SWAP2 SUB SWAP1 RETURN JUMPDEST CALLVALUE DUP1 ISZERO PUSH2 0x320 JUMPI PUSH1 0x0 DUP1 REVERT JUMPDEST POP PUSH2 0x329 PUSH2 0x97F JUMP JUMPDEST PUSH1 0x40 MLOAD PUSH2 0x336 SWAP2 SWAP1 PUSH2 0x131C JUMP JUMPDEST PUSH1 0x40 MLOAD DUP1 SWAP2 SUB SWAP1 RETURN JUMPDEST PUSH1 0x0 CALLER SWAP1 POP SWAP1 JUMP JUMPDEST PUSH1 0x0 PUSH1 0x2 PUSH1 0x0 DUP4 PUSH20 0xFFFFFFFFFFFFFFFFFFFFFFFFFFFFFFFFFFFFFFFF AND PUSH20 0xFFFFFFFFFFFFFFFFFFFFFFFFFFFFFFFFFFFFFFFF AND DUP2 MSTORE PUSH1 0x20 ADD SWAP1 DUP2 MSTORE PUSH1 0x20 ADD PUSH1 0x0 KECCAK256 SLOAD GT PUSH2 0x3C9 JUMPI PUSH1 0x40 MLOAD PUSH32 0x8C379A000000000000000000000000000000000000000000000000000000000 DUP2 MSTORE PUSH1 0x4 ADD PUSH2 0x3C0 SWAP1 PUSH2 0x123C JUMP JUMPDEST PUSH1 0x40 MLOAD DUP1 SWAP2 SUB SWAP1 REVERT JUMPDEST PUSH1 0x0 PUSH2 0x3D4 DUP3 PUSH2 0x7FC JUMP JUMPDEST SWAP1 POP PUSH1 0x0 DUP2 EQ ISZERO PUSH2 0x41A JUMPI PUSH1 0x40 MLOAD PUSH32 0x8C379A000000000000000000000000000000000000000000000000000000000 DUP2 MSTORE PUSH1 0x4 ADD PUSH2 0x411 SWAP1 PUSH2 0x12BC JUMP JUMPDEST PUSH1 0x40 MLOAD DUP1 SWAP2 SUB SWAP1 REVERT JUMPDEST DUP1 PUSH1 0x1 PUSH1 0x0 DUP3 DUP3 SLOAD PUSH2 0x42C SWAP2 SWAP1 PUSH2 0x1369 JUMP JUMPDEST SWAP3 POP POP DUP2 SWAP1 SSTORE POP DUP1 PUSH1 0x3 PUSH1 0x0 DUP5 PUSH20 0xFFFFFFFFFFFFFFFFFFFFFFFFFFFFFFFFFFFFFFFF AND PUSH20 0xFFFFFFFFFFFFFFFFFFFFFFFFFFFFFFFFFFFFFFFF AND DUP2 MSTORE PUSH1 0x20 ADD SWAP1 DUP2 MSTORE PUSH1 0x20 ADD PUSH1 0x0 KECCAK256 PUSH1 0x0 DUP3 DUP3 SLOAD ADD SWAP3 POP POP DUP2 SWAP1 SSTORE POP PUSH2 0x48A DUP3 DUP3 PUSH2 0x989 JUMP JUMPDEST PUSH32 0xDF20FD1E76BC69D672E4814FAFB2C449BBA3A5369D8359ADF9E05E6FDE87B056 DUP3 DUP3 PUSH1 0x40 MLOAD PUSH2 0x4BB SWAP3 SWAP2 SWAP1 PUSH2 0x11C8 JUMP JUMPDEST PUSH1 0x40 MLOAD DUP1 SWAP2 SUB SWAP1 LOG1 POP POP JUMP JUMPDEST PUSH1 0x0 DUP1 SLOAD SWAP1 POP SWAP1 JUMP JUMPDEST PUSH1 0x0 PUSH1 0x6 PUSH1 0x0 DUP5 PUSH20 0xFFFFFFFFFFFFFFFFFFFFFFFFFFFFFFFFFFFFFFFF AND PUSH20 0xFFFFFFFFFFFFFFFFFFFFFFFFFFFFFFFFFFFFFFFF AND DUP2 MSTORE PUSH1 0x20 ADD SWAP1 DUP2 MSTORE PUSH1 0x20 ADD PUSH1 0x0 KECCAK256 PUSH1 0x0 DUP4 PUSH20 0xFFFFFFFFFFFFFFFFFFFFFFFFFFFFFFFFFFFFFFFF AND PUSH20 0xFFFFFFFFFFFFFFFFFFFFFFFFFFFFFFFFFFFFFFFF AND DUP2 MSTORE PUSH1 0x20 ADD SWAP1 DUP2 MSTORE PUSH1 0x20 ADD PUSH1 0x0 KECCAK256 SLOAD SWAP1 POP SWAP3 SWAP2 POP POP JUMP JUMPDEST PUSH1 0x0 PUSH1 0x2 PUSH1 0x0 DUP4 PUSH20 0xFFFFFFFFFFFFFFFFFFFFFFFFFFFFFFFFFFFFFFFF AND PUSH20 0xFFFFFFFFFFFFFFFFFFFFFFFFFFFFFFFFFFFFFFFF AND DUP2 MSTORE PUSH1 0x20 ADD SWAP1 DUP2 MSTORE PUSH1 0x20 ADD PUSH1 0x0 KECCAK256 SLOAD GT PUSH2 0x5D9 JUMPI PUSH1 0x40 MLOAD PUSH32 0x8C379A000000000000000000000000000000000000000000000000000000000 DUP2 MSTORE PUSH1 0x4 ADD PUSH2 0x5D0 SWAP1 PUSH2 0x123C JUMP JUMPDEST PUSH1 0x40 MLOAD DUP1 SWAP2 SUB SWAP1 REVERT JUMPDEST PUSH1 0x0 PUSH2 0x5E5 DUP4 DUP4 PUSH2 0x82F JUMP JUMPDEST SWAP1 POP PUSH1 0x0 DUP2 EQ ISZERO PUSH2 0x62B JUMPI PUSH1 0x40 MLOAD PUSH32 0x8C379A000000000000000000000000000000000000000000000000000000000 DUP2 MSTORE PUSH1 0x4 ADD PUSH2 0x622 SWAP1 PUSH2 0x12BC JUMP JUMPDEST PUSH1 0x40 MLOAD DUP1 SWAP2 SUB SWAP1 REVERT JUMPDEST DUP1 PUSH1 0x5 PUSH1 0x0 DUP6 PUSH20 0xFFFFFFFFFFFFFFFFFFFFFFFFFFFFFFFFFFFFFFFF AND PUSH20 0xFFFFFFFFFFFFFFFFFFFFFFFFFFFFFFFFFFFFFFFF AND DUP2 MSTORE PUSH1 0x20 ADD SWAP1 DUP2 MSTORE PUSH1 0x20 ADD PUSH1 0x0 KECCAK256 PUSH1 0x0 DUP3 DUP3 SLOAD PUSH2 0x67A SWAP2 SWAP1 PUSH2 0x1369 JUMP JUMPDEST SWAP3 POP POP DUP2 SWAP1 SSTORE POP DUP1 PUSH1 0x6 PUSH1 0x0 DUP6 PUSH20 0xFFFFFFFFFFFFFFFFFFFFFFFFFFFFFFFFFFFFFFFF AND PUSH20 0xFFFFFFFFFFFFFFFFFFFFFFFFFFFFFFFFFFFFFFFF AND DUP2 MSTORE PUSH1 0x20 ADD SWAP1 DUP2 MSTORE PUSH1 0x20 ADD PUSH1 0x0 KECCAK256 PUSH1 0x0 DUP5 PUSH20 0xFFFFFFFFFFFFFFFFFFFFFFFFFFFFFFFFFFFFFFFF AND PUSH20 0xFFFFFFFFFFFFFFFFFFFFFFFFFFFFFFFFFFFFFFFF AND DUP2 MSTORE PUSH1 0x20 ADD SWAP1 DUP2 MSTORE PUSH1 0x20 ADD PUSH1 0x0 KECCAK256 PUSH1 0x0 DUP3 DUP3 SLOAD ADD SWAP3 POP POP DUP2 SWAP1 SSTORE POP PUSH2 0x716 DUP4 DUP4 DUP4 PUSH2 0xA7D JUMP JUMPDEST DUP3 PUSH20 0xFFFFFFFFFFFFFFFFFFFFFFFFFFFFFFFFFFFFFFFF AND PUSH32 0x3BE5B7A71E84ED12875D241991C70855AC5817D847039E17A9D895C1CEB0F18A DUP4 DUP4 PUSH1 0x40 MLOAD PUSH2 0x75E SWAP3 SWAP2 SWAP1 PUSH2 0x11F1 JUMP JUMPDEST PUSH1 0x40 MLOAD DUP1 SWAP2 SUB SWAP1 LOG2 POP POP POP JUMP JUMPDEST PUSH1 0x0 PUSH1 0x4 DUP3 DUP2 SLOAD DUP2 LT PUSH2 0x781 JUMPI PUSH2 0x780 PUSH2 0x15B1 JUMP JUMPDEST JUMPDEST SWAP1 PUSH1 0x0 MSTORE PUSH1 0x20 PUSH1 0x0 KECCAK256 ADD PUSH1 0x0 SWAP1 SLOAD SWAP1 PUSH2 0x100 EXP SWAP1 DIV PUSH20 0xFFFFFFFFFFFFFFFFFFFFFFFFFFFFFFFFFFFFFFFF AND SWAP1 POP SWAP2 SWAP1 POP JUMP JUMPDEST PUSH1 0x0 PUSH1 0x3 PUSH1 0x0 DUP4 PUSH20 0xFFFFFFFFFFFFFFFFFFFFFFFFFFFFFFFFFFFFFFFF AND PUSH20 0xFFFFFFFFFFFFFFFFFFFFFFFFFFFFFFFFFFFFFFFF AND DUP2 MSTORE PUSH1 0x20 ADD SWAP1 DUP2 MSTORE PUSH1 0x20 ADD PUSH1 0x0 KECCAK256 SLOAD SWAP1 POP SWAP2 SWAP1 POP JUMP JUMPDEST PUSH1 0x0 DUP1 PUSH2 0x807 PUSH2 0x97F JUMP JUMPDEST SELFBALANCE PUSH2 0x812 SWAP2 SWAP1 PUSH2 0x1369 JUMP JUMPDEST SWAP1 POP PUSH2 0x827 DUP4 DUP3 PUSH2 0x822 DUP7 PUSH2 0x7B3 JUMP JUMPDEST PUSH2 0xB03 JUMP JUMPDEST SWAP2 POP POP SWAP2 SWAP1 POP JUMP JUMPDEST PUSH1 0x0 DUP1 PUSH2 0x83B DUP5 PUSH2 0x936 JUMP JUMPDEST DUP5 PUSH20 0xFFFFFFFFFFFFFFFFFFFFFFFFFFFFFFFFFFFFFFFF AND PUSH4 0x70A08231 ADDRESS PUSH1 0x40 MLOAD DUP3 PUSH4 0xFFFFFFFF AND PUSH1 0xE0 SHL DUP2 MSTORE PUSH1 0x4 ADD PUSH2 0x874 SWAP2 SWAP1 PUSH2 0x11AD JUMP JUMPDEST PUSH1 0x20 PUSH1 0x40 MLOAD DUP1 DUP4 SUB DUP2 DUP7 DUP1 EXTCODESIZE ISZERO DUP1 ISZERO PUSH2 0x88C JUMPI PUSH1 0x0 DUP1 REVERT JUMPDEST POP GAS STATICCALL ISZERO DUP1 ISZERO PUSH2 0x8A0 JUMPI RETURNDATASIZE PUSH1 0x0 DUP1 RETURNDATACOPY RETURNDATASIZE PUSH1 0x0 REVERT JUMPDEST POP POP POP POP PUSH1 0x40 MLOAD RETURNDATASIZE PUSH1 0x1F NOT PUSH1 0x1F DUP3 ADD AND DUP3 ADD DUP1 PUSH1 0x40 MSTORE POP DUP2 ADD SWAP1 PUSH2 0x8C4 SWAP2 SWAP1 PUSH2 0xFA5 JUMP JUMPDEST PUSH2 0x8CE SWAP2 SWAP1 PUSH2 0x1369 JUMP JUMPDEST SWAP1 POP PUSH2 0x8E4 DUP4 DUP3 PUSH2 0x8DF DUP8 DUP8 PUSH2 0x4D0 JUMP JUMPDEST PUSH2 0xB03 JUMP JUMPDEST SWAP2 POP POP SWAP3 SWAP2 POP POP JUMP JUMPDEST PUSH1 0x0 PUSH1 0x2 PUSH1 0x0 DUP4 PUSH20 0xFFFFFFFFFFFFFFFFFFFFFFFFFFFFFFFFFFFFFFFF AND PUSH20 0xFFFFFFFFFFFFFFFFFFFFFFFFFFFFFFFFFFFFFFFF AND DUP2 MSTORE PUSH1 0x20 ADD SWAP1 DUP2 MSTORE PUSH1 0x20 ADD PUSH1 0x0 KECCAK256 SLOAD SWAP1 POP SWAP2 SWAP1 POP JUMP JUMPDEST PUSH1 0x0 PUSH1 0x5 PUSH1 0x0 DUP4 PUSH20 0xFFFFFFFFFFFFFFFFFFFFFFFFFFFFFFFFFFFFFFFF AND PUSH20 0xFFFFFFFFFFFFFFFFFFFFFFFFFFFFFFFFFFFFFFFF AND DUP2 MSTORE PUSH1 0x20 ADD SWAP1 DUP2 MSTORE PUSH1 0x20 ADD PUSH1 0x0 KECCAK256 SLOAD SWAP1 POP SWAP2 SWAP1 POP JUMP JUMPDEST PUSH1 0x0 PUSH1 0x1 SLOAD SWAP1 POP SWAP1 JUMP JUMPDEST DUP1 SELFBALANCE LT ISZERO PUSH2 0x9CC JUMPI PUSH1 0x40 MLOAD PUSH32 0x8C379A000000000000000000000000000000000000000000000000000000000 DUP2 MSTORE PUSH1 0x4 ADD PUSH2 0x9C3 SWAP1 PUSH2 0x127C JUMP JUMPDEST PUSH1 0x40 MLOAD DUP1 SWAP2 SUB SWAP1 REVERT JUMPDEST PUSH1 0x0 DUP3 PUSH20 0xFFFFFFFFFFFFFFFFFFFFFFFFFFFFFFFFFFFFFFFF AND DUP3 PUSH1 0x40 MLOAD PUSH2 0x9F2 SWAP1 PUSH2 0x1198 JUMP JUMPDEST PUSH1 0x0 PUSH1 0x40 MLOAD DUP1 DUP4 SUB DUP2 DUP6 DUP8 GAS CALL SWAP3 POP POP POP RETURNDATASIZE DUP1 PUSH1 0x0 DUP2 EQ PUSH2 0xA2F JUMPI PUSH1 0x40 MLOAD SWAP2 POP PUSH1 0x1F NOT PUSH1 0x3F RETURNDATASIZE ADD AND DUP3 ADD PUSH1 0x40 MSTORE RETURNDATASIZE DUP3 MSTORE RETURNDATASIZE PUSH1 0x0 PUSH1 0x20 DUP5 ADD RETURNDATACOPY PUSH2 0xA34 JUMP JUMPDEST PUSH1 0x60 SWAP2 POP JUMPDEST POP POP SWAP1 POP DUP1 PUSH2 0xA78 JUMPI PUSH1 0x40 MLOAD PUSH32 0x8C379A000000000000000000000000000000000000000000000000000000000 DUP2 MSTORE PUSH1 0x4 ADD PUSH2 0xA6F SWAP1 PUSH2 0x125C JUMP JUMPDEST PUSH1 0x40 MLOAD DUP1 SWAP2 SUB SWAP1 REVERT JUMPDEST POP POP POP JUMP JUMPDEST PUSH2 0xAFE DUP4 PUSH4 0xA9059CBB PUSH1 0xE0 SHL DUP5 DUP5 PUSH1 0x40 MLOAD PUSH1 0x24 ADD PUSH2 0xA9C SWAP3 SWAP2 SWAP1 PUSH2 0x11F1 JUMP JUMPDEST PUSH1 0x40 MLOAD PUSH1 0x20 DUP2 DUP4 SUB SUB DUP2 MSTORE SWAP1 PUSH1 0x40 MSTORE SWAP1 PUSH28 0xFFFFFFFFFFFFFFFFFFFFFFFFFFFFFFFFFFFFFFFFFFFFFFFFFFFFFFFF NOT AND PUSH1 0x20 DUP3 ADD DUP1 MLOAD PUSH28 0xFFFFFFFFFFFFFFFFFFFFFFFFFFFFFFFFFFFFFFFFFFFFFFFFFFFFFFFF DUP4 DUP2 DUP4 AND OR DUP4 MSTORE POP POP POP POP PUSH2 0xB71 JUMP JUMPDEST POP POP POP JUMP JUMPDEST PUSH1 0x0 DUP2 PUSH1 0x0 SLOAD PUSH1 0x2 PUSH1 0x0 DUP8 PUSH20 0xFFFFFFFFFFFFFFFFFFFFFFFFFFFFFFFFFFFFFFFF AND PUSH20 0xFFFFFFFFFFFFFFFFFFFFFFFFFFFFFFFFFFFFFFFF AND DUP2 MSTORE PUSH1 0x20 ADD SWAP1 DUP2 MSTORE PUSH1 0x20 ADD PUSH1 0x0 KECCAK256 SLOAD DUP6 PUSH2 0xB54 SWAP2 SWAP1 PUSH2 0x13F0 JUMP JUMPDEST PUSH2 0xB5E SWAP2 SWAP1 PUSH2 0x13BF JUMP JUMPDEST PUSH2 0xB68 SWAP2 SWAP1 PUSH2 0x144A JUMP JUMPDEST SWAP1 POP SWAP4 SWAP3 POP POP POP JUMP JUMPDEST PUSH1 0x0 PUSH2 0xBD3 DUP3 PUSH1 0x40 MLOAD DUP1 PUSH1 0x40 ADD PUSH1 0x40 MSTORE DUP1 PUSH1 0x20 DUP2 MSTORE PUSH1 0x20 ADD PUSH32 0x5361666545524332303A206C6F772D6C6576656C2063616C6C206661696C6564 DUP2 MSTORE POP DUP6 PUSH20 0xFFFFFFFFFFFFFFFFFFFFFFFFFFFFFFFFFFFFFFFF AND PUSH2 0xC38 SWAP1 SWAP3 SWAP2 SWAP1 PUSH4 0xFFFFFFFF AND JUMP JUMPDEST SWAP1 POP PUSH1 0x0 DUP2 MLOAD GT ISZERO PUSH2 0xC33 JUMPI DUP1 DUP1 PUSH1 0x20 ADD SWAP1 MLOAD DUP2 ADD SWAP1 PUSH2 0xBF3 SWAP2 SWAP1 PUSH2 0xEDE JUMP JUMPDEST PUSH2 0xC32 JUMPI PUSH1 0x40 MLOAD PUSH32 0x8C379A000000000000000000000000000000000000000000000000000000000 DUP2 MSTORE PUSH1 0x4 ADD PUSH2 0xC29 SWAP1 PUSH2 0x12FC JUMP JUMPDEST PUSH1 0x40 MLOAD DUP1 SWAP2 SUB SWAP1 REVERT JUMPDEST JUMPDEST POP POP POP JUMP JUMPDEST PUSH1 0x60 PUSH2 0xC47 DUP5 DUP5 PUSH1 0x0 DUP6 PUSH2 0xC50 JUMP JUMPDEST SWAP1 POP SWAP4 SWAP3 POP POP POP JUMP JUMPDEST PUSH1 0x60 DUP3 SELFBALANCE LT ISZERO PUSH2 0xC95 JUMPI PUSH1 0x40 MLOAD PUSH32 0x8C379A000000000000000000000000000000000000000000000000000000000 DUP2 MSTORE PUSH1 0x4 ADD PUSH2 0xC8C SWAP1 PUSH2 0x129C JUMP JUMPDEST PUSH1 0x40 MLOAD DUP1 SWAP2 SUB SWAP1 REVERT JUMPDEST PUSH1 0x0 DUP1 DUP7 PUSH20 0xFFFFFFFFFFFFFFFFFFFFFFFFFFFFFFFFFFFFFFFF AND DUP6 DUP8 PUSH1 0x40 MLOAD PUSH2 0xCBE SWAP2 SWAP1 PUSH2 0x1181 JUMP JUMPDEST PUSH1 0x0 PUSH1 0x40 MLOAD DUP1 DUP4 SUB DUP2 DUP6 DUP8 GAS CALL SWAP3 POP POP POP RETURNDATASIZE DUP1 PUSH1 0x0 DUP2 EQ PUSH2 0xCFB JUMPI PUSH1 0x40 MLOAD SWAP2 POP PUSH1 0x1F NOT PUSH1 0x3F RETURNDATASIZE ADD AND DUP3 ADD PUSH1 0x40 MSTORE RETURNDATASIZE DUP3 MSTORE RETURNDATASIZE PUSH1 0x0 PUSH1 0x20 DUP5 ADD RETURNDATACOPY PUSH2 0xD00 JUMP JUMPDEST PUSH1 0x60 SWAP2 POP JUMPDEST POP SWAP2 POP SWAP2 POP PUSH2 0xD11 DUP8 DUP4 DUP4 DUP8 PUSH2 0xD1D JUMP JUMPDEST SWAP3 POP POP POP SWAP5 SWAP4 POP POP POP POP JUMP JUMPDEST PUSH1 0x60 DUP4 ISZERO PUSH2 0xD80 JUMPI PUSH1 0x0 DUP4 MLOAD EQ ISZERO PUSH2 0xD78 JUMPI PUSH2 0xD38 DUP6 PUSH2 0xD93 JUMP JUMPDEST PUSH2 0xD77 JUMPI PUSH1 0x40 MLOAD PUSH32 0x8C379A000000000000000000000000000000000000000000000000000000000 DUP2 MSTORE PUSH1 0x4 ADD PUSH2 0xD6E SWAP1 PUSH2 0x12DC JUMP JUMPDEST PUSH1 0x40 MLOAD DUP1 SWAP2 SUB SWAP1 REVERT JUMPDEST JUMPDEST DUP3 SWAP1 POP PUSH2 0xD8B JUMP JUMPDEST PUSH2 0xD8A DUP4 DUP4 PUSH2 0xDB6 JUMP JUMPDEST JUMPDEST SWAP5 SWAP4 POP POP POP POP JUMP JUMPDEST PUSH1 0x0 DUP1 DUP3 PUSH20 0xFFFFFFFFFFFFFFFFFFFFFFFFFFFFFFFFFFFFFFFF AND EXTCODESIZE GT SWAP1 POP SWAP2 SWAP1 POP JUMP JUMPDEST PUSH1 0x0 DUP3 MLOAD GT ISZERO PUSH2 0xDC9 JUMPI DUP2 MLOAD DUP1 DUP4 PUSH1 0x20 ADD REVERT JUMPDEST DUP1 PUSH1 0x40 MLOAD PUSH32 0x8C379A000000000000000000000000000000000000000000000000000000000 DUP2 MSTORE PUSH1 0x4 ADD PUSH2 0xDFD SWAP2 SWAP1 PUSH2 0x121A JUMP JUMPDEST PUSH1 0x40 MLOAD DUP1 SWAP2 SUB SWAP1 REVERT JUMPDEST PUSH1 0x0 DUP2 CALLDATALOAD SWAP1 POP PUSH2 0xE15 DUP2 PUSH2 0x17D6 JUMP JUMPDEST SWAP3 SWAP2 POP POP JUMP JUMPDEST PUSH1 0x0 DUP2 CALLDATALOAD SWAP1 POP PUSH2 0xE2A DUP2 PUSH2 0x17ED JUMP JUMPDEST SWAP3 SWAP2 POP POP JUMP JUMPDEST PUSH1 0x0 DUP2 MLOAD SWAP1 POP PUSH2 0xE3F DUP2 PUSH2 0x1804 JUMP JUMPDEST SWAP3 SWAP2 POP POP JUMP JUMPDEST PUSH1 0x0 DUP2 CALLDATALOAD SWAP1 POP PUSH2 0xE54 DUP2 PUSH2 0x181B JUMP JUMPDEST SWAP3 SWAP2 POP POP JUMP JUMPDEST PUSH1 0x0 DUP2 CALLDATALOAD SWAP1 POP PUSH2 0xE69 DUP2 PUSH2 0x1832 JUMP JUMPDEST SWAP3 SWAP2 POP POP JUMP JUMPDEST PUSH1 0x0 DUP2 MLOAD SWAP1 POP PUSH2 0xE7E DUP2 PUSH2 0x1832 JUMP JUMPDEST SWAP3 SWAP2 POP POP JUMP JUMPDEST PUSH1 0x0 PUSH1 0x20 DUP3 DUP5 SUB SLT ISZERO PUSH2 0xE9A JUMPI PUSH2 0xE99 PUSH2 0x15E0 JUMP JUMPDEST JUMPDEST PUSH1 0x0 PUSH2 0xEA8 DUP5 DUP3 DUP6 ADD PUSH2 0xE06 JUMP JUMPDEST SWAP2 POP POP SWAP3 SWAP2 POP POP JUMP JUMPDEST PUSH1 0x0 PUSH1 0x20 DUP3 DUP5 SUB SLT ISZERO PUSH2 0xEC7 JUMPI PUSH2 0xEC6 PUSH2 0x15E0 JUMP JUMPDEST JUMPDEST PUSH1 0x0 PUSH2 0xED5 DUP5 DUP3 DUP6 ADD PUSH2 0xE1B JUMP JUMPDEST SWAP2 POP POP SWAP3 SWAP2 POP POP JUMP JUMPDEST PUSH1 0x0 PUSH1 0x20 DUP3 DUP5 SUB SLT ISZERO PUSH2 0xEF4 JUMPI PUSH2 0xEF3 PUSH2 0x15E0 JUMP JUMPDEST JUMPDEST PUSH1 0x0 PUSH2 0xF02 DUP5 DUP3 DUP6 ADD PUSH2 0xE30 JUMP JUMPDEST SWAP2 POP POP SWAP3 SWAP2 POP POP JUMP JUMPDEST PUSH1 0x0 PUSH1 0x20 DUP3 DUP5 SUB SLT ISZERO PUSH2 0xF21 JUMPI PUSH2 0xF20 PUSH2 0x15E0 JUMP JUMPDEST JUMPDEST PUSH1 0x0 PUSH2 0xF2F DUP5 DUP3 DUP6 ADD PUSH2 0xE45 JUMP JUMPDEST SWAP2 POP POP SWAP3 SWAP2 POP POP JUMP JUMPDEST PUSH1 0x0 DUP1 PUSH1 0x40 DUP4 DUP6 SUB SLT ISZERO PUSH2 0xF4F JUMPI PUSH2 0xF4E PUSH2 0x15E0 JUMP JUMPDEST JUMPDEST PUSH1 0x0 PUSH2 0xF5D DUP6 DUP3 DUP7 ADD PUSH2 0xE45 JUMP JUMPDEST SWAP3 POP POP PUSH1 0x20 PUSH2 0xF6E DUP6 DUP3 DUP7 ADD PUSH2 0xE06 JUMP JUMPDEST SWAP2 POP POP SWAP3 POP SWAP3 SWAP1 POP JUMP JUMPDEST PUSH1 0x0 PUSH1 0x20 DUP3 DUP5 SUB SLT ISZERO PUSH2 0xF8E JUMPI PUSH2 0xF8D PUSH2 0x15E0 JUMP JUMPDEST JUMPDEST PUSH1 0x0 PUSH2 0xF9C DUP5 DUP3 DUP6 ADD PUSH2 0xE5A JUMP JUMPDEST SWAP2 POP POP SWAP3 SWAP2 POP POP JUMP JUMPDEST PUSH1 0x0 PUSH1 0x20 DUP3 DUP5 SUB SLT ISZERO PUSH2 0xFBB JUMPI PUSH2 0xFBA PUSH2 0x15E0 JUMP JUMPDEST JUMPDEST PUSH1 0x0 PUSH2 0xFC9 DUP5 DUP3 DUP6 ADD PUSH2 0xE6F JUMP JUMPDEST SWAP2 POP POP SWAP3 SWAP2 POP POP JUMP JUMPDEST PUSH2 0xFDB DUP2 PUSH2 0x14EA JUMP JUMPDEST DUP3 MSTORE POP POP JUMP JUMPDEST PUSH2 0xFEA DUP2 PUSH2 0x147E JUMP JUMPDEST DUP3 MSTORE POP POP JUMP JUMPDEST PUSH1 0x0 PUSH2 0xFFB DUP3 PUSH2 0x1337 JUMP JUMPDEST PUSH2 0x1005 DUP2 DUP6 PUSH2 0x134D JUMP JUMPDEST SWAP4 POP PUSH2 0x1015 DUP2 DUP6 PUSH1 0x20 DUP7 ADD PUSH2 0x1520 JUMP JUMPDEST DUP1 DUP5 ADD SWAP2 POP POP SWAP3 SWAP2 POP POP JUMP JUMPDEST PUSH1 0x0 PUSH2 0x102C DUP3 PUSH2 0x1342 JUMP JUMPDEST PUSH2 0x1036 DUP2 DUP6 PUSH2 0x1358 JUMP JUMPDEST SWAP4 POP PUSH2 0x1046 DUP2 DUP6 PUSH1 0x20 DUP7 ADD PUSH2 0x1520 JUMP JUMPDEST PUSH2 0x104F DUP2 PUSH2 0x15E5 JUMP JUMPDEST DUP5 ADD SWAP2 POP POP SWAP3 SWAP2 POP POP JUMP JUMPDEST PUSH1 0x0 PUSH2 0x1067 PUSH1 0x26 DUP4 PUSH2 0x1358 JUMP JUMPDEST SWAP2 POP PUSH2 0x1072 DUP3 PUSH2 0x15F6 JUMP JUMPDEST PUSH1 0x40 DUP3 ADD SWAP1 POP SWAP2 SWAP1 POP JUMP JUMPDEST PUSH1 0x0 PUSH2 0x108A PUSH1 0x3A DUP4 PUSH2 0x1358 JUMP JUMPDEST SWAP2 POP PUSH2 0x1095 DUP3 PUSH2 0x1645 JUMP JUMPDEST PUSH1 0x40 DUP3 ADD SWAP1 POP SWAP2 SWAP1 POP JUMP JUMPDEST PUSH1 0x0 PUSH2 0x10AD PUSH1 0x1D DUP4 PUSH2 0x1358 JUMP JUMPDEST SWAP2 POP PUSH2 0x10B8 DUP3 PUSH2 0x1694 JUMP JUMPDEST PUSH1 0x20 DUP3 ADD SWAP1 POP SWAP2 SWAP1 POP JUMP JUMPDEST PUSH1 0x0 PUSH2 0x10D0 PUSH1 0x26 DUP4 PUSH2 0x1358 JUMP JUMPDEST SWAP2 POP PUSH2 0x10DB DUP3 PUSH2 0x16BD JUMP JUMPDEST PUSH1 0x40 DUP3 ADD SWAP1 POP SWAP2 SWAP1 POP JUMP JUMPDEST PUSH1 0x0 PUSH2 0x10F3 PUSH1 0x2B DUP4 PUSH2 0x1358 JUMP JUMPDEST SWAP2 POP PUSH2 0x10FE DUP3 PUSH2 0x170C JUMP JUMPDEST PUSH1 0x40 DUP3 ADD SWAP1 POP SWAP2 SWAP1 POP JUMP JUMPDEST PUSH1 0x0 PUSH2 0x1116 PUSH1 0x0 DUP4 PUSH2 0x134D JUMP JUMPDEST SWAP2 POP PUSH2 0x1121 DUP3 PUSH2 0x175B JUMP JUMPDEST PUSH1 0x0 DUP3 ADD SWAP1 POP SWAP2 SWAP1 POP JUMP JUMPDEST PUSH1 0x0 PUSH2 0x1139 PUSH1 0x1D DUP4 PUSH2 0x1358 JUMP JUMPDEST SWAP2 POP PUSH2 0x1144 DUP3 PUSH2 0x175E JUMP JUMPDEST PUSH1 0x20 DUP3 ADD SWAP1 POP SWAP2 SWAP1 POP JUMP JUMPDEST PUSH1 0x0 PUSH2 0x115C PUSH1 0x2A DUP4 PUSH2 0x1358 JUMP JUMPDEST SWAP2 POP PUSH2 0x1167 DUP3 PUSH2 0x1787 JUMP JUMPDEST PUSH1 0x40 DUP3 ADD SWAP1 POP SWAP2 SWAP1 POP JUMP JUMPDEST PUSH2 0x117B DUP2 PUSH2 0x14E0 JUMP JUMPDEST DUP3 MSTORE POP POP JUMP JUMPDEST PUSH1 0x0 PUSH2 0x118D DUP3 DUP5 PUSH2 0xFF0 JUMP JUMPDEST SWAP2 POP DUP2 SWAP1 POP SWAP3 SWAP2 POP POP JUMP JUMPDEST PUSH1 0x0 PUSH2 0x11A3 DUP3 PUSH2 0x1109 JUMP JUMPDEST SWAP2 POP DUP2 SWAP1 POP SWAP2 SWAP1 POP JUMP JUMPDEST PUSH1 0x0 PUSH1 0x20 DUP3 ADD SWAP1 POP PUSH2 0x11C2 PUSH1 0x0 DUP4 ADD DUP5 PUSH2 0xFE1 JUMP JUMPDEST SWAP3 SWAP2 POP POP JUMP JUMPDEST PUSH1 0x0 PUSH1 0x40 DUP3 ADD SWAP1 POP PUSH2 0x11DD PUSH1 0x0 DUP4 ADD DUP6 PUSH2 0xFD2 JUMP JUMPDEST PUSH2 0x11EA PUSH1 0x20 DUP4 ADD DUP5 PUSH2 0x1172 JUMP JUMPDEST SWAP4 SWAP3 POP POP POP JUMP JUMPDEST PUSH1 0x0 PUSH1 0x40 DUP3 ADD SWAP1 POP PUSH2 0x1206 PUSH1 0x0 DUP4 ADD DUP6 PUSH2 0xFE1 JUMP JUMPDEST PUSH2 0x1213 PUSH1 0x20 DUP4 ADD DUP5 PUSH2 0x1172 JUMP JUMPDEST SWAP4 SWAP3 POP POP POP JUMP JUMPDEST PUSH1 0x0 PUSH1 0x20 DUP3 ADD SWAP1 POP DUP2 DUP2 SUB PUSH1 0x0 DUP4 ADD MSTORE PUSH2 0x1234 DUP2 DUP5 PUSH2 0x1021 JUMP JUMPDEST SWAP1 POP SWAP3 SWAP2 POP POP JUMP JUMPDEST PUSH1 0x0 PUSH1 0x20 DUP3 ADD SWAP1 POP DUP2 DUP2 SUB PUSH1 0x0 DUP4 ADD MSTORE PUSH2 0x1255 DUP2 PUSH2 0x105A JUMP JUMPDEST SWAP1 POP SWAP2 SWAP1 POP JUMP JUMPDEST PUSH1 0x0 PUSH1 0x20 DUP3 ADD SWAP1 POP DUP2 DUP2 SUB PUSH1 0x0 DUP4 ADD MSTORE PUSH2 0x1275 DUP2 PUSH2 0x107D JUMP JUMPDEST SWAP1 POP SWAP2 SWAP1 POP JUMP JUMPDEST PUSH1 0x0 PUSH1 0x20 DUP3 ADD SWAP1 POP DUP2 DUP2 SUB PUSH1 0x0 DUP4 ADD MSTORE PUSH2 0x1295 DUP2 PUSH2 0x10A0 JUMP JUMPDEST SWAP1 POP SWAP2 SWAP1 POP JUMP JUMPDEST PUSH1 0x0 PUSH1 0x20 DUP3 ADD SWAP1 POP DUP2 DUP2 SUB PUSH1 0x0 DUP4 ADD MSTORE PUSH2 0x12B5 DUP2 PUSH2 0x10C3 JUMP JUMPDEST SWAP1 POP SWAP2 SWAP1 POP JUMP JUMPDEST PUSH1 0x0 PUSH1 0x20 DUP3 ADD SWAP1 POP DUP2 DUP2 SUB PUSH1 0x0 DUP4 ADD MSTORE PUSH2 0x12D5 DUP2 PUSH2 0x10E6 JUMP JUMPDEST SWAP1 POP SWAP2 SWAP1 POP JUMP JUMPDEST PUSH1 0x0 PUSH1 0x20 DUP3 ADD SWAP1 POP DUP2 DUP2 SUB PUSH1 0x0 DUP4 ADD MSTORE PUSH2 0x12F5 DUP2 PUSH2 0x112C JUMP JUMPDEST SWAP1 POP SWAP2 SWAP1 POP JUMP JUMPDEST PUSH1 0x0 PUSH1 0x20 DUP3 ADD SWAP1 POP DUP2 DUP2 SUB PUSH1 0x0 DUP4 ADD MSTORE PUSH2 0x1315 DUP2 PUSH2 0x114F JUMP JUMPDEST SWAP1 POP SWAP2 SWAP1 POP JUMP JUMPDEST PUSH1 0x0 PUSH1 0x20 DUP3 ADD SWAP1 POP PUSH2 0x1331 PUSH1 0x0 DUP4 ADD DUP5 PUSH2 0x1172 JUMP JUMPDEST SWAP3 SWAP2 POP POP JUMP JUMPDEST PUSH1 0x0 DUP2 MLOAD SWAP1 POP SWAP2 SWAP1 POP JUMP JUMPDEST PUSH1 0x0 DUP2 MLOAD SWAP1 POP SWAP2 SWAP1 POP JUMP JUMPDEST PUSH1 0x0 DUP2 SWAP1 POP SWAP3 SWAP2 POP POP JUMP JUMPDEST PUSH1 0x0 DUP3 DUP3 MSTORE PUSH1 0x20 DUP3 ADD SWAP1 POP SWAP3 SWAP2 POP POP JUMP JUMPDEST PUSH1 0x0 PUSH2 0x1374 DUP3 PUSH2 0x14E0 JUMP JUMPDEST SWAP2 POP PUSH2 0x137F DUP4 PUSH2 0x14E0 JUMP JUMPDEST SWAP3 POP DUP3 PUSH32 0xFFFFFFFFFFFFFFFFFFFFFFFFFFFFFFFFFFFFFFFFFFFFFFFFFFFFFFFFFFFFFFFF SUB DUP3 GT ISZERO PUSH2 0x13B4 JUMPI PUSH2 0x13B3 PUSH2 0x1553 JUMP JUMPDEST JUMPDEST DUP3 DUP3 ADD SWAP1 POP SWAP3 SWAP2 POP POP JUMP JUMPDEST PUSH1 0x0 PUSH2 0x13CA DUP3 PUSH2 0x14E0 JUMP JUMPDEST SWAP2 POP PUSH2 0x13D5 DUP4 PUSH2 0x14E0 JUMP JUMPDEST SWAP3 POP DUP3 PUSH2 0x13E5 JUMPI PUSH2 0x13E4 PUSH2 0x1582 JUMP JUMPDEST JUMPDEST DUP3 DUP3 DIV SWAP1 POP SWAP3 SWAP2 POP POP JUMP JUMPDEST PUSH1 0x0 PUSH2 0x13FB DUP3 PUSH2 0x14E0 JUMP JUMPDEST SWAP2 POP PUSH2 0x1406 DUP4 PUSH2 0x14E0 JUMP JUMPDEST SWAP3 POP DUP2 PUSH32 0xFFFFFFFFFFFFFFFFFFFFFFFFFFFFFFFFFFFFFFFFFFFFFFFFFFFFFFFFFFFFFFFF DIV DUP4 GT DUP3 ISZERO ISZERO AND ISZERO PUSH2 0x143F JUMPI PUSH2 0x143E PUSH2 0x1553 JUMP JUMPDEST JUMPDEST DUP3 DUP3 MUL SWAP1 POP SWAP3 SWAP2 POP POP JUMP JUMPDEST PUSH1 0x0 PUSH2 0x1455 DUP3 PUSH2 0x14E0 JUMP JUMPDEST SWAP2 POP PUSH2 0x1460 DUP4 PUSH2 0x14E0 JUMP JUMPDEST SWAP3 POP DUP3 DUP3 LT ISZERO PUSH2 0x1473 JUMPI PUSH2 0x1472 PUSH2 0x1553 JUMP JUMPDEST JUMPDEST DUP3 DUP3 SUB SWAP1 POP SWAP3 SWAP2 POP POP JUMP JUMPDEST PUSH1 0x0 PUSH2 0x1489 DUP3 PUSH2 0x14C0 JUMP JUMPDEST SWAP1 POP SWAP2 SWAP1 POP JUMP JUMPDEST PUSH1 0x0 PUSH2 0x149B DUP3 PUSH2 0x14C0 JUMP JUMPDEST SWAP1 POP SWAP2 SWAP1 POP JUMP JUMPDEST PUSH1 0x0 DUP2 ISZERO ISZERO SWAP1 POP SWAP2 SWAP1 POP JUMP JUMPDEST PUSH1 0x0 PUSH2 0x14B9 DUP3 PUSH2 0x147E JUMP JUMPDEST SWAP1 POP SWAP2 SWAP1 POP JUMP JUMPDEST PUSH1 0x0 PUSH20 0xFFFFFFFFFFFFFFFFFFFFFFFFFFFFFFFFFFFFFFFF DUP3 AND SWAP1 POP SWAP2 SWAP1 POP JUMP JUMPDEST PUSH1 0x0 DUP2 SWAP1 POP SWAP2 SWAP1 POP JUMP JUMPDEST PUSH1 0x0 PUSH2 0x14F5 DUP3 PUSH2 0x14FC JUMP JUMPDEST SWAP1 POP SWAP2 SWAP1 POP JUMP JUMPDEST PUSH1 0x0 PUSH2 0x1507 DUP3 PUSH2 0x150E JUMP JUMPDEST SWAP1 POP SWAP2 SWAP1 POP JUMP JUMPDEST PUSH1 0x0 PUSH2 0x1519 DUP3 PUSH2 0x14C0 JUMP JUMPDEST SWAP1 POP SWAP2 SWAP1 POP JUMP JUMPDEST PUSH1 0x0 JUMPDEST DUP4 DUP2 LT ISZERO PUSH2 0x153E JUMPI DUP1 DUP3 ADD MLOAD DUP2 DUP5 ADD MSTORE PUSH1 0x20 DUP2 ADD SWAP1 POP PUSH2 0x1523 JUMP JUMPDEST DUP4 DUP2 GT ISZERO PUSH2 0x154D JUMPI PUSH1 0x0 DUP5 DUP5 ADD MSTORE JUMPDEST POP POP POP POP JUMP JUMPDEST PUSH32 0x4E487B7100000000000000000000000000000000000000000000000000000000 PUSH1 0x0 MSTORE PUSH1 0x11 PUSH1 0x4 MSTORE PUSH1 0x24 PUSH1 0x0 REVERT JUMPDEST PUSH32 0x4E487B7100000000000000000000000000000000000000000000000000000000 PUSH1 0x0 MSTORE PUSH1 0x12 PUSH1 0x4 MSTORE PUSH1 0x24 PUSH1 0x0 REVERT JUMPDEST PUSH32 0x4E487B7100000000000000000000000000000000000000000000000000000000 PUSH1 0x0 MSTORE PUSH1 0x32 PUSH1 0x4 MSTORE PUSH1 0x24 PUSH1 0x0 REVERT JUMPDEST PUSH1 0x0 DUP1 REVERT JUMPDEST PUSH1 0x0 PUSH1 0x1F NOT PUSH1 0x1F DUP4 ADD AND SWAP1 POP SWAP2 SWAP1 POP JUMP JUMPDEST PUSH32 0x5061796D656E7453706C69747465723A206163636F756E7420686173206E6F20 PUSH1 0x0 DUP3 ADD MSTORE PUSH32 0x7368617265730000000000000000000000000000000000000000000000000000 PUSH1 0x20 DUP3 ADD MSTORE POP JUMP JUMPDEST PUSH32 0x416464726573733A20756E61626C6520746F2073656E642076616C75652C2072 PUSH1 0x0 DUP3 ADD MSTORE PUSH32 0x6563697069656E74206D61792068617665207265766572746564000000000000 PUSH1 0x20 DUP3 ADD MSTORE POP JUMP JUMPDEST PUSH32 0x416464726573733A20696E73756666696369656E742062616C616E6365000000 PUSH1 0x0 DUP3 ADD MSTORE POP JUMP JUMPDEST PUSH32 0x416464726573733A20696E73756666696369656E742062616C616E636520666F PUSH1 0x0 DUP3 ADD MSTORE PUSH32 0x722063616C6C0000000000000000000000000000000000000000000000000000 PUSH1 0x20 DUP3 ADD MSTORE POP JUMP JUMPDEST PUSH32 0x5061796D656E7453706C69747465723A206163636F756E74206973206E6F7420 PUSH1 0x0 DUP3 ADD MSTORE PUSH32 0x647565207061796D656E74000000000000000000000000000000000000000000 PUSH1 0x20 DUP3 ADD MSTORE POP JUMP JUMPDEST POP JUMP JUMPDEST PUSH32 0x416464726573733A2063616C6C20746F206E6F6E2D636F6E7472616374000000 PUSH1 0x0 DUP3 ADD MSTORE POP JUMP JUMPDEST PUSH32 0x5361666545524332303A204552433230206F7065726174696F6E20646964206E PUSH1 0x0 DUP3 ADD MSTORE PUSH32 0x6F74207375636365656400000000000000000000000000000000000000000000 PUSH1 0x20 DUP3 ADD MSTORE POP JUMP JUMPDEST PUSH2 0x17DF DUP2 PUSH2 0x147E JUMP JUMPDEST DUP2 EQ PUSH2 0x17EA JUMPI PUSH1 0x0 DUP1 REVERT JUMPDEST POP JUMP JUMPDEST PUSH2 0x17F6 DUP2 PUSH2 0x1490 JUMP JUMPDEST DUP2 EQ PUSH2 0x1801 JUMPI PUSH1 0x0 DUP1 REVERT JUMPDEST POP JUMP JUMPDEST PUSH2 0x180D DUP2 PUSH2 0x14A2 JUMP JUMPDEST DUP2 EQ PUSH2 0x1818 JUMPI PUSH1 0x0 DUP1 REVERT JUMPDEST POP JUMP JUMPDEST PUSH2 0x1824 DUP2 PUSH2 0x14AE JUMP JUMPDEST DUP2 EQ PUSH2 0x182F JUMPI PUSH1 0x0 DUP1 REVERT JUMPDEST POP JUMP JUMPDEST PUSH2 0x183B DUP2 PUSH2 0x14E0 JUMP JUMPDEST DUP2 EQ PUSH2 0x1846 JUMPI PUSH1 0x0 DUP1 REVERT JUMPDEST POP JUMP INVALID LOG2 PUSH5 0x6970667358 0x22 SLT KECCAK256 SMOD PUSH13 0xA5BADC38E810B6C08F0DF151BF EXTCODESIZE CALLDATACOPY DUP13 PUSH7 0x9D49E7A556419A SWAP12 0xD7 LOG2 0x4C COINBASE 0xB0 PUSH5 0x736F6C6343 STOP ADDMOD SMOD STOP CALLER "
				},
				"gasEstimates": {
					"creation": {
						"codeDepositCost": "1254200",
						"executionCost": "infinite",
						"totalCost": "infinite"
					},
					"external": {
						"payee(uint256)": "5056",
						"releasable(address)": "infinite",
						"releasable(address,address)": "infinite",
						"release(address)": "infinite",
						"release(address,address)": "infinite",
						"released(address)": "2841",
						"released(address,address)": "infinite",
						"shares(address)": "2907",
						"totalReleased()": "2547",
						"totalReleased(address)": "2972",
						"totalShares()": "2460"
					},
					"internal": {
						"_addPayee(address,uint256)": "infinite",
						"_pendingPayment(address,uint256,uint256)": "infinite"
					}
				},
				"methodIdentifiers": {
					"payee(uint256)": "8b83209b",
					"releasable(address)": "a3f8eace",
					"releasable(address,address)": "c45ac050",
					"release(address)": "19165587",
					"release(address,address)": "48b75044",
					"released(address)": "9852595c",
					"released(address,address)": "406072a9",
					"shares(address)": "ce7c2ac2",
					"totalReleased()": "e33b7de3",
					"totalReleased(address)": "d79779b2",
					"totalShares()": "3a98ef39"
				}
			},
			"storageLayout": {
				"storage": [
					{
						"astId": 36,
						"contract": "common/contracts/finance/PaymentSplitter.sol:PaymentSplitter",
						"label": "_totalShares",
						"offset": 0,
						"slot": "0",
						"type": "t_uint256"
					},
					{
						"astId": 38,
						"contract": "common/contracts/finance/PaymentSplitter.sol:PaymentSplitter",
						"label": "_totalReleased",
						"offset": 0,
						"slot": "1",
						"type": "t_uint256"
					},
					{
						"astId": 42,
						"contract": "common/contracts/finance/PaymentSplitter.sol:PaymentSplitter",
						"label": "_shares",
						"offset": 0,
						"slot": "2",
						"type": "t_mapping(t_address,t_uint256)"
					},
					{
						"astId": 46,
						"contract": "common/contracts/finance/PaymentSplitter.sol:PaymentSplitter",
						"label": "_released",
						"offset": 0,
						"slot": "3",
						"type": "t_mapping(t_address,t_uint256)"
					},
					{
						"astId": 49,
						"contract": "common/contracts/finance/PaymentSplitter.sol:PaymentSplitter",
						"label": "_payees",
						"offset": 0,
						"slot": "4",
						"type": "t_array(t_address)dyn_storage"
					},
					{
						"astId": 54,
						"contract": "common/contracts/finance/PaymentSplitter.sol:PaymentSplitter",
						"label": "_erc20TotalReleased",
						"offset": 0,
						"slot": "5",
						"type": "t_mapping(t_contract(IERC20)550,t_uint256)"
					},
					{
						"astId": 61,
						"contract": "common/contracts/finance/PaymentSplitter.sol:PaymentSplitter",
						"label": "_erc20Released",
						"offset": 0,
						"slot": "6",
						"type": "t_mapping(t_contract(IERC20)550,t_mapping(t_address,t_uint256))"
					}
				],
				"types": {
					"t_address": {
						"encoding": "inplace",
						"label": "address",
						"numberOfBytes": "20"
					},
					"t_array(t_address)dyn_storage": {
						"base": "t_address",
						"encoding": "dynamic_array",
						"label": "address[]",
						"numberOfBytes": "32"
					},
					"t_contract(IERC20)550": {
						"encoding": "inplace",
						"label": "contract IERC20",
						"numberOfBytes": "20"
					},
					"t_mapping(t_address,t_uint256)": {
						"encoding": "mapping",
						"key": "t_address",
						"label": "mapping(address => uint256)",
						"numberOfBytes": "32",
						"value": "t_uint256"
					},
					"t_mapping(t_contract(IERC20)550,t_mapping(t_address,t_uint256))": {
						"encoding": "mapping",
						"key": "t_contract(IERC20)550",
						"label": "mapping(contract IERC20 => mapping(address => uint256))",
						"numberOfBytes": "32",
						"value": "t_mapping(t_address,t_uint256)"
					},
					"t_mapping(t_contract(IERC20)550,t_uint256)": {
						"encoding": "mapping",
						"key": "t_contract(IERC20)550",
						"label": "mapping(contract IERC20 => uint256)",
						"numberOfBytes": "32",
						"value": "t_uint256"
					},
					"t_uint256": {
						"encoding": "inplace",
						"label": "uint256",
						"numberOfBytes": "32"
					}
				}
			},
			"userdoc": {
				"kind": "user",
				"methods": {},
				"version": 1
			}
		}
	}
}